:10000000B01A0020C9380000C5380000C53800000B
:10001000C5380000C5380000C538000000000000E9
:10002000000000000000000000000000C5380000D3
:10003000C538000000000000C5380000C5380000C9
:10004000C5380000AD0D0000C10D0000D50D000049
:10005000E90D0000FD0D0000110E0000250E00004E
:10006000390E00004D0E0000610E0000750E0000FC
:10007000890E00009D0E0000B10E0000C50E0000AC
:10008000D90E0000C5380000C5380000C538000092
:10009000C5380000C5380000C5380000C53800006C
:1000A000C53800002D040000450400005D04000078
:1000B000750400008D040000A5040000BD040000CC
:1000C000D5040000ED040000050500001D0500003A
:1000D00035050000C5380000C5380000C5380000EF
:1000E000C5380000C5380000C5380000C53800001C
:1000F000C5380000C5380000C5380000C53800000C
:10010000C5380000C5380000C5380000C5380000FB
:10011000C5380000C5380000C5380000C5380000EB
:10012000C5380000C5380000C5380000C5380000DB
:10013000C538000081160000C5380000991600007F
:10014000C5380000C5380000C5380000C5380000BB
:10015000C5380000C5380000C5380000C5380000AB
:10016000C5380000C5380000C5380000C53800009B
:10017000C5380000B1160000C9160000C5380000DF
:1001800008B50548054B191A062900D808BD044AC8
:10019000002AFBD09047F9E7347800003778000058
:1001A0000000000008B50748074B191A8A1002EB37
:1001B000D273591000D108BD044A002AFBD09047E1
:1001C000F9E700BF34780000347800000000000038
:1001D00010B5064C237843B9FFF7D2FF044810B19D
:1001E0000448AFF300800121217010BD18090020E0
:1001F000000000003478000008B5084B1BB1084827
:100200000849AFF300800848016811B1074A02B1FC
:100210009047BDE80840FFF7C5BF00BF00000000E1
:10022000347800001C090020347800000000000031
:100230004FF00A030370704738B505464FF4C044C9
:10024000C4F20A04204642F23D43C0F2000398473C
:10025000287800F00F01C4F8001338BD4FF01303E5
:1002600003604FF01F0141604FF0000202724272C2
:10027000704700BF03684FF0010202FA03F24FF427
:10028000C043C4F20A039A600268416801F03F016A
:1002900002F1400243F82210037A427A022A06D081
:1002A000032A07D0012A07D143F4803304E043F442
:1002B000003301E043F4403340684FF4C041C4F2DE
:1002C0000A0100F1800041F8203070472DE9F04725
:1002D00006464FEA402303F1804000F56122D2F840
:1002E000D09001EA0901C2F8D81040F63413C2F2E6
:1002F0000003186818B34FF00004254640F638177D
:10030000C2F200074FF0010A40F63418C2F20008AA
:10031000E259B6EB521F0AD102F01F010AFA01F3AB
:1003200013EA090F03D03819426802B1904705F16A
:10033000010504F10804D8F80010A942E8D8BDE886
:10034000F08700BF70B440F63413C2F200031B689C
:10035000052B66D800F01F044FF0010505FA04F6DE
:1003600016F0FF0F12D116F47F4F09D116F47F0F4C
:1003700009D106F07F44002C0CBF0426032607E0B9
:100380004FF0010604E04FF0020601E04FF00006D6
:100390004FEA501506EB850404F11904E4B240F667
:1003A0003816C2F2000646F8330006EBC30041607F
:1003B00063B24FEA531104F01F064FF0010505FA2E
:1003C00006F04FF46145CEF2000501F1600645F8F4
:1003D0002600002B0BDA04F00F044FEA0212D2B20F
:1003E0004EF6FC43CEF20003E3181A7608E04FEA1B
:1003F0000212D2B203F1604303F5614383F8002394
:100400004FF46142CEF2000242F8210040F634116E
:10041000C2F20001086800F1010008604FF001001D
:1004200001E04FF0000070BC704700BF08B54FF00E
:1004300000004FF0FF0140F2CD23C0F200039847C7
:1004400008BD00BF08B54FF000004FF47F4140F2F7
:10045000CD23C0F20003984708BD00BF08B54FF098
:1004600000004FF47F0140F2CD23C0F20003984713
:1004700008BD00BF08B54FF000004FF0FF4140F24B
:10048000CD23C0F20003984708BD00BF08B54FF068
:1004900001004FF0FF0140F2CD23C0F20003984766
:1004A00008BD00BF08B54FF001004FF47F4140F296
:1004B000CD23C0F20003984708BD00BF08B54FF038
:1004C00001004FF47F0140F2CD23C0F200039847B2
:1004D00008BD00BF08B54FF001004FF07F4140F26A
:1004E000CD23C0F20003984708BD00BF08B54FF008
:1004F00002004FF0FF0140F2CD23C0F20003984705
:1005000008BD00BF08B54FF002004FF47F4140F234
:10051000CD23C0F20003984708BD00BF08B54FF0D7
:1005200002004FF47F0140F2CD23C0F20003984750
:1005300008BD00BF08B54FF002004FF07F4140F208
:10054000CD23C0F20003984708BD00BF10B44FEAA6
:10055000811143184FF0020444504FF0FF3098626D
:10056000196A5A6010BC70474FEA81114FF00503B9
:100570004350704700EB81114A61704700EB8111D5
:10058000CA6170474FF4A053C4F20E034FF08002CB
:10059000DA6540F62C20C2F20000016801290FD173
:1005A0004FF4A050C4F20E004FF00401416540F634
:1005B0002C23C2F200031A6802F101021A6070478C
:1005C00040F62C23C2F200031A68022A07D14FF426
:1005D000A053C4F20E034FF004029A65704740F630
:1005E0002C20C2F200004FF000010160704700BFF4
:1005F00008B540F63423C2F200034FF021021A601E
:1006000018714FF0000058714FF00102DA7140F696
:100610006810C2F2000001709860DA604FF4004088
:10062000C4F20100194641F23133C0F20003984789
:1006300008BD00BF2DE9F0474FF49054C4F20E04FA
:100640004FF4805AC4F844A0C4F868A14FF00206E1
:100650006664C4F868615546C4F20E054FF020097F
:10066000C5F84490C5F868914FF4A053C4F20E0346
:100670004FF004025A64C3F868214FF00107676421
:10068000C4F868719F64C3F864719E64C3F86461C0
:100690004FF008019964C3F864114FF080409864EA
:1006A000C3F864014FF01001A964C5F864114FF458
:1006B0000010A864C5F864014FF48001A964C5F86E
:1006C00064114FF40050A064C4F86401C4F858A049
:1006D000A665C5F8589067659A654FF0050040F229
:1006E0000108C2F20008C04766654FF00500C04728
:1006F000A665A7654FF00500C04766654FF0050089
:10070000C047A66567654FF00500C047C4F854A010
:10071000C5F854904FF00000BDE8F0872DE9F04394
:1007200089B04FF0000440F62C23C2F200031C6095
:1007300047F27050C0F2000043F64D36C0F200069A
:10074000B0474FF40045C4F20105284642F241117A
:10075000C0F20001884740F66C12C2F2000210603D
:10076000029048F2A060C0F20100039004948DF85A
:1007700014408DF815408DF816408DF817408DF80F
:1007800018408DF819408DF81A408DF81B408DF8EF
:100790001C408DF81D408DF81E408DF81F402846E6
:1007A000214640F62572C0F200024FF0010341F2EB
:1007B0008154C0F20004A047284602A941F2152343
:1007C000C0F20003984747F28450C0F20000B047DF
:1007D0004FF012004FF0800140F2F152C0F20002DF
:1007E0009047002840F0A98041F2BE0040F2010687
:1007F000C2F20006B04747F22044C0F2000404F5FC
:10080000A77940F2F156C0F2000640F2AD1840F26E
:100810000107C2F2000720786178B047002800F095
:1008200094808DE020786178B047002840F088807F
:100830004046B84704F10205A0786978B04700281F
:1008400000F088807CE040F23561C0F2000188470A
:100850004FF4A050C4F20E004FF000738364C0F850
:1008600064314367C0F88830C0F8C430C0F808313C
:10087000836183628363C0F8A830C0F8B4304FF05E
:10088000590040F28551C0F200014FF0010240F2E0
:100890004533C0F20003984758B947F29850C0F268
:1008A000000043F64D33C0F2000398474FF01C00A0
:1008B00048E04FF4A055C4F20E054FF00074C5F89F
:1008C00094406C67C5F88840C5F8C840C5F8084131
:1008D000AC616C62AC63AC60C5F8A840C5F8B440CC
:1008E000C5F8844101A840F23122C0F200029047CD
:1008F00001A840F23921C0F20001884702A840F265
:100900005D23C0F2000398474FF0000502954FF0B9
:10091000010403948DF810404FF002008DF811008F
:1009200002A840F27522C0F2000290474FF4C04185
:10093000C4F20A014C60284604E04FF01C0001E0BC
:100940004FF01C0009B0BDE8F0834046B84704F101
:10095000020467E74046B84705F102044C457FF4BE
:1009600061AF70E770B540F62C22C2F20002136846
:10097000002BFCD14FF49054C4F20E044FF4805677
:10098000A66540F2AD1040F20105C2F20005A8478D
:10099000666540F2AD10A84740F62C20C2F2000078
:1009A0004FF00101016070BD10B44FF49053C4F2D8
:1009B0000E034FF0020159651C6EC4F340344FF42E
:1009C0008052C4F20E02106EC0F3805040EA440020
:1009D000146EC4F3405444EA4000126EC2F3001493
:1009E00044EA40004FF4A052C4F20E02146EC4F365
:1009F000807444EA4000146EC4F3C00444EA40002A
:100A0000146EC4F3400444EA4000126E02F0010286
:100A100042EA40004FEA4002996559651B6E13F4A3
:100A2000005F18BF42F001024FEA42014FF48050CC
:100A3000C4F20E00026E12F4800F1CBF41F00101DF
:100A400089B24FEA410399B24FF48050C4F20E00CC
:100A5000026E12F4001F18BF41F001014FEA41037A
:100A600099B24FF48050C4F20E00026E12F0100FD3
:100A700018BF41F001014FEA410399B24FF4A05071
:100A8000C4F20E00026E12F0804F18BF41F0010157
:100A90004FEA410399B24FF4A050C4F20E00026E27
:100AA00012F0080F18BF41F001014FEA410399B25B
:100AB0004FF4A050C4F20E00026E12F0020F18BFE5
:100AC00041F001014FEA410398B24FF4A051C4F242
:100AD0000E010A6E12F0010F18BF40F001004FF432
:100AE0009053C4F20E034FF00201996510BC704799
:100AF0002DE9F04F83B040F62C23C2F200031968B1
:100B0000022918BF19207ED14FF49050C4F20E0074
:100B10004FF0010282654FF002044465846542652E
:100B20004FF48055C4F20E054FF02006AE6540F23A
:100B3000AD1040F20107C2F20007B8474FF400447D
:100B4000C4F2020441F2E975C0F2000520460DF13D
:100B50000601A847BDF80630532BF7D122E0C04765
:100B6000834620465946B8472046CBF30F21B84765
:100B700020460DF10601A847BDF806105029F7D10F
:100B8000013EECD141F2E975C0F2000520460DF1BD
:100B90000601A847BDF806004C28F7D1B9F10109B4
:100BA00010D115E04FF0F0094FF4A07A40F6A918E3
:100BB000C0F200084FF40044C4F2020441F2B177DD
:100BC000C0F20007564641F2E975C0F20005C6E7DB
:100BD0004FF49053C4F20E034FF001029A654FF0A8
:100BE0000201596599655A654FF48050C4F20E00B0
:100BF0004FF0200343654FF0000040F62C22C2F274
:100C000000021060FFE703B0BDE8F08F2DE9F84364
:100C10000C46904648BB002A2BDD8F1840F658261C
:100C2000C2F2000640F65025C2F200056FEA010943
:100C300007EB090000F0010930682B68984704F1C0
:100C40000104BC4219D10DE030682B682146984759
:100C500004F10104214630682A68904704F1010438
:100C6000BC42F1D14046BDE8F8834FF0FF30BDE80B
:100C7000F8834FF00000BDE8F883B9F1000FE3D02E
:100C800030682A682146904704F10104BC42DBD158
:100C9000E8E700BF2DE9F8430D46904600F1FF302C
:100CA000022824D832B340F65826C2F2000640F695
:100CB0005427C2F200074FF0000402F1FF3909F097
:100CC000010930683B68095D9847A0421ADA14E0D0
:100CD00030683B68295D984700280EDB04F1010469
:100CE00030683A68295D904700281DDA05E04FF02A
:100CF000FF3404E04FF0000401E04FF0FF342046E1
:100D0000BDE8F88304F10104A045F8D0B9F1000F63
:100D1000DED030683A68295D90470028EDDB04F1A9
:100D20000104A045D4D1EAE704F10104A045CFD1E4
:100D3000E5E700BF0F2888BF00204FEA801000F1D0
:100D4000804101F52220704708B540F63553C0F2C6
:100D500000039847C169C06A11F0010F0CD010F070
:100D6000040F0CD110F0020F0CD100F00102002A88
:100D70000CBF0120022008BD4FF0000008BD4FF05D
:100D8000040008BD4FF0030008BD00BF10B50446C5
:100D900040F64953C0F20003984740F65C21C2F286
:100DA000000151F8242002B1904710BD08B54FF062
:100DB000000040F68D53C0F20003984708BD00BF05
:100DC00008B54FF0010040F68D53C0F2000398477C
:100DD00008BD00BF08B54FF0020040F68D53C0F2C9
:100DE0000003984708BD00BF08B54FF0030040F668
:100DF0008D53C0F20003984708BD00BF08B54FF0FF
:100E0000040040F68D53C0F20003984708BD00BFB0
:100E100008B54FF0050040F68D53C0F20003984727
:100E200008BD00BF08B54FF0060040F68D53C0F274
:100E30000003984708BD00BF08B54FF0070040F613
:100E40008D53C0F20003984708BD00BF08B54FF0AE
:100E5000080040F68D53C0F20003984708BD00BF5C
:100E600008B54FF0090040F68D53C0F200039847D3
:100E700008BD00BF08B54FF00A0040F68D53C0F220
:100E80000003984708BD00BF08B54FF00B0040F6BF
:100E90008D53C0F20003984708BD00BF08B54FF05E
:100EA0000C0040F68D53C0F20003984708BD00BF08
:100EB00008B54FF00D0040F68D53C0F2000398477F
:100EC00008BD00BF08B54FF00E0040F68D53C0F2CC
:100ED0000003984708BD00BF08B54FF00F0040F66B
:100EE0008D53C0F20003984708BD00BF4FF4404344
:100EF000C4F2070398420ED04FF40041C4F2070138
:100F000088420BD04FF44042C4F20102904214BF19
:100F10000020012070474FF0030070474FF002009F
:100F2000704700BF10B5044640F6ED63C0F2000301
:100F30009847E16940F6A412C2F2000252F820304C
:100F4000194011F4A06F1AD001F48073002B0CBF6C
:100F5000FE21FC2140F69012C2F200021154E36817
:100F600023F40041E1604FF0FF32E262626240F63A
:100F7000B413C2F200034FF00001195410BD11F078
:100F8000010F32D040F67012C2F200026169C9B29C
:100F900052F8203003F8011B42F8203040F680114F
:100FA000C2F2000151F8202002F1FF3341F8203055
:100FB00051F8201000297CD14FF00102626240F606
:100FC000B413C2F200034FF0000119544FF00802AD
:100FD000E262226240F6A413C2F2000353F820102A
:100FE00041F0080243F8202010BD11F0020F59D043
:100FF00040F6C811C2F2000151F82020C2B94FF0EA
:101000000202626240F6B411C2F200014FF0000326
:101010000B544FF00802E262226240F6A411C2F2C1
:10102000000151F8203043F0080241F8202010BDA3
:1010300040F69412C2F2000252F8203013F8011B5D
:10104000A16142F8203040F6C813C2F2000353F801
:10105000202002F1FF3143F8201053F8203043BB29
:1010600040F6B412C2F20002115C11B340F6B413A0
:10107000C2F200034FF000021A5440F6B811C2F257
:10108000000151F82030D96840F6C812C2F20002BF
:1010900042F82010996840F69413C2F2000343F816
:1010A000201010BD11F0080F03D04FF00800E062CF
:1010B000606210BD70B4B2FBF1F24FEA5202FF2A37
:1010C0001ED94FEA5202FF2A35D94FEA5202FF2AAF
:1010D00034D94FEA5202FF2A33D94FEA5202FF2A8B
:1010E00032D94FEA5202FF2A31D94FEA5202FF2A7F
:1010F00030D94FEA5202FF2A2FD94FF0F80018E0FA
:101100004FF000064FEA5201CDB24FEA024404F418
:101110007F042C434FEA036303F070652C43521A9B
:101120004FEA026144EA114343EA067242604FF01B
:10113000000040B214E04FF00106E3E74FF0020672
:10114000E0E74FF00306DDE74FF00406DAE74FF083
:101150000506D7E74FF00606D4E74FF00706D1E7BC
:1011600070BC704770B4B2FBF1F24FEA5202FF2A32
:101170001ED94FEA5202FF2A35D94FEA5202FF2AFE
:1011800034D94FEA5202FF2A33D94FEA5202FF2ADA
:1011900032D94FEA5202FF2A31D94FEA5202FF2ACE
:1011A00030D94FEA5202FF2A2FD94FF0F80018E049
:1011B0004FF000064FEA5201CDB24FEA024404F468
:1011C0007F042C434FEA036303F070652C43521AEB
:1011D0004FEA026144EA114343EA067282634FF028
:1011E000000040B214E04FF00106E3E74FF00206C2
:1011F000E0E74FF00306DDE74FF00406DAE74FF0D3
:101200000506D7E74FF00606D4E74FF00706D1E70B
:1012100070BC704770B505460C4642F23D43C0F2C3
:10122000000398474FF0010028604FF080012960CB
:101230004FF0FF32EA62A37B2BB14FF01000286021
:101240004FF0FF31A960616849B128462268237BCD
:1012500041F2B506C0F20006B04700285DD1A16892
:1012600049B128462268637B41F26516C0F2000648
:10127000B047002854D144F23F23C0F20F03626804
:101280009A428CBF4FF040524FF00052607C4FEAC0
:10129000002101F44071A37C03F007000143237C8B
:1012A0004FEA034000F4E020E37B4FEA036303F0DE
:1012B0004073184301431143E963E27D02F00703E1
:1012C00043F08050617D4FEA014202F4E021E37C6B
:1012D0004FEA036202F0407341EA0302217D4FEAC4
:1012E000015303F440110A43A37D4FEA032101F4A3
:1012F00040731A431043286440F64821C2F20001AB
:101300004FF000030B704B708B70CB700B714B71F7
:101310008B714FF00102CA7104E04FF0F80301E055
:101320004FF0F80358B270BD01627047C069704752
:101330002DE9F84306460C4640F6ED63C0F2000383
:10134000984705464FF0010030604FF08001316052
:101350004FF0020232604FF0FF377762F7624FF0D2
:10136000000340F69010C2F20000435540F6A4126C
:10137000C2F2000240F2025142F8251040F6B417C2
:10138000C2F200077B55E379DBB104F1040040F6BB
:101390009412C2F2000242F8250040F6C811C2F2CF
:1013A000000141F8253040F6B413C2F200034FF0BB
:1013B00001075F5540F6B810C2F2000040F8254022
:1013C0000DE0A06840F69412C2F2000242F8250037
:1013D000E16840F6C817C2F2000747F82510627CA2
:1013E0003AB1A37C4FEA037707F0E04040F0806118
:1013F00001E04FF00001226840F2FE7303EA420769
:10140000E079E26883184FEA034000F47F00247C0F
:10141000002C14BF4FF40062002247F460470743DA
:101420000F431743F76040F6A411C2F2000151F8D0
:10143000253033624FF001003060EFF3108472B654
:10144000BFF35F8F40F24402C2F200024FF0000788
:10145000177040F64823C2F20003997801F10101A8
:101460009970002C38D140F24400C2F200004FF0D5
:1014700001040470BFF35F8F62B62DE072B6BFF354
:101480005F8F4FF00003237040F64821C2F2000145
:10149000087868B940F64823C2F200034FF0000113
:1014A00001F10101C9B213F8012F002AF8D031B9B6
:1014B0004FF001012170BFF35F8F62B61CE072B67E
:1014C000BFF35F8F4FF000002070484643F2D943CE
:1014D000C0F2000398470FE040F69017C2F20007F1
:1014E00041F22D38C0F2000840F24404C2F2000478
:1014F0004FF00009C4F20F097A5D22B93046C047A7
:1015000010F0100FBAD0EFF3108072B6BFF35F8FF8
:1015100040F24403C2F200034FF00001197040F69C
:101520004822C2F20002937803F1FF31917048B96A
:1015300040F24400C2F200004FF001020270BFF31B
:101540005F8F62B64FF00203336040F69011C2F233
:101550000001485D42B212F1040F0BD040F6901327
:10156000C2F20003595D48B210F1020F0CBFFF2216
:10157000002201E04FF0FF0250B2BDE8F88300BF47
:101580002DE9F04104460E4690461F4640F6ED63B5
:10159000C0F2000398474FF44045C4F20705AC423F
:1015A0000ED04FF40041C4F207018C4211D04FF429
:1015B0004042C4F2010294424FD04FF0000501E0D6
:1015C0004FF04E054FF40041C4F201018C4202D1AC
:1015D00030E04FF04D0540F69C23C2F2000343F883
:1015E00020802A464FEA551005F01F054FF00101F3
:1015F00001FA05F54FF46143CEF2000300F16001FA
:1016000043F821504FEA0717FFB202F1604303F598
:10161000614181F800734FF46142CEF2000242F85A
:1016200020502046314641F22933C0F2000398474A
:10163000BDE8F08140F69C22C2F2000242F8208010
:101640004FF46140CEF200004FF00055C0F88451D5
:101650004FF001004FF03D02D4E740F69C23C2F268
:10166000000343F820804FF46140CEF200004FF0B9
:101670000045C0F884514FF001004FF03F02C1E730
:1016800008B540F69C23C2F2000319684FF40040ED
:10169000C4F20100884708BD08B540F69C23C2F299
:1016A000000359684FF44040C4F20100884708BD68
:1016B00008B540F69C23C2F2000399684FF400403D
:1016C000C4F20700884708BD08B540F69C23C2F263
:1016D0000003D9684FF44040C4F20700884708BDB2
:1016E00010B44FEA0113934210D920E0416841F44D
:1016F0000021416042EA034202624FF0000029E00B
:101700004FF0010026E04FF0010023E04FEAC20451
:1017100004EB5302B2FBF3F34FEAD30203F00703E7
:1017200002F1FF344FF6FE718C42E3D9E8E74FEA4D
:10173000C1014FEAC20202EB5104B4FBF1F34FEADC
:10174000D30203F0070302F1FF344FF6FE718C421F
:10175000CCD9D8E710BC70474FF040030360704706
:101760004FF08803036070474FF010030360704729
:101770004FF02403036070474FF480730360704799
:101780004FF40033036070474FF400230360704749
:10179000436913F0020F07D04FEAC1514FEAD1520B
:1017A000C2614FF0000070474FF00100704700BF6A
:1017B000436913F0020FFBD04FEAC1514FEAD152F7
:1017C000C2614FF000007047436913F0010F08D069
:1017D00080694FEAC0524FEAD2530B604FF00000CD
:1017E00070474FF001007047436913F0010FFBD0C1
:1017F00080694FEAC0524FEAD2530B604FF00000AD
:10180000704700BF4FF48243C5F25353C0F8E43031
:10181000704700BF10B5044641F60503C0F200034F
:1018200098474FF0000060606062A062204641F27D
:101830006171C0F200018847204641F27172C0F226
:1018400000029047204641F27973C0F200039847A6
:10185000204641F28971C0F200018847204641F2DA
:101860008172C0F20002904710BD00BF70B50546FE
:101870000C46164641F61503C0F20003984740F6A1
:10188000D810C2F200004FF000010160CCB1284630
:101890002168324641F2E163C0F20003984798B9EB
:1018A000A268616842EA010322691343E1680B43BD
:1018B00040F6D812C2F20002136069680B436B60F5
:1018C00070BD4FF0010070BD4FF0010070BD00BF52
:1018D000F0B583B004460D464FF0000301934FF47A
:1018E0008040C4F2020084420FD14FF48046C4F21B
:1018F000020641F2C977C0F20007304601A9B84795
:101900000028FAD1019929702BE04FF40041C4F26C
:1019100002018C420FD14FF40044C4F2020441F2A0
:10192000C976C0F20006204601A9B0470028FAD1C6
:10193000019828702AE04FF44042C4F20202944217
:101940000FD14FF44044C4F2020441F2C976C0F210
:101950000006204601A9B0470028FAD1019B2B7050
:1019600014E04FF00002C4F2030294420ED14FF093
:101970000004C4F2030441F2C976C0F20006204616
:1019800001A9B0470028FAD1019B2B7003B0F0BD2C
:1019900070B50C464FF48043C4F2020398420FD155
:1019A0004FF48045C4F2020541F29176C0F2000680
:1019B00028462146B0470028FAD14FF0010070BDFB
:1019C0004FF40041C4F2020188420FD14FF40045A8
:1019D000C4F2020541F29176C0F200062846214683
:1019E000B0470028FAD14FF0010070BD4FF44042DB
:1019F000C4F2020290420FD14FF44045C4F20205F6
:101A000041F29176C0F2000628462146B0470028F0
:101A1000FAD14FF0010070BD4FF00003C4F2030390
:101A200098420FD14FF00005C4F2030541F29176C0
:101A3000C0F2000628462146B0470028FAD14FF0F0
:101A4000010070BD4FF0000070BD00BF70B50546CD
:101A50004FF48044C4F20104204642F24113C0F224
:101A60000003984747F29131C5F69F51A1FB00163C
:101A70004FEA162620464FF00201324640F27D53CF
:101A8000C0F200039847C5F1640000FB06F648F277
:101A90001F52C5F2EB12A2FB061320464FF00201C3
:101AA0004FEA531240F27553C0F20003984747F2D1
:101AB000B450C0F200004FF4AF712A4643F64D33E4
:101AC000C0F20003984770BD70B505464FF48044DE
:101AD000C4F20104204642F24113C0F200039847C9
:101AE00047F29131C5F69F51A1FB00164FEA162629
:101AF00020464FF00001324640F27D53C0F2000311
:101B00009847C5F1640000FB06F648F21F52C5F283
:101B1000EB12A2FB061320464FF000014FEA5312CE
:101B200040F27553C0F20003984747F2B450C0F238
:101B300000004FF4AF712A4643F64D33C0F2000364
:101B4000984770BD2DE9F04F89B043F29523C0F25C
:101B50000003984743F27D30C0F2000080474FF405
:101B60000044C4F2020440F65821C2F200010C60A5
:101B700040F65425C2F2000541F69112C0F200026F
:101B80002A6040F65026C2F2000641F6D107C0F2A4
:101B9000000737604FF4E13301934FF0C00002902B
:101BA0004FF4006103914FF0000504950595204620
:101BB00042F23D48C0F20008C047204642F24112BE
:101BC000C0F2000290470246204601A941F66D0688
:101BD000C0F20006B047204641F25977C0F2000734
:101BE000B847204641F26974C0F20004A04740F2B1
:101BF0005006C2F2000633689868294643F65147FA
:101C0000C0F20007B847306840682946B8474FF42B
:101C1000A054C4F20E044FF01001A167C4F888105C
:101C2000C4F8C810C4F8081161616162A163A160C1
:101C30004FF48046C4F201063046C0474CF201071B
:101C4000C0F2090730464FF002013A4640F24D5AC1
:101C5000C0F2000AD04730464FF0020140F2695905
:101C6000C0F20009C8474FF40042A267C4F88820B8
:101C7000C4F8C820C4F80821A261A262A263A260CD
:101C80003046C047304629463A46D0473046294676
:101C9000C84747F2EC50C0F2000043F60143C0F2DF
:101CA000000398474FF0320041F64D26C0F200067F
:101CB000B0474FF0320041F6C924C0F20004A047FB
:101CC0002846B0472846A04740F21D75C0F20005DF
:101CD000A84748B947F2FC50C0F2000043F64D3720
:101CE000C0F20007B84708E047F21460C0F20000F5
:101CF00043F64D31C0F2000188474FF032063746B7
:101D000047F22865C0F2000543F61144C0F2000412
:101D100047F22C69C0F2000943F64D38C0F20008C2
:101D200028460DF11F01A0479DF81F10A1F1610089
:101D3000162800F2AF80DFE800F00FADAD30ADAD9A
:101D4000AD0CADADADADADADAD93ADAD72ADADADB9
:101D500051004846C047E3E707F10507F8B242B231
:101D6000132A05DD1346642BA8BF6423DFB201E00C
:101D70004FF0140778B241F64D2AC0F2000AD0475E
:101D800044F20E50C0F2030040F20101C2F2000121
:101D900088474FF00000D047C2E7A7F10507FFB220
:101DA0007AB2132A05DD1346642BA8BF6423DFB281
:101DB00001E04FF0140778B241F64D2BC0F2000B52
:101DC000D84744F20E50C0F2030040F20101C2F2C3
:101DD000000188474FF00000D847A1E706F105064B
:101DE000F2B253B2132B05DD1E46642EA8BF642643
:101DF000F6B201E04FF0140670B241F6C92BC0F202
:101E0000000BD84744F20E50C0F2030040F201012B
:101E1000C2F2000188474FF00000D84780E7A6F1E2
:101E20000506F0B242B2132A05DD1346642BA8BFA3
:101E30006423DEB201E04FF0140670B241F6C92A05
:101E4000C0F2000AD04744F20E50C0F2030040F244
:101E50000101C2F2000188474FF00000D0475FE760
:101E600047F26060C0F20000C04740F66510C0F263
:101E7000000080474FF0000B40F6F12AC0F2000A44
:101E80005846D0471928FBD047F27060C0F20000D6
:101E9000C04745E747F27860C0F20000C0473FE71F
:101EA000EFF3108172B6BFF35F8F40F24403C2F2CA
:101EB00000034FF000021A704FF40060C4F20E00ED
:101EC0004FF02003CAF60023836140F20732C0F2CC
:101ED0000102026249B940F24401C2F200014FF02E
:101EE00001000870BFF35F8F62B6704730B4EFF344
:101EF000108472B6BFF35F8F40F24403C2F2000356
:101F00004FF000021A704FF02003C4F20E0353F892
:101F100020204FF0010505FA01F1114300F10802FC
:101F20004FEA02654FEA955242F02A454FF000020F
:101F3000C4F20E02956543F820104CB940F24400FB
:101F4000C2F200004FF001030370BFF35F8F62B66F
:101F500030BC704730B4EFF3108472B6BFF35F8FBC
:101F600040F24403C2F200034FF000021A704FF037
:101F70002003C4F20E0353F820204FF0010505FAA8
:101F800001F122EA010100F108024FEA02654FEA7D
:101F9000955242F02A454FF00002C4F20E029565B8
:101FA00043F820104CB940F24400C2F200004FF058
:101FB00001030370BFF35F8F62B630BC704700BF90
:101FC00038B50446EFF3108572B6BFF35F8F40F269
:101FD0004403C2F200034FF000021A701046C4F22C
:101FE0000E00816A41B94FF001004FF0050141F642
:101FF000ED63C0F2000398474DB940F24400C2F2CD
:1020000000004FF001020270BFF35F8F62B64FF025
:102010000200214641F6ED63C0F20003984738BD47
:1020200010B501464FF0020041F65573C0F20003AF
:102030009847EFF3108472B6BFF35F8F40F244000D
:10204000C2F200004FF0000202701146C4F20E010D
:102050008B6A43B94FF001004FF0050141F655720C
:10206000C0F2000290474CB940F24400C2F20000B6
:102070004FF001010170BFF35F8F62B610BD00BF6A
:1020800038B50446EFF3108572B6BFF35F8F40F2A8
:102090004403C2F200034FF000021A701046C4F26B
:1020A0000E00C16A41B94FF001004FF0060141F640
:1020B000ED63C0F2000398474DB940F24400C2F20C
:1020C00000004FF001020270BFF35F8F62B64FF065
:1020D0000300214641F6ED63C0F20003984738BD86
:1020E00010B501464FF0030041F65573C0F20003EE
:1020F0009847EFF3108472B6BFF35F8F40F244004D
:10210000C2F200004FF0000202701146C4F20E014C
:10211000CB6A43B94FF001004FF0060141F655720A
:10212000C0F2000290474CB940F24400C2F20000F5
:102130004FF001010170BFF35F8F62B610BD00BFA9
:102140004FF40043C4F20703984200F06F814FF44C
:102150000041C4F20701884200F2BB804FF4004204
:10216000C4F20202904200F061814FF40043C4F2D5
:102170000203984251D84FF40041C4F20101884251
:1021800000F054814FF40042C4F20102904220D882
:102190004FF40043C4F20003984200F047814FF42B
:1021A0000041C4F20001884204D8B0F1402F40F051
:1021B00042813BE14FF00002C4F20102904200F084
:1021C00035814FF48043C4F20103984240F03381DB
:1021D0002CE14FF44041C4F20101884200F0268115
:1021E0004FF44042C4F20102904207D84FF4044336
:1021F000C4F20103984240F01E8117E14FF44441BC
:10220000C4F20101884200F011814FF48042C4F20F
:102210000202904240F00F8108E14FF00003C4F247
:102220000403984200F002814FF00001C4F204015F
:10223000884223D84FF00002C4F20302904200F01B
:10224000F5804FF00003C4F20303984207D84FF41F
:102250004041C4F20201884240F0ED80E6E04FF4D4
:102260000042C4F20302904200F0E0804FF4404389
:10227000C4F20303984240F0DE80D7E04FF40041FF
:10228000C4F20601884200F0D1804FF40042C4F24B
:10229000060290420ED84FF00003C4F206039842A3
:1022A00000F0C4804FF48041C4F20601884240F03F
:1022B000C280BBE04FF44042C4F20602904200F0FC
:1022C000B5804FF00003C4F20703984240F0B3809A
:1022D000ACE04FF00001C4F20E01884200F0A6808D
:1022E0004FF00002C4F20E0290424ED84FF48053D9
:1022F000C4F20A03984200F099804FF48051C4F26E
:102300000A01884221D84FF00002C4F2080290422C
:1023100000F08C804FF00003C4F20803984207D805
:102320004FF44041C4F20701884240F084807DE0D0
:102330004FF00002C4F20A02904277D04FF480635B
:10234000C4F20A03984276D170E04FF48041C4F29F
:102350000A0188426AD04FF48042C4F20A029042D5
:1023600006D84FF40053C4F20A03984263D15DE0EB
:102370004FF4A041C4F20A01884257D04FF4C04242
:10238000C4F20A02904256D150E04FF00003C4F26A
:102390000F0398424AD04FF00001C4F20F01884267
:1023A0001FD84FF40062C4F20E0290423ED04FF4A8
:1023B0000063C4F20E03984206D84FF48061C4F261
:1023C0000E01884237D131E04FF44062C4F20E0270
:1023D00090422BD04FF48053C4F20E0398422AD17E
:1023E00024E04FF44061C4F20F0188421ED04FF444
:1023F0004062C4F20F0290420CD84FF48063C4F2E2
:102400000F03984212D04FF40061C4F20F018842CA
:1024100011D10BE04FF48052C4F20F02904205D06C
:102420004FF4A053C4F20F03984204D148F68050F1
:10243000C0F25B0070474FF00000704708B54FF4E2
:102440000043C4F20703984200F07F824FF400413A
:10245000C4F20701884200F2BB804FF40042C4F28C
:102460000202904200F0F2814FF40043C4F20203F2
:10247000984251D84FF40041C4F20101884200F063
:10248000B0814FF40042C4F20102904220D84FF4D0
:102490000043C4F20003984200F071814FF4004100
:1024A000C4F20001884204D8B0F1402F40F03483D8
:1024B0005DE14FF00003C4F20103984200F0678130
:1024C0004FF48041C4F20101884240F0258373E15A
:1024D0004FF44043C4F20103984200F092814FF45C
:1024E0004042C4F20102904207D84FF40441C4F2C2
:1024F0000101884240F010837BE14FF44442C4F272
:102500000102904200F085814FF48041C4F2020143
:10251000884240F0018384E14FF00002C4F20402DB
:10252000904200F0E2814FF00001C4F204018842C1
:1025300023D84FF00003C4F20303984200F0B081A7
:102540004FF00002C4F20302904207D84FF440411A
:10255000C4F20201884240F0DF828CE14FF4004275
:10256000C4F20302904200F0B0814FF44041C4F243
:102570000301884240F0D082AFE14FF40043C4F23F
:102580000603984200F0C9814FF40041C4F20601ED
:1025900088420ED84FF00002C4F20602904200F0CA
:1025A000AC814FF48043C4F20603984240F0B482F9
:1025B000ABE14FF44043C4F20603984200F0B5810A
:1025C0004FF00001C4F20701884240F0A582B4E157
:1025D0004FF00001C4F20E01884200F032824FF049
:1025E0000003C4F20E0398425BD84FF48052C4F249
:1025F0000A02904200F0E2814FF48051C4F20A01D5
:10260000884223D84FF00003C4F20803984200F038
:10261000AC814FF00002C4F20802904207D84FF498
:102620004041C4F20701884240F0768295E14FF0C4
:102630000002C4F20A02904200F09F814FF48061D0
:10264000C4F20A01884240F06782A6E14FF4A04339
:10265000C4F20A03984200F0DB814FF4A041C4F2B7
:102660000A0188420ED84FF40052C4F20A02904286
:1026700000F0AC814FF48043C4F20A03984240F06A
:102680004B82B4E14FF4C041C4F20A01884200F029
:10269000D0814FF00003C4F20B03984240F03C821B
:1026A0005BE04FF00003C4F20F03984200F0FA81A0
:1026B0004FF00002C4F20F02904223D84FF40061A1
:1026C000C4F20E01884200F0D0814FF40063C4F2DE
:1026D0000E03984207D84FF48062C4F20E02904273
:1026E00040F01A82B7E14FF44061C4F20E01884213
:1026F00000F0C5814FF48052C4F20E02904240F0C7
:102700000B82C6E14FF44061C4F20F01884200F031
:10271000E7814FF44062C4F20F0290420ED84FF4AA
:102720008063C4F20F03984200F0C6814FF4006149
:10273000C4F20F01884240F0EF81C7E14FF48051AD
:10274000C4F20F01884200F0D5814FF4A052C4F2C8
:102750000F02904240F0E081D6E14FF001004FF0CF
:10276000090141F6ED62C0F20002904708BD4FF04A
:10277000000041F6C172C0F20002904708BD4FF060
:10278000010041F6C171C0F20001884708BD4FF059
:10279000020041F6C173C0F2000398474FF00000F9
:1027A000C4F20E00016C41F055034FF04002CAF62E
:1027B00000228265036408BD4FF0030041F6C17238
:1027C000C0F2000290474FF00000C4F20E00036C0C
:1027D00043F055014FF04002CAF6002282650164C1
:1027E00008BD4FF0040041F6C173C0F200039847E2
:1027F00008BD4FF0050041F6C173C0F200039847D1
:1028000008BD4FF0060041F6C171C0F200018847D3
:1028100008BD4FF0070041F6C172C0F200029047B8
:1028200008BD4FF0080041F6C173C0F2000398479D
:102830004FF00000C4F20E00026C42F004014FF0B1
:102840004003CAF600238365016408BD4FF0090008
:1028500041F6C173C0F2000398474FF00000C4F284
:102860000E00016C41F004034FF04002CAF6002252
:102870008265036408BD4FF00A0041F6C173C0F2DF
:10288000000398474FF00000C4F20E00026C42F0C3
:1028900004014FF04003CAF600238365016408BDBC
:1028A0004FF00B0041F6C171C0F2000188474FF0B4
:1028B0000000C4F20E00036C43F004014FF040022C
:1028C000CAF600228265016408BD4FF00C0041F693
:1028D000C172C0F20002904708BD4FF00D0041F6F2
:1028E000C173C0F20003984708BD4FF00E0041F6D7
:1028F000C172C0F20002904708BD4FF00F0041F6D0
:10290000C172C0F20002904708BD4FF0100041F6BE
:10291000C171C0F20001884708BD4FF0110041F6B7
:10292000C171C0F20001884708BD4FF0120041F6A6
:10293000C173C0F20003984708BD4FF0130041F681
:10294000C172C0F20002904708BD4FF0150041F679
:10295000C171C0F20001884708BD4FF0160041F672
:10296000C173C0F20003984708BD4FF0170041F64D
:10297000C172C0F20002904708BD4FF0010001464D
:1029800041F6ED63C0F2000398474FF0000042F2B9
:102990008101C0F20001884708BD4FF001004FF0EF
:1029A000020141F6ED63C0F2000398474FF00100C9
:1029B00042F28102C0F20002904708BD4FF00200CF
:1029C00042F28101C0F20001884708BD4FF00100CA
:1029D0004FF0000141F6ED63C0F2000398474FF05D
:1029E000030042F28102C0F20002904708BD4FF09E
:1029F00001004FF0040141F6ED62C0F20002904781
:102A00004FF0040042F28101C0F20001884708BD86
:102A10004FF001004FF0030141F6ED63C0F20003F7
:102A200098474FF0050042F28102C0F20002904741
:102A300008BD4FF0060042F28101C0F20001884754
:102A400008BD4FF004004FF0000141F6ED63C0F205
:102A50000003984708BD4FF004004FF0010141F614
:102A6000ED63C0F20003984708BD4FF004004FF03B
:102A7000020141F6ED63C0F20003984708BD4FF034
:102A800004004FF0030141F6ED62C0F200029047EE
:102A900008BD4FF00400014641F6ED63C0F20003AB
:102AA000984708BD4FF005004FF0000141F6ED6278
:102AB000C0F20002904708BD4FF005004FF0010141
:102AC00041F6ED63C0F20003984708BD4FF00500E2
:102AD0004FF0020141F6ED62C0F20002904708BDDE
:102AE0004FF005004FF0030141F6ED63C0F2000323
:102AF000984708BD4FF005004FF0040141F6ED6224
:102B0000C0F20002904708BD4FF00500014641F6B3
:102B1000ED63C0F20003984708BD00BF08B54FF44D
:102B20000043C4F20703984200F031824FF40041A1
:102B3000C4F20701884200F2BB804FF40042C4F2A5
:102B40000202904200F0CB814FF40043C4F2020332
:102B5000984251D84FF40041C4F20101884200F07C
:102B600096814FF40042C4F20102904220D84FF403
:102B70000043C4F20003984200F071814FF4004119
:102B8000C4F20001884204D8B0F1402F40F0F38233
:102B90005DE14FF00003C4F20103984200F0678149
:102BA0004FF48041C4F20101884240F0E48266E1C2
:102BB0004FF44042C4F20102904200F078814FF499
:102BC0004043C4F20103984207D84FF40441C4F2D1
:102BD0000101884240F0CF8261E14FF44443C4F2E6
:102BE0000103984200F06B814FF48041C4F202016E
:102BF000884240F0C0826AE14FF00003C4F204034F
:102C0000984200F094814FF00001C4F20401884220
:102C100023D84FF00002C4F20302904200F06F810B
:102C20004FF00003C4F20303984207D84FF4404129
:102C3000C4F20201884240F09E8258E14FF4004302
:102C4000C4F20303984200F062814FF44041C4F2A1
:102C50000301884240F08F8261E14FF40042C4F2E8
:102C60000602904200F07B814FF40043C4F2060359
:102C700098420ED84FF00001C4F20601884200F0DD
:102C80005E814FF48042C4F20602904240F07382AB
:102C90005DE14FF44042C4F20602904200F06781C9
:102CA0004FF00003C4F20703984240F0648266E1EB
:102CB0004FF00003C4F20E03984200F0DC814FF0A5
:102CC0000001C4F20E0188425BD84FF48052C4F276
:102CD0000A02904200F08C814FF48053C4F20A0340
:102CE000984223D84FF00001C4F20801884200F056
:102CF0005E814FF00002C4F20802904207D84FF400
:102D00004043C4F20703984240F0358247E14FF058
:102D10000002C4F20A02904200F051814FF4806335
:102D2000C4F20A03984240F0268250E14FF4A041D9
:102D3000C4F20A01884200F085814FF4A043C4F236
:102D40000A0398420ED84FF40052C4F20A0290428D
:102D500000F056814FF48041C4F20A01884240F0ED
:102D60000A825EE14FF4C042C4F20A02904200F0CF
:102D70007A814FF00003C4F20B03984240F0FB81CC
:102D80005BE04FF00003C4F20F03984200F0A4810F
:102D90004FF00002C4F20F02904223D84FF40061BA
:102DA000C4F20E01884200F07A814FF40063C4F24D
:102DB0000E03984207D84FF48062C4F20E0290428C
:102DC00040F0D98161E14FF44061C4F20E018842C4
:102DD00000F06F814FF48052C4F20E02904240F036
:102DE000CA8170E14FF44061C4F20F01884200F0E3
:102DF00091814FF44062C4F20F0290420ED84FF41A
:102E00008063C4F20F03984200F070814FF40061B8
:102E1000C4F20F01884240F0AE8171E14FF480515D
:102E2000C4F20F01884200F07F814FF4A052C4F237
:102E30000F02904240F09F8180E14FF001004FF07F
:102E4000090141F65572C0F2000290477EE14FF051
:102E5000000042F22102C0F20002904776E14FF0FA
:102E6000010042F22101C0F2000188476EE14FF0FB
:102E7000020042F22103C0F20003984766E14FF0DE
:102E8000030042F22102C0F2000290475EE14FF0DF
:102E9000040042F22102C0F20002904756E14FF0D6
:102EA000050042F22102C0F2000290474EE14FF0CD
:102EB000060042F22101C0F20001884746E14FF0CE
:102EC000070042F22103C0F2000398473EE14FF0B1
:102ED000080042F22102C0F20002904736E14FF0B2
:102EE000090042F22102C0F2000290472EE14FF0A9
:102EF0000A0042F22102C0F20002904726E14FF0A0
:102F00000B0042F22101C0F2000188471EE14FF0A0
:102F10000C0042F22103C0F20003984716E14FF083
:102F20000D0042F22102C0F2000290470EE14FF084
:102F30000E0042F22101C0F20001884706E14FF085
:102F40000F0042F22101C0F200018847FEE04FF07D
:102F5000100042F22103C0F200039847F6E04FF060
:102F6000110042F22103C0F200039847EEE04FF057
:102F7000120042F22102C0F200029047E6E04FF058
:102F8000130042F22101C0F200018847DEE04FF059
:102F9000150042F22101C0F200018847D6E04FF04F
:102FA000160042F22101C0F200018847CEE04FF046
:102FB000170042F22102C0F200029047C6E04FF033
:102FC000000042F2E103C0F200039847BEE04FF078
:102FD00001004FF0020141F65572C0F20002904725
:102FE0004FF0010042F2E101C0F200018847ADE07C
:102FF0004FF0020042F2E101C0F200018847A5E073
:103000004FF001004FF0000141F65573C0F200038C
:1030100098474FF0030042F2E101C0F200018847F7
:1030200094E04FF001004FF0040141F65573C0F2F7
:10303000000398474FF0040042F2E102C0F20002A0
:10304000904783E04FF001004FF0030141F65573C4
:10305000C0F2000398474FF0050042F2E102C0F2CF
:103060000002904772E04FF0060042F2E101C0F228
:10307000000188476AE04FF004004FF0000141F67C
:103080005573C0F20003984760E04FF004004FF022
:10309000010141F65573C0F20003984756E04FF026
:1030A00004004FF0020141F65573C0F20003984747
:1030B0004CE04FF004004FF0030141F65572C0F2AE
:1030C0000002904742E04FF00400014641F655737C
:1030D000C0F20003984739E04FF005004FF00001BF
:1030E00041F65572C0F2000290472FE04FF0050004
:1030F0004FF0010141F65573C0F20003984725E0F7
:103100004FF005004FF0020141F65572C0F2000287
:1031100090471BE04FF005004FF0030141F6557357
:10312000C0F20003984711E04FF005004FF0040192
:1031300041F65572C0F20002904707E04FF00500DB
:10314000014641F65573C0F2000398474FF0000066
:10315000C4F20E00826A12F00B0F0CD14FF0000384
:10316000C4F20E03196C21F07F004FF04002CAF642
:1031700000229A65186408BDF0B4049C30B100F1D7
:10318000FF3606F0070747F0800001E04FF000002F
:1031900031B101F1FF3505F0070646F0800101E08D
:1031A0004FF0000132B102F1FF3707F0070545F09B
:1031B000800201E04FF0000233B103F1FF3606F068
:1031C000070747F0800301E04FF0000334B104F13A
:1031D000FF3404F0070545F0800701E04FF00007D9
:1031E000EFF3108672B6BFF35F8F40F24404C2F271
:1031F00000044FF0000525702C46C4F20E044FF079
:103200000405CAF60025A56560604FF00C00CAF6FB
:103210000020A065E1604FF01001CAF60021A16511
:1032200022614FF01402CAF60022A26563614FF0DA
:103230001803CAF60023A365A7614EB940F2440003
:10324000C2F200004FF001010170BFF35F8F62B660
:10325000F0BC7047EFF3108272B6BFF35F8F40F29D
:103260004403C2F200034FF0000119700B46C4F290
:103270000E034FF02A41996518604AB940F24400A4
:10328000C2F200004FF001020270BFF35F8F62B61E
:10329000704700BF30B583B04FF48064C4F20A04B5
:1032A000204642F23D43C0F2000398474FF0010030
:1032B000A0604FF48062C4F20A02D16811F0010FDD
:1032C000FBD04FF001030093184619461A4643F20B
:1032D0007915C0F20005A84741F6A164C0F20004C8
:1032E000A0474FF40060C4F20E00436913F0010FD1
:1032F000FBD048F68050C0F25B004FF001014FF068
:10330000000243F28565C0F20005A8474FF00100B6
:1033100043F25522C0F2000290474FF00000C4F281
:103320000F004FF001014AF68012C0F2030243F28F
:103330005D44C0F20004A0474FF00004C4F20F0443
:1033400043F2D545C0F200052046A84710F0010F12
:10335000FAD0EFF3108072B6BFF35F8F40F24402F1
:10336000C2F200024FF00001117028B94FF00100C5
:103370001070BFF35F8F62B603B030BD10B586B07A
:10338000684643F2B173C0F20003984704A84FF4B3
:103390004061C4F20F016A4643F2CD74C0F20004EA
:1033A000A04704A843F69901C0F2000188474FF4F2
:1033B0008054C4F20E04204642F23D42C0F20002A4
:1033C00090474FF4A050C4F20E004FF080034364C6
:1033D000C0F8683143654FF080728264C0F86421A0
:1033E0004267C0F88820C0F8C820C0F80821826170
:1033F000826282634FF080618167C0F88810C0F8F4
:10340000C810C0F8081181618162816381604FF04A
:1034100000638367C0F88830C0F8C830C0F808314E
:1034200083618362836383604FF40000A067C4F804
:103430008800C4F8C800C4F808016061A062A063F5
:10344000A060A267C4F88820C4F8C820C4F8082186
:103450006261A262A263A26006B010BD2DE9F843CA
:10346000C46924F0030545F00C03EFF3108672B62F
:10347000BFF35F8F4FF0000540F24407C2F2000730
:103480003D704EF21004CEF20004D4F80880276894
:10349000D4F8049062604FF00502226001F003014D
:1034A000194340F20D03C2F2000398472560C4F8A7
:1034B0000490C4F8088027604EB940F24401C2F27B
:1034C00000014FF001020A70BFF35F8F62B6BDE8E2
:1034D000F88300BF4069704710B4C36923F44C54AB
:1034E0004FF00003C4F20F034FF01C02CAF6002293
:1034F0009A61012909D1C4614FF46D43CEF20003F2
:10350000186920F00401196150E002290BD144F43C
:103510008054C4614FF46D40CEF20000016921F087
:103520000402026142E003290BD144F40054C46157
:103530004FF46D41CEF200010A6922F004030B61E1
:1035400034E004290BD144F44054C4614FF46D417C
:10355000CEF200010B6923F00400086126E0052982
:1035600009D1C4614FF46D43CEF20003186940F0F5
:1035700004021A611AE006290BD144F40074C461F4
:103580004FF46D40CEF20000026942F00401016187
:103590000CE007291ED144F48074C4614FF46D40DF
:1035A000CEF20000016941F0040303614FF4806230
:1035B000C4F20F02536913F4806FFBD030BF00BF19
:1035C00040F24400C2F200004FF001010170BFF36D
:1035D0005F8F62B610BC70474FF00003C4F20A035D
:1035E000196821F04002002814BF40200020104339
:1035F0004FF00003C4F20A03186070474FF0000355
:10360000C4F20A03986800F00100704710B543F255
:10361000FD54C0F20004A0470028FCD010BD00BF3C
:1036200038B505460C4640F24803C2F2000318685C
:1036300080474FF00001C4F20A014A68002C07DB02
:1036400045F025454FEA042424F07F44254304E057
:1036500022F03F0343F0254005434FF00001C4F240
:103660000A014D608A6802F00C0040F6DC13C2F2D9
:103670000003186040F24801C2F200010A68904756
:1036800038BD00BF08B5002956D14AF68003C0F204
:103690001213984227D94FF4A243C0F2252398422F
:1036A00010D84FF0010043F2D953C0F200039847FD
:1036B0004FF011004FF0FF3143F22162C0F20002DF
:1036C000904708BD4FF0010043F2D951C0F200010C
:1036D00088474FF010004FF0FF3143F22162C0F2F3
:1036E0000002904708BDB2B14FF4D851C0F2B70103
:1036F000884210D84FF0010043F2D951C0F20001C6
:1037000088474FF011004FF0FF3143F22162C0F2C1
:103710000002904708BD4FF0000043F2D952C0F2BA
:10372000000290474FF011004FF0FF3143F2216348
:10373000C0F20003984708BD4AF68003C0F2121396
:1037400098428CBF0120002043F2D951C0F2000101
:1037500088474FF011004FF0FF3143F22162C0F271
:103760000002904708BD00BF82B04FF44063C4F22E
:103770000F03196811F4003F0CBF692140F26F116B
:103780000191019A4FEAD2030193019901F1FF32AD
:1037900001920029F9D140F0AA414FF44063C4F2EC
:1037A0000F03196040F02A40186002B0704700BF54
:1037B0004FF00003036043604FF010020272437247
:1037C0004FF001018172C1720373704738B50C4626
:1037D000154601604260084642F23D43C0F20003D4
:1037E0009847206810F0080F52D1216811F0010F9E
:1037F0000BD0226822F0010043F26973C0F200038B
:103800009847206810F0010FFBD1216811F4803F28
:103810000BD0226822F4803043F26973C0F20003B7
:103820009847206810F4803FFBD169682A6841EA14
:103830000203287A4FEA002101F4F85243EA020019
:103840006B7A4FEA834101F4F8021043AB7A002B04
:1038500014BF802100210843ED7A002D14BF0222FD
:103860000022104343F26975C0F20005A8472068A2
:1038700040F48030A847236813F4803FFBD02046F3
:1038800042F61D31C0F2000188474FF0010038BDFB
:103890004FF0000038BD00BF10B50468206820F06C
:1038A000010043F26973C0F200039847216811F0E8
:1038B000010FFBD1204642F61D32C0F200029047B4
:1038C00010BD00BFFEE700BF38B540F20003C2F2F2
:1038D000000347F63402C0F200029A4203D039488E
:1038E0003949814204D3394B394A9A4225D342E0BF
:1038F000384D394C631B23F003054FF0000340F2B1
:103900000002C2F2000247F63401C0F2000105F1E4
:103910000400C5F380045D589D5003F10403834205
:1039200046D1E0E75D589D5003F104035C589C507C
:1039300003F104038342F5D1D5E7284D2849481BFC
:1039400020F0030440F61813C2F20003E2184FF00F
:103950000001501BA0F10400C0F3800445F8041FCF
:1039600095421ED107E005F10403696005F10805E1
:1039700059609542F7D140F20005C0F2000525F0EC
:103980007F024FF46D41CEF200018A6043F60130B0
:10399000C0F20000804741F64534C0F20004A04761
:1039A000FEE7002CDFD045F8041F9542DBD1E2E7AB
:1039B000002CB7D05C589C5003F104038342B1D172
:1039C00091E700BF1809002000000020B00A002085
:1039D00018090020040000201B0900201409002001
:1039E000AB0A002040F6E013C2F20003196841B9A7
:1039F00040F6E013C2F2000341F6B022C2F2000228
:103A00001A6040F6E011C2F200010B681818086055
:103A1000184670474FF0FF30704700BF4FF4005317
:103A20004B604FF0000070474FF00100704700BF3F
:103A30004FF00000704700BF2DE9F8439846234B34
:103A40001C680646D4F848010F46914618B904F59B
:103A5000A670C4F8480141681F2916DD1C4818B932
:103A60004FF0FF30BDE8F8834FF4C87002F01EF845
:103A70000028F5D0D4F84821002545600260C4F83C
:103A80004801C0F88851C0F88C51B6B14468D0F8EC
:103A90008811012200EB840302FA04F21143022E82
:103AA000C3F88890C0F888111C46C3F8088104D177
:103AB000D0F88C311A43C0F88C2141688B1C4A1C09
:103AC00040F8237042600020BDE8F8839076000043
:103AD000AD5A000070B5084B084CE01A841003EB97
:103AE00084060025043D1CB172599047013CF9E75A
:103AF000BDE8704003F092BE287800002C780000EA
:103B000038B50E4D0E4BE81A85100024AC4205D096
:103B10000B4951F8242090470134F7E703F074FE75
:103B20000849094A541AA5100024AC4205D0054B97
:103B300053F8240080470134F7E738BD14780000BB
:103B400014780000147800001C7800000FB407B54A
:103B5000064904AB086853F8042B8168019300F010
:103B600031F9BDE80E4004B0704700BF500000209E
:103B70000EB403B503AB816853F8042B019300F036
:103B800021F9BDE80C4003B0704700BF821803461E
:103B9000934202D003F8011BFAE7704730B505469F
:103BA00089B008460C4600F0D1F80121431807916E
:103BB000114903930B68114A059004A80190986875
:103BC0000692022202928289049402F400510BB2FE
:103BD00033B9416E42F4005221F4005382814366AE
:103BE0002846A96801AA01F005FD00280CBF0A209B
:103BF0004FF0FF3009B030BD500000209676000035
:103C0000024B01461868FFF7C9BF00BF50000020F3
:103C10000FB407B5064904AB086853F8042B416894
:103C2000019300F027FDBDE80E4004B0704700BFCF
:103C3000500000200EB403B503AB416853F8042BC9
:103C4000019300F017FDBDE80C4003B0704700BFC2
:103C500000290CBF022200224FF4806300F000B85C
:103C60002DE9F0411D46374B044618680E461746AD
:103C7000984618B1826B0AB901F06AFA022F5DD832
:103C8000002D5BDB2146D8F8000001F06DF9A18919
:103C900001F0800300201AB26060A06122B12948BF
:103CA0002169006801F0F0FBA189022F21F0830354
:103CB000A38112D036BB002D08BF4FF48065284683
:103CC00001F0F4FE0646C8B94FF4806001F0EEFE44
:103CD000064688B94FF0FF3000E00020A18941F08E
:103CE0000203A38104F1430100220123A2602160A9
:103CF00021616361BDE8F0814FF48065A28942F0E3
:103D00008000A081012F05D1A1896A4241F0010301
:103D1000A381A2610B48A28901680B4B02F0080045
:103D200000B2CB6326602661656148B112F0030FD3
:103D300018BF0025A5600020BDE8F0814FF0FF30DE
:103D4000BDE8F08150000020C5500000034613F884
:103D5000012B002AFBD1181A0138704793682DE90E
:103D6000F04781460F4614461BB953601846BDE81C
:103D7000F0874B6E9B041ED51568A0680835C8B146
:103D800055F8041C55F808AC4FEA91080026464542
:103D900009DA48465AF826103A4601F055FA431C0B
:103DA0000BD00136F3E7A2684FEA8808C8EB02039C
:103DB000A360E2E701E001F01DFC0021A160616069
:103DC000BDE8F0872DE9F04F8946A9B014461D469D
:103DD0001E46824618B1836B0BB901F0B9F9B9F8E8
:103DE0000C0000F4005211B249B940F40053D9F864
:103DF0006400A9F80C3020F40052C9F86420B9F826
:103E00000C1001F0080318B248B1D9F8102032B1F3
:103E1000B9F80C1001F01A030A2B16D109E050462C
:103E2000494601F035F80028F2D04FF0FF320392F6
:103E3000D5E3B9F90E00002807DB50464946224673
:103E40002B4600F0D0FB0390C9E3002218AD0B9580
:103E50000D920C92019405920392A84601990C468A
:103E600011F8013B0BB1252BF9D1019AA51A19D0F4
:103E70000C990D984B1C88E82400072B00EB0502D9
:103E80000D9208F108080C9309DD504649460BAA2B
:103E9000FFF764FF002840F09A830DF16008039853
:103EA000421903922178002900F08A83002201340C
:103EB00001948DF827204FF0FF3C0492174601989B
:103EC00010F8013B0190632B00F0B38033DC392BF9
:103ED0001ADC312B80F291802B2B01D11A46EEE7B0
:103EE0000ADC232B55D02A2B56D0202B40F0F7810B
:103EF000002A08BF2022E2E72E2B58D0302B79D0A1
:103F00002D2B40F0EC814FE04F2B00F0DE8007DCE2
:103F1000442B40F0E4818DF8272047F0100790E013
:103F2000552B00F01F81582B40F0D981AF4D8DF8F3
:103F30002720059531E16F2B00F0C98010DC692B3B
:103F400024D007DC642B21D0682B40F0C88147F0D7
:103F50004007B4E76C2B5FD06E2B40F0C08196E039
:103F6000732B00F0DF8006DC702B00F0CD80712B0E
:103F700040F0B5815AE0752B00F0F680782B40F0C8
:103F8000AE819B4D8DF82720059506E18DF8272001
:103F900057E047F0010792E7331D3668002E04967C
:103FA00015DA704204901E4647F0040787E701992E
:103FB00011F8013B2A2B01910BD1D6F800C0331D1B
:103FC000BCF1000F03DA1E464FF0FF3C77E71E46B8
:103FD00075E74FF0000CA3F13000092807D80199CC
:103FE0000A2303FB0C0C11F8013B0191F3E74CEAA7
:103FF000EC7C68E747F0800761E701980021303BDF
:104000000A2404FB013110F8013BA3F13004092C10
:104010000190F4D9049156E701990B786C2B02D1E9
:10402000481C019002E047F0100748E747F02007DE
:1040300045E7326800258DF838208DF82750043682
:1040400057E1BA0607D5073626F0070505F1080639
:10405000D5E900450FE017F0100F06F1040101D07B
:10406000326805E017F0400F326801D014B200E06A
:104070001446E5170E46002C75F1000280F2BA8056
:104080002D23644265EB45058DF82730B2E017F02B
:10409000200F8DF8272006F1040205D0039C356817
:1040A000E0172C60686004E0FB0604D533680399D0
:1040B00019601646D2E63068039C17F0400F06F1EF
:1040C000040614BF04800460C8E647F0100717F028
:1040D000200008D0F31D23F0070505F10806D5E9F7
:1040E000004500207DE017F0100106F1040206D122
:1040F00017F0400003D0348800251646F1E73668F3
:104100000025344616466CE0394B3468059330215F
:104110007822002547F002078DF828108DF8292015
:1041200004365DE031460025D1F800B08DF8275007
:104130000436AC45584611DB62462946CDF800C02E
:1041400001F026FFDDF800C0002800F0D680CBEBA0
:104150000004644540F3D3806446D0E0FFF7F6FDE9
:104160000446CCE047F01007BD0607D5F01D20F04F
:10417000070404F10806D4E900450CE017F0100F1D
:1041800006F1040303D17C0601D5348801E03568CB
:104190002C4600251E46012023E0B80607D5F41D55
:1041A00024F0070101F10806D1E900450CE017F001
:1041B000100F06F1040003D1790601D5348801E01F
:1041C0003668344600250646FA0709D554EA050242
:1041D00006D030228DF828208DF8293047F00207CC
:1041E000022000218DF8271005E000BFB8760000FE
:1041F000C97600000120BCF1000FA8BF27F080079E
:1042000054EA050102D1BCF1000F58D001281DD09D
:1042100002280DF15F0341D004F00702E40844EAEC
:104220004570E90804460D46303254EA05019B46C4
:104230001A7003F1FF33EFD1F8075D464AD5302AF3
:1042400048D030229B4605F8012C43E0002D08BFE2
:104250000A2C03D230348DF85F4036E00DF15F0355
:104260000293204629460A220023CDF800C002F01E
:10427000F1FD0298DDF808B0303200F80129294636
:1042800002900A222046002302F0E4FD04460D4677
:1042900054EA0501DDF800C0E3D11BE004F00F0093
:1042A000059924090A5C44EA0570290904460D466B
:1042B0009B4603F8012954EA0502EFD10AE038B918
:1042C000F90705D530208DF85F000DF15F0B01E097
:1042D0000DF1600B18ADCBEB050465460FE08DF8D2
:1042E0002720002B00F06C8100258DF838308DF8E8
:1042F000275001240DF1380B01E0644605469DF876
:104300002730AC42ACBF21462946029113B1029836
:10431000421C029217F00201069102D0029B981CE7
:10432000029017F0840207923AD10499029BCB1AAB
:10433000002B35DDA048102BC8F800001ADD0C99C1
:104340000D9A1020C8F80400481C103207280D925E
:1043500008F108080C900BDD504649460BAA009363
:10436000FFF7FCFC009B002840F031810DF1600854
:10437000103BDFE70D9AC8F80430D1180C9B0D9163
:10438000581C072808F108080C9009DD50464946DA
:104390000BAAFFF7E3FC002840F019810DF160083B
:1043A0009DF82720D2B10DF12701C8F800100C9913
:1043B0000D980123C8F804304B1C421C072B0D92AA
:1043C00008F108080C9309DD504649460BAAFFF78F
:1043D000C5FC002840F0FB800DF160080698C8B1CC
:1043E0000AAAC8F800200C9A0D9B0221C8F80410F4
:1043F000511C981C07290D9008F108080C9109DD43
:10440000504649460BAAFFF7A9FC002840F0DF8080
:104410000DF16008079B802B3AD10498029A831A09
:10442000002B35DD6549102BC8F800101ADD0C9AF9
:104430000D981021C8F80410511C103007290D9058
:1044400008F108080C910BDD504649460BAA009371
:10445000FFF784FC009B002840F0B9800DF1600854
:10446000103BDFE70C9A0D98C8F80430511CC318B4
:1044700007290D9308F108080C9109DD50464946BB
:104480000BAAFFF76BFC002840F0A1800DF160083B
:104490002D1B002D32DD4948102DC8F8000018DD15
:1044A0000C9A0D98531C10211030072BC8F80410DB
:1044B0000D9008F108080C9309DD504649460BAAF7
:1044C000FFF74CFC002840F082800DF16008103DA1
:1044D000E1E70C9A0D9BC8F80450511C5D1907299F
:1044E0000D9508F108080C9108DD504649460BAAC5
:1044F000FFF734FC00286AD10DF160080C9A0D9882
:10450000C8F80440511C04190729C8F800B00D94DC
:1045100008F108030C9107DD504649460BAAFFF746
:104520001DFC002853D118AB7A070BD4039B029AC9
:1045300004990D988A42ACBF9B185B18039300281E
:1045400035D02EE0049C0298241A002CEEDD1A4A85
:10455000102C1A6014DD0C980D9910225A60421C20
:1045600010310833072A0D910C9207DD5046494659
:104570000BAAFFF7F3FB002829D118AB103CE6E7A4
:104580000C995C600D9B481C1C1907280D940C901D
:10459000CCDD504649460BAAFFF7E0FB0028C5D00A
:1045A00015E0504649460BAAFFF7D8FB78B900251D
:1045B0000C950DF1600851E498760000A876000093
:1045C0000D9A22B1504649460BAAFFF7C7FBB9F82E
:1045D0000C1001F0400003B2002B7FF426AC0398CE
:1045E00029B0BDE8F08F70B50C468989ADF58D6DA9
:1045F00021F00205616EADF80C501991E589E16971
:10460000ADF80E500791656A1AA900910491002136
:10461000099506914FF48065694602950595064611
:10462000FFF7D0FB051E07DB3046694600F09CFC17
:10463000002818BF4FF0FF35BDF80C3003F04000E4
:1046400002B21AB1A18941F04003A38128461AB0F1
:104650000DF5806D70BD30B51346054A05460C4614
:10466000106829462246BDE83040FFF7ABBB00BFCB
:10467000500000202DE9F04F0C46D9B08046164678
:104680001D4600F0C9FDA38903F4005210B230B9F1
:10469000676E43F4005127F40053A18163660796C7
:1046A0000026059602960496079F17F8012B079798
:1046B0000992002A00F0AB839F4801688F1897F891
:1046C00001B00BF0080B5FFA8BF3DBB16768002FCA
:1046D00011DD9949236808681A7887187A7802F0FA
:1046E0000801C8B20028DFD0676801337A1E01369E
:1046F00062602360EAE74046214601F0F4FD0028AD
:10470000E7D0D1E7252A51D1079A9B469A46079FC1
:1047100017F8010B6428079700F0BE8027D84C28B3
:1047200069D011D839280BD8302867D225283DD038
:104730002A2854D0002840F0A28000F06EFD5CE3EF
:10474000442840F09C80A0E0582863D005D84F282A
:1047500040F095804BF0010B56E05B2860D0632859
:1047600040F08D804BF0400B4FF000099AE06F282D
:104770004AD00ED8692800F08B8005D868287ED1F1
:104780004BF0040B079AC2E76C282BD06E2876D129
:1047900054E0732841D004D8702870D14BF4087BC2
:1047A00048E0752834D0782869D133E06768002F55
:1047B0000EDD2368079F197817F8012C914240F00D
:1047C000268360680133471E6760236001366BE70C
:1047D0004046214601F087FD0028EAD009E34BF06E
:1047E000100BCFE753786C2B02D10232079202E014
:1047F0004BF0010BC6E74BF0020BC3E70A2202FBAA
:104800000A0AAAF1300ABDE74C480827059046E09D
:104810004A4F42E04BF4007B0CE04FF0020941E0CC
:1048200018A8079901F0E8FD4BF0400B07904FF0F6
:10483000010937E0414A1027059230E01BF0100FC4
:104840007FF432AF1BF0040F05F1040102D02D6894
:104850002E8004E01BF0010F03D02F683E600D4650
:1048600022E71BF0020F05F1040704D02A68F017B5
:104870001660506001E02D682E603D4614E70F1869
:104880007B7803F00301012906D14BF0010B03E013
:104890002B480027059002E0294F05970A27029729
:1048A0004FF003096368002B03DD1BF0400F22D19A
:1048B0000EE04046214601F016FD0028F5D098E2B2
:1048C00063685A1E0136002A62600DDD01302060E7
:1048D000194920680B6802789A18517801F008038A
:1048E000DAB2002AECD106E04046214601F0FBFC9A
:1048F0000028EDD07DE2B9F1020F00F0E680B9F1B9
:10490000030F00F0AA81B9F1010F00F08A80BAF11B
:10491000000F08BF4FF0010A1BF0010954D000211D
:1049200008220AA8FFF732F91BF010070AD1D5F8C0
:104930000090043508E000BF80040020B567000047
:10494000FD6400004FF000094FF0000B01F024F867
:10495000834500F04E822068636810F8011B0EAAA0
:10496000206002F80B100AA8591E0BF1010B6160C0
:104970000090494640465B4601F0AAFA421C00F00E
:10498000388218B927B9C9F8007001E0023007D0A1
:104990005E440AF1FF3A0FB909F104094FF0000B28
:1049A0006268002A0CDC4046214601F09CFC38B1CC
:1049B000BBF1000F40F01D82002F00F0FA8073E67B
:1049C000BAF1000FC2D1F7E71BF0100F1BD06768D8
:1049D000206857450FDAC219226040462146B94483
:1049E000C7EB0A0A01F07FFC0028F0D0B9F1000FF4
:1049F00040F0FD81FDE1CAEB070100EB0A03D14461
:104A000061602360F3E10094404629680122534627
:104A100005F1040900F08CFC002800F0EA818619F9
:104A200016E1BAF1000F08BF4FF0FF3A1BF0100F6C
:104A30001ED04FF00009236818A81A78815C91B144
:104A4000626809F10109501E0133CA4560602360A4
:104A500000F0CD810028EEDC4046214601F043FC09
:104A60000028E8D0C3E1B9F1000F40F0C081CEE1E9
:104A7000D5F8009005F1040B4D46236818A9187865
:104A80000A5CBAB16068411E616013F8012B05F839
:104A9000012B236009EB0A03AB420BD060680028AE
:104AA000EBDC4046214601F01EFC0028E5D04D45D8
:104AB00000F09F81B5EB090900F0A98100272F7054
:104AC000049D691C04915D4691E1BAF1000F08BF95
:104AD0004FF0FF3A1BF001096FD0002108220CA80B
:104AE000FFF754F81BF0100703D1D5F800900435F8
:104AF00001E00DF124094FF0000B22689049137872
:104B00000868C218537803F00801C8B200284BD1D6
:104B1000BAF1000F48D000F03FFF834500F06981F3
:104B20002368606813F8011B0EAA236002F80B10BB
:104B30000CAB411E0BF1010B6160009340465B46DC
:104B4000494601F0C5F9431C00F0538110B9C9F87A
:104B5000000001E002301AD0D9F8000000F0E8FEB1
:104B600060B1BBF1000F1FD00BF1FF3B0EA9404617
:104B700011F80B10224601F094FFF2E75E440AF1AF
:104B8000FF3A1FB909F10409BB4600E08346626899
:104B9000002AB2DC4046214601F0A5FB0028ACD03B
:104BA000BBF1000F40F02581002F7FF47DADC9F8E7
:104BB0000070049F781C049076E51BF0100F1ED047
:104BC0005F4A206813680778D9194F7807F0080200
:104BD000D3B2002B40F00B81616809F101094F1E2F
:104BE0000130CA456760206000F00181002FE7DCDA
:104BF0004046214601F077FB0028E1D0F7E0D5F8E8
:104C000000B005F104095D464D4920680F6803783E
:104C1000FA18537803F00801CFB2A7B96268531E9F
:104C2000636010F8011B05F8011B20600BEB0A0004
:104C3000A84208D06768002FE6DC4046214601F014
:104C400052FB0028E0D000222A70CBEB0505761934
:104C5000049B591C04914D4626E50AF1FF33262B8F
:104C600086BFAAF127034FF0270A002300274BF441
:104C7000586B06970DF1380921680A78392A09D846
:104C8000382A35D2302A14D02CD82B2A3DD02D2AC0
:104C900064D13AE0582A3ED004D8A2F14100052858
:104CA0005CD82CE0612A59D3662A28D9782A55D1B4
:104CB00031E01BF4006F39D0029F1FB908274BF475
:104CC000007B02971BF4806F02D02BF4B06B2DE0B9
:104CD0002BF4607B13B1013B0AF1010A069F0137F7
:104CE000069725E0029F174830F91700029009E067
:104CF000029F144830F917000290082801E0029F33
:104D00000A2F2BDD2BF4386B10E01BF0800F25D021
:104D10002BF0800B0AE00BF4C060B0F5007F1DD1D2
:104D20002BF4007C10274CF4A06B029709F8012BA0
:104D30006268501E0028606006DD013121600AE0D3
:104D400080040020DA76000040462146039301F0FB
:104D5000CAFA039B10B9BAF1010A8DD11BF4807F06
:104D60000ED00EAA914508D919F8011C40462246DA
:104D700001F097FE09F1FF3AD1460EA8814546D0D1
:104D80001BF010022ED1029B059F89F8002040469F
:104D90000EA9B8471BF0200F05F104031CD11BF02E
:104DA000040F02D02D68288018E01BF0010213D1F7
:104DB0001BF0020F10D0194B059F9F4240460EA9D1
:104DC000029B02D101F082FD01E001F02BFC2A6878
:104DD000043582E8030002E0296808601D46049853
:104DE000431C04930EAF069AC7EB090991444E4445
:104DF0005AE400F012FA049F1FB94FF0FF370497EE
:104E000007E0A18901F0400210B210B1F5E700F00F
:104E100004FA049859B0BDE8F08F00BFB5670000F0
:104E20002DE9F041884617461E46044618B1856BA9
:104E30000DB900F08DF9204641463A463346BDE8AB
:104E4000F041FFF717BC30B51346054A05460C463E
:104E5000106829462246BDE83040FFF70BBC00BF72
:104E6000500000202DE9F041084C804620680F4694
:104E7000164618B1856B0DB900F06AF920684146F5
:104E80003A463346BDE8F041FFF7F4BB500000203E
:104E900038B52C4B054618680C4618B1826B0AB918
:104EA00000F056F9A08900F008010BB20BBB00F02E
:104EB000100211B211B94FF0FF3038BD00F00400FC
:104EC00003B293B1216B41B104F14002914202D08F
:104ED000284600F0D9FA00212163A089216920F039
:104EE00024030022A38162602160A08940F00803AE
:104EF000A38122694AB9A18901F42070B0F5007F2D
:104F000003D02846214600F065FDA38913F0010275
:104F100005D0616900224842A260A06107E003F069
:104F2000020108B208B9636900E01346A36023696F
:104F300033B9A28902F0800108B20028BBD138BD84
:104F4000002038BD50000020024B13B1024800F091
:104F500005B8704700000000D53A00000146002067
:104F600002460346FEF768BD2DE9F0410C460546B2
:104F700018B1836B0BB900F0EBF8A28932B302F0E1
:104F8000080001B2002962D1616842F40060002982
:104F9000A08102DCE36B002B18DDA66AB6B102F437
:104FA0008052002012B22F6828600AB1226D10E0F2
:104FB00001232846E169B0470246013009D129683A
:104FC00039B11D2901D016294FD12F600020BDE82D
:104FD000F081A68906F004010BB22BB16068266B44
:104FE000121A0EB1E16B521AE169A66A0023284633
:104FF000B047411C05D12A681AB11D2A01D0162AD2
:105000001FD1A38923F400620021A28103F48053FD
:105010002269616019B2226021B1421C01D12A6863
:1050200002B92065216B2F600029CFD004F1400028
:10503000814202D0284600F027FA00202063BDE814
:10504000F081A38943F04001A181BDE8F081266988
:10505000002EBBD09207236808BF6269266018BF84
:105060000022C6EB0308A26012E0A38943F04000CF
:10507000A0814FF0FF30BDE8F081676AE169284602
:1050800032464346B8470028EFDD3618C0EB080823
:10509000B8F1000FF1DC99E7014620B90448054951
:1050A000006800F023BC044B1868FFF75DBF00BF29
:1050B00090760000694F00005000002000207047EB
:1050C00000207047014900F0F0BB00BFB96D00003F
:1050D000002310B50446036043608360818143660A
:1050E000C2810361436183611946082200F15C00BB
:1050F000FEF74CFD04480549054A064BE461206271
:105100006162A262E36210BD596400007F64000026
:10511000BB640000DF64000070B568254D430E4697
:1051200005F10C0100F0D2FC044640B100F10C0086
:10513000002184E84200A0602A46FEF727FD2046B1
:1051400070BD024B1868FFF7BDBF00BF907600002E
:1051500038B5836B0446EBB90F4AC0F8E03201253D
:10516000C263856304F53B7103201A46C4F8E40268
:10517000C4F8E81260680421FFF7AAFFA0680921BB
:105180002A46FFF7A5FFE06812210222BDE8384059
:10519000FFF79EBF38BD00BFC5500000F8B51D4BDE
:1051A0001E680746B06B10B93046FFF7D1FF06F511
:1051B0003876B4687168013904D4B4F90C5085B1FB
:1051C0006834F8E732680AB13668F2E738460421F5
:1051D000FFF7A2FF30600028F6D10C243C600446A3
:1051E00015E04FF6FF730120A081E381656625601D
:1051F000A560656025616561A56104F15C002946D3
:105200000822FEF7C3FC256365636564A564204638
:10521000F8BD00BF90760000704770477047704738
:10522000024B0349186800F040BB00BF500000204B
:10523000BD500000024B0349186800F036BB00BFA8
:1052400050000020C150000093892DE9F34114461D
:1052500003F40052804610B20E4630B9676E43F434
:10526000005147F40053A181636600F095FB0128CB
:1052700006D12EB1FF2E03D88DF8046007460FE04B
:105280003246404601A904F15C0301F0DBFC421CFC
:10529000074605D1A28942F04000A081384631E09E
:1052A0000025BD422AD0A1684A1E002AA26001AB97
:1052B0001ADAA06982420CDB21685A5D0A70236801
:1052C00019780A2903D001330022236013E04046F5
:1052D00001E0595D4046224601F05AFCB0F1FF3131
:1052E000484250EB010206E02068595D01702268D7
:1052F000531C236000E01AB90135D2E7304601E0C3
:105300004FF0FF30BDE8FC81F8B5084C0746206837
:105310000E4618B1856B0DB9FFF71AFF20683946A4
:105320003246BDE8F840FFF78FBF00BF50000020B5
:105330002DE9F84F1E46134673438246884693462E
:105340000A9C99463ED018B1816B09B9FFF700FF5E
:10535000FFF762FFA08900F4005215B235B9636E01
:1053600040F4005723F40051A7816166606800286B
:1053700001DA002262604D4667682168BD424046FE
:1053800014D93A4600F012FE2268D3192360504621
:105390002146B844ED1B00F0A6FF0028ECD0C5EB79
:1053A0000905FFF73AFFB5FBFBF60CE02A4600F0D3
:1053B000FDFD63682068591B451961602560FFF792
:1053C0002CFF00E01E463046BDE8F88F73B5009311
:1053D000054B06460D461446186831462A462346B4
:1053E000FFF7A6FF7CBD00BF50000020F8B5234D9D
:1053F0000E46044600F0FDFDAB685F6827F003072A
:1054000007F6EF70811B21F47F6222F00F06A6F5EC
:105410008056B6F5805F04DA204600F0EBFD0020F0
:10542000F8BD0021204600F0D7FFAB68D9198842AB
:10543000F2D17142204600F0CFFF013010D100219F
:10544000204600F0C9FFAB68C21A0F2AE4DD0C4900
:105450000968401A0B4942F0010208605A60DBE714
:10546000084BA8681A68BF1B47F001074760961BE6
:1054700020461E6000F0BEFD0120F8BD00050020A2
:1054800008090020E8090020F8B506460D46002965
:1054900000F0A68000F0ADFD55F804CC514FA5F109
:1054A00008032CF001029C18B96860688C4220F057
:1054B00003000CF001011CD1821839B955F8081C01
:1054C0005B1A52189868D968C1608860454842F0F4
:1054D000010159608360444B19688A4204D3434AEE
:1054E00030461168FFF782FF3046BDE8F84000F013
:1054F00081BD606059B955F8085C5B1B52199D6805
:105500000837BD4205D0DF68EF60BD6002E00021D2
:1055100000E0012125186D6815F0010F0FD1121858
:1055200049B9A068324DA84205D1EB60AB60D860A4
:105530009860012103E0E068A468E060846042F0C4
:10554000010058609A500029CED1B2F5007F0CD2EC
:105550002449D2089010012404FA00F4486820433A
:10556000486001EBC200816835E0540A042C02D87F
:105570009409383416E0142C01D85B3412E0542C12
:1055800002D8140B6E340DE0B4F5AA7F02D8D40B08
:10559000773407E040F25455AC4202D8940C7C3486
:1055A00000E07E240F4D05EBC400816881420CD1E0
:1055B00068680122A41002FA04F444EA00026A6056
:1055C000084608E08968814204D04C6824F003044E
:1055D000A242F7D3C868D86099608360CB6083E744
:1055E000F8BD00BF000500200C090020E4090020E0
:1055F0000805002093682DE9F74F06460C469146B2
:105600000BB900204FE1888900F008010AB20AB105
:1056100023695BB930462146FFF73AFC30B1A189D6
:10562000092241F04000A08132603AE1B4F80CA0B8
:10563000D9F800800AF0020C0FFA8CF515B34FF080
:10564000000A574637B9D8F800A0D8F8047008F116
:105650000808F7E7B7F5806F34BF3B464FF4806327
:105660003046E169656A5246A847002840F3158133
:10567000D9F8081082443F1A081AC9F8080000280F
:10568000E0D1BEE71AF0010A04D0AB4601952F46DF
:10569000AA46C7E0554635B9D8F800A0D8F8045056
:1056A00008F10808F7E7A289D4F808B002F40070FE
:1056B00003B2002B52D05D4540D312F4906F3BD023
:1056C0002169276863694FF0030B0BFB03F302208A
:1056D0007F1A93FBF0FC7B1C581902F4806284450E
:1056E00028BF604613B2019030467BB1019900F0AB
:1056F000EDF9834698B121693A4600F057FCA1893B
:1057000021F4906040F08002A2810BE0019A00F049
:1057100073FC834630B930462169FFF7B5FE0C2390
:105720003360BAE00199C4F810B00BEB0703CF1B4C
:1057300023606161AB46A7605D4500D2AB465A4627
:105740005146206800F03BFCA0682368CBEB0002C8
:1057500003EB0B01A2602160AB462AE020682169BF
:1057600088420FD95D450DD951465A4600F027FCB5
:10577000226802EB0B00206021463046FFF7F4FB65
:10578000B8B18AE063699D4208D3676AE16930462F
:105790005246B847B0F1000B0BDC7EE051462A467A
:1057A00000F00DFCA2682368501B5919AB46A0609D
:1057B0002160D9F80800CBEB0002DA44CBEB0505F9
:1057C000C9F80820002A7FF466AF1AE7019800287C
:1057D00032D020682169A568D4F814E0D34534BFDD
:1057E0005B465346884237D97544AB4234DD39466F
:1057F0002A4600F0E4FB2068431923603046214626
:10580000FFF7B2FB002848D1BBEB050B3DD0D9F820
:1058100008207F19C5EB0A0A551BC9F80850002D4E
:105820003FF4EFAEBAF1000FD0D1002198E8800428
:10583000019108F10808F5E738460A21524600F0C0
:10584000A7FB20B100F10101C7EB010B01E00AF158
:10585000010B01220192BCE7734508DB656AE1692F
:1058600030463A467346A847051ECDDC15E01A4679
:105870003946009300F0A3FB009B2568A068E91857
:10588000C21AA26021601D46BEE730462146FFF7DE
:105890006BFB10B9CDF804B0B9E7A28942F0400320
:1058A000A3814FF0FF30BDE8FE8F2DE9F0410446A3
:1058B0008846FFF7B1FC04F5387400268CB1A56862
:1058C0006768013F0BD4B5F90C3033B1B5F90E0060
:1058D000431C02D02846C04706436835F1E72468D8
:1058E000ECE7FFF79AFC3046BDE8F0812DE9F8437C
:1058F00080468946FFF790FC08F53874002694B17D
:10590000A5686768013F0CD4B5F90C303BB1B5F917
:105910000E00431C03D040462946C847064368355D
:10592000F0E72468EBE7FFF778FC3046BDE8F88342
:10593000FF2807D8044B19680818427802F00803BA
:10594000D8B27047002070478004002010B514467C
:105950000AB90C4810BD10460B4900F0C4FD0028E0
:10596000F7D02046074900F0BEFD0028F1D02046C0
:10597000064900F0B8FD034B00280CBF1846002074
:1059800010BD00BF94760000FD7700009776000000
:105990000048704784040020014B186A704700BF1C
:1059A0008404002000487047A804002000207047AD
:1059B00000487047C80400200A46034903460868A7
:1059C0001946FFF7C3BF00BF5000002000487047D2
:1059D000C8040020F0B58B890C4603F002010AB21E
:1059E00091B00646002A3FD1B4F90E1000290DDA15
:1059F000A78907F0800247F4006310B200280CBFAB
:105A00004FF480654025A381002720E001AA01F022
:105A1000DBF90028ECDB029800F47045B5F5005383
:105A20005F425F41B5F5004F0BD1A16A1D4A91421B
:105A300007D1A3894FF4806543F48061A181E564B7
:105A400005E0A08940F40065A5814FF480653046EB
:105A5000294600F03BF870B9A38903F4007210B234
:105A6000E8B943F00201A18104F14303012223605C
:105A70002361626113E0A2890B4942F08003F16364
:105A8000A3812060206165614FB13046B4F90E10EA
:105A900001F0ACF918B1A08940F00101A18111B069
:105AA000F0BD00BFBB640000C5500000024B0146C2
:105AB000186800F00BB800BF50000020024B0146F0
:105AC0001868FFF7E1BC00BF500000202DE9F04747
:105AD00001F10B04162C064603D934F0070401D556
