S00E000043616D6572612E73726563CD
S1130000781A00204D2E0000492E0000492E0000D1
S1130010492E0000492E0000492E00000000000077
S1130020000000000000000000000000492E000055
S1130030492E000000000000492E0000492E000057
S1130040492E0000D1030000E5030000F90300007D
S11300500D040000210400003504000049040000E0
S11300605D04000071040000850400009904000090
S1130070AD040000C1040000D5040000E904000040
S1130080FD040000492E0000492E0000492E000006
S1130090492E0000492E0000492E0000492E000080
S11300A0492E0000492E0000492E0000492E000070
S11300B0492E0000492E0000492E0000492E000060
S11300C0492E0000492E0000492E0000492E000050
S11300D0492E0000492E0000492E0000492E000040
S11300E0492E0000492E0000492E0000492E000030
S11300F0492E0000492E0000492E0000492E000020
S1130100492E0000492E0000492E0000492E00000F
S1130110492E0000492E0000492E0000492E0000FF
S1130120492E0000492E0000492E0000492E0000EF
S1130130492E0000A50C0000492E0000BD0C000053
S1130140492E0000492E0000492E0000492E0000CF
S1130150492E0000492E0000492E0000492E0000BF
S1130160492E0000492E0000492E0000492E0000AF
S1130170492E0000D50C0000ED0C0000492E0000B3
S113018008B50548054B191A062900D808BD044AC4
S1130190002AFBD09047F9E79C5800009F580000C4
S11301A00000000008B50748074B191A8A1002EB33
S11301B0D273591000D108BD044A002AFBD09047DD
S11301C0F9E700BF9C5800009C58000000000000A4
S11301D010B5064C237843B9FFF7D2FF044810B199
S11301E00448AFF300800121217010BD00090020F4
S11301F0000000009C58000008B5084B1BB10848DB
S11302000849AFF300800848016811B1074A02B1F8
S11302109047BDE80840FFF7C5BF00BF00000000DD
S11302209C580000040900209C58000000000000B5
S11302302DE9F8430C46904648BB002A2BDD8F1865
S113024040F6D816C2F2000640F6D015C2F20005F8
S11302506FEA010907EB090000F0010930682B6817
S1130260984704F10104BC4219D10DE030682B68B1
S11302702146984704F10104214630682A689047D2
S113028004F10104BC42F1D14046BDE8F8834FF0CB
S1130290FF30BDE8F8834FF00000BDE8F883B9F102
S11302A0000FE3D030682A682146904704F1010426
S11302B0BC42DBD1E8E700BF2DE9F8430D46904688
S11302C000F1FF30022824D832B340F6D816C2F227
S11302D0000640F6D417C2F200074FF0000402F102
S11302E0FF3909F0010930683B68095D9847A0426D
S11302F01ADA14E030683B68295D984700280EDB61
S113030004F1010430683A68295D904700281DDA39
S113031005E04FF0FF3404E04FF0000401E04FF03B
S1130320FF342046BDE8F88304F10104A045F8D069
S1130330B9F1000FDED030683A68295D9047002893
S1130340EDDB04F10104A045D4D1EAE704F1010492
S1130350A045CFD1E5E700BF0F2888BF00204FEAB2
S1130360801000F1804101F52220704708B540F269
S11303705933C0F200039847C169C06A11F0010FF4
S11303800CD010F0040F0CD110F0020F0CD100F0BF
S11303900102002A0CBF0120022008BD4FF000001A
S11303A008BD4FF0040008BD4FF0030008BD00BFB6
S11303B010B5044640F26D33C0F20003984740F68E
S11303C0DC11C2F2000151F8242002B1904710BDA3
S11303D008B54FF0000040F2B133C0F20003984773
S11303E008BD00BF08B54FF0010040F2B133C0F2C0
S11303F00003984708BD00BF08B54FF0020040F263
S1130400B133C0F20003984708BD00BF08B54FF0F0
S1130410030040F2B133C0F20003984708BD00BFA7
S113042008B54FF0040040F2B133C0F2000398471E
S113043008BD00BF08B54FF0050040F2B133C0F26B
S11304400003984708BD00BF08B54FF0060040F20E
S1130450B133C0F20003984708BD00BF08B54FF0A0
S1130460070040F2B133C0F20003984708BD00BF53
S113047008B54FF0080040F2B133C0F200039847CA
S113048008BD00BF08B54FF0090040F2B133C0F217
S11304900003984708BD00BF08B54FF00A0040F2BA
S11304A0B133C0F20003984708BD00BF08B54FF050
S11304B00B0040F2B133C0F20003984708BD00BFFF
S11304C008B54FF00C0040F2B133C0F20003984776
S11304D008BD00BF08B54FF00D0040F2B133C0F2C3
S11304E00003984708BD00BF08B54FF00E0040F266
S11304F0B133C0F20003984708BD00BF08B54FF000
S11305000F0040F2B133C0F20003984708BD00BFAA
S11305104FF44043C4F2070398420ED04FF4004115
S1130520C4F2070188420BD04FF44042C4F20102E6
S1130530904214BF0020012070474FF00300704721
S11305404FF00200704700BF10B5044640F211534B
S1130550C0F200039847E16940F65012C2F200026B
S113056052F82030194011F4A06F1AD001F48073AE
S1130570002B0CBFFE21FC2140F63C12C2F200020B
S11305801154E36823F40041E1604FF0FF32E2626A
S1130590626240F66013C2F200034FF00001195486
S11305A010BD11F0010F32D040F61C12C2F200024D
S11305B06169C9B252F8203003F8011B42F82030B7
S11305C040F62C11C2F2000151F8202002F1FF3351
S11305D041F8203051F8201000297CD14FF001025D
S11305E0626240F66013C2F200034FF00001195436
S11305F04FF00802E262226240F65013C2F2000396
S113060053F8201041F0080243F8202010BD11F0E7
S1130610020F59D040F67411C2F2000151F82020A3
S1130620C2B94FF00202626240F66011C2F20001E8
S11306304FF000030B544FF00802E262226240F6CE
S11306405011C2F2000151F8203043F0080241F881
S1130650202010BD40F64012C2F2000252F82030B1
S113066013F8011BA16142F8203040F67413C2F262
S1130670000353F8202002F1FF3143F8201053F80F
S1130680203043BB40F66012C2F20002115C11B389
S113069040F66013C2F200034FF000021A5440F611
S11306A06411C2F2000151F82030D96840F6741286
S11306B0C2F2000242F82010996840F64013C2F2D8
S11306C0000343F8201010BD11F0080F03D04FF0C1
S11306D00800E062606210BD70B4B2FBF1F24FEA50
S11306E05202FF2A1ED94FEA5202FF2A35D94FEA95
S11306F05202FF2A34D94FEA5202FF2A33D94FEA71
S11307005202FF2A32D94FEA5202FF2A31D94FEA64
S11307105202FF2A30D94FEA5202FF2A2FD94FF052
S1130720F80018E04FF000064FEA5201CDB24FEA4C
S1130730024404F47F042C434FEA036303F070651E
S11307402C43521A4FEA026144EA114343EA067207
S113075042604FF0000040B214E04FF00106E3E7BE
S11307604FF00206E0E74FF00306DDE74FF0040622
S1130770DAE74FF00506D7E74FF00606D4E74FF067
S11307800706D1E770BC704770B4B2FBF1F24FEAD0
S11307905202FF2A1ED94FEA5202FF2A35D94FEAE4
S11307A05202FF2A34D94FEA5202FF2A33D94FEAC0
S11307B05202FF2A32D94FEA5202FF2A31D94FEAB4
S11307C05202FF2A30D94FEA5202FF2A2FD94FF0A2
S11307D0F80018E04FF000064FEA5201CDB24FEA9C
S11307E0024404F47F042C434FEA036303F070656E
S11307F02C43521A4FEA026144EA114343EA067257
S113080082634FF0000040B214E04FF00106E3E7CA
S11308104FF00206E0E74FF00306DDE74FF0040671
S1130820DAE74FF00506D7E74FF00606D4E74FF0B6
S11308300706D1E770BC704770B505460C4641F613
S1130840BD23C0F2000398474FF0010028604FF029
S1130850800129604FF0FF32EA62A37B2BB14FF095
S1130860100028604FF0FF31A960616849B1284643
S11308702268237B40F2D966C0F20006B047002804
S11308805DD1A16849B128462268637B40F289762C
S1130890C0F20006B047002854D144F23F23C0F20E
S11308A00F0362689A428CBF4FF040524FF00052DF
S11308B0607C4FEA002101F44071A37C03F007003F
S11308C00143237C4FEA034000F4E020E37B4FEA3A
S11308D0036303F04073184301431143E963E27D6A
S11308E002F0070343F08050617D4FEA014202F4B5
S11308F0E021E37C4FEA036202F0407341EA030221
S1130900217D4FEA015303F440110A43A37D4FEACA
S1130910032101F440731A431043286440F6C811BC
S1130920C2F200014FF000030B704B708B70CB7060
S11309300B714B718B714FF00102CA7104E04FF0DF
S1130940F80301E04FF0F80358B270BD016270473C
S1130950C06970472DE9F84306460C4640F211532E
S1130960C0F20003984705464FF0010030604FF095
S1130970800131604FF0020232604FF0FF3777623E
S1130980F7624FF0000340F63C10C2F200004355FA
S113099040F65012C2F2000240F2025142F8251011
S11309A040F66017C2F200077B55E379DBB104F12E
S11309B0040040F64012C2F2000242F8250040F65C
S11309C07411C2F2000141F8253040F66013C2F2FE
S11309D000034FF001075F5540F66410C2F20000B7
S11309E040F825400DE0A06840F64012C2F2000233
S11309F042F82500E16840F67417C2F2000747F890
S1130A002510627C3AB1A37C4FEA037707F0E040FB
S1130A1040F0806101E04FF00001226840F2FE7373
S1130A2003EA4207E079E26883184FEA034000F4DE
S1130A307F00247C002C14BF4FF40062002247F492
S1130A40604707430F431743F76040F65011C2F263
S1130A50000151F8253033624FF001003060EFF3AC
S1130A60108472B6BFF35F8F40F23802C2F2000204
S1130A704FF00007177040F6C813C2F200039978CC
S1130A8001F101019970002C38D140F23800C2F212
S1130A9000004FF001040470BFF35F8F62B62DE0D5
S1130AA072B6BFF35F8F4FF00003237040F6C81196
S1130AB0C2F20001087868B940F6C813C2F2000314
S1130AC04FF0000101F10101C9B213F8012F002A0E
S1130AD0F8D031B94FF001012170BFF35F8F62B6D6
S1130AE01CE072B6BFF35F8F4FF0000020704846E1
S1130AF042F65D23C0F2000398470FE040F63C172E
S1130B00C2F2000740F65118C0F2000840F238045F
S1130B10C2F200044FF00009C4F20F097A5D22B951
S1130B203046C04710F0100FBAD0EFF3108072B601
S1130B30BFF35F8F40F23803C2F200034FF00001AD
S1130B40197040F6C812C2F20002937803F1FF3123
S1130B50917048B940F23800C2F200004FF001022F
S1130B600270BFF35F8F62B64FF00203336040F64A
S1130B703C11C2F20001485D42B212F1040F0BD0E5
S1130B8040F63C13C2F20003595D48B210F1020F63
S1130B900CBFFF22002201E04FF0FF0250B2BDE87B
S1130BA0F88300BF2DE9F04104460E4690461F46E7
S1130BB040F21153C0F2000398474FF44045C4F289
S1130BC00705AC420ED04FF40041C4F207018C4239
S1130BD011D04FF44042C4F2010294424FD04FF07E
S1130BE0000501E04FF04E054FF40041C4F201014D
S1130BF08C4202D130E04FF04D0540F61C23C2F286
S1130C00000343F820802A464FEA551005F01F05DB
S1130C104FF0010101FA05F54FF46143CEF20003F0
S1130C2000F1600143F821504FEA0717FFB202F1C7
S1130C30604303F5614181F800734FF46142CEF2E1
S1130C40000242F820502046314640F64D13C0F2CF
S1130C5000039847BDE8F08140F61C22C2F200026E
S1130C6042F820804FF46140CEF200004FF000556E
S1130C70C0F884514FF001004FF03D02D4E740F634
S1130C801C23C2F2000343F820804FF46140CEF2EB
S1130C9000004FF00045C0F884514FF001004FF0C0
S1130CA03F02C1E708B540F61C23C2F200031968ED
S1130CB04FF40040C4F20100884708BD08B540F66F
S1130CC01C23C2F2000359684FF44040C4F20100EF
S1130CD0884708BD08B540F61C23C2F20003996892
S1130CE04FF40040C4F20700884708BD08B540F639
S1130CF01C23C2F20003D9684FF44040C4F2070039
S1130D00884708BD10B44FEA0113934210D920E07C
S1130D10416841F40021416042EA034202624FF01B
S1130D20000029E04FF0010026E04FF0010023E02D
S1130D304FEAC20404EB5302B2FBF3F34FEAD302CB
S1130D4003F0070302F1FF344FF6FE718C42E3D93E
S1130D50E8E74FEAC1014FEAC20202EB5104B4FBD7
S1130D60F1F34FEAD30203F0070302F1FF344FF625
S1130D70FE718C42CCD9D8E710BC70474FF04003C9
S1130D80036070474FF08803036070474FF010030F
S1130D90036070474FF02403036070474FF480737F
S1130DA0036070474FF40033036070474FF400232F
S1130DB003607047436913F0020F07D04FEAC15133
S1130DC04FEAD152C2614FF0000070474FF001006A
S1130DD0704700BF436913F0010F08D080694FEAE0
S1130DE0C0524FEAD2530B604FF0000070474FF0EF
S1130DF0010070474FF48243C5F25353C0F8E43006
S1130E00704700BF10B5044640F6F553C0F2000326
S1130E1098474FF0000060606062A062204640F690
S1130E208551C0F200018847204640F69552C0F231
S1130E3000029047204640F69D53C0F200039847B5
S1130E40204640F6AD51C0F200018847204640F6E6
S1130E50A552C0F20002904710BD00BF70B5054610
S1130E600C46164640F60563C0F20003984740F668
S1130E708410C2F200004FF000010160CCB128469A
S1130E802168324640F60553C0F20003984798B9EA
S1130E90A268616842EA010322691343E1680B43D3
S1130EA040F68412C2F20002136069680B436B605F
S1130EB070BD4FF0010070BD4FF0010070BD00BF68
S1130EC0F0B583B004460D464FF0000301934FF490
S1130ED08040C4F2020084420FD14FF48046C4F231
S1130EE0020640F6D557C0F20007304601A9B847BC
S1130EF00028FAD1019929702BE04FF40041C4F283
S1130F0002018C420FD14FF40044C4F2020440F6B3
S1130F10D556C0F20006204601A9B0470028FAD1F0
S1130F20019828702AE04FF44042C4F2020294422D
S1130F300FD14FF44044C4F2020440F6D556C0F237
S1130F400006204601A9B0470028FAD1019B2B7066
S1130F5014E04FF00002C4F2030294420ED14FF0A9
S1130F600004C4F2030440F6D556C0F2000620463D
S1130F7001A9B0470028FAD1019B2B7003B0F0BD42
S1130F8070B50C464FF48043C4F2020398420FD16B
S1130F904FF48045C4F2020540F6B556C0F200068F
S1130FA028462146B0470028FAD14FF0010070BD11
S1130FB04FF40041C4F2020188420FD14FF40045BE
S1130FC0C4F2020540F6B556C0F200062846214692
S1130FD0B0470028FAD14FF0010070BD4FF44042F1
S1130FE0C4F2020290420FD14FF44045C4F202050C
S1130FF040F6B556C0F2000628462146B047002800
S1131000FAD14FF0010070BD4FF00003C4F20303A6
S113101098420FD14FF00005C4F2030540F6B556CF
S1131020C0F2000628462146B0470028FAD14FF006
S1131030010070BD4FF0000070BD00BF2DE9F0430A
S113104087B042F63903C0F20003984742F6F50030
S1131050C0F2000080474FF44045C4F2070528461B
S113106041F2C576C0F20006B04740F68811C2F2DC
S113107000010860009048F2A062C0F201020192EF
S11310804FF0000402948DF80C408DF80D408DF85B
S11310900E408DF80F408DF810408DF811408DF8FA
S11310A012408DF813408DF814408DF815408DF8DA
S11310B016408DF817402846214640F24952C0F2A6
S11310C000024FF0010340F6A537C0F20007B8470D
S11310D02846694640F63903C0F2000398474FF4A6
S11310E00045C4F2020540F6D810C2F200000560C3
S11310F040F6D411C2F2000140F68172C0F200023F
S11311000A6040F6D017C2F2000740F6C163C0F28D
S113111000033B604FF4E13000904FF0C0010191B7
S11311204FF40062029203940494284641F6BD27CA
S1131130C0F20007B8472846B04702462846694629
S113114040F65D66C0F20006B047284640F67D537F
S1131150C0F200039847284640F68D55C0F20005BA
S1131160A84740F24007C2F2000738688068214669
S113117043F29516C0F20006B04739684868214624
S1131180B04745F2D470C0F2000043F28514C0F2B7
S11311900004A04745F2E470C0F20000A0474FF0FD
S11311A0010540F65C24C2F2000445F2B877C0F2AF
S11311B000074FF44046C4F2070640F65518C0F243
S11311C0000845F60809C0F2000925604FF0000246
S11311D0227162714FF00203E371A7604FF01900AE
S11311E0E06030462146C047002838D13FE0256002
S11311F04FF00001217161714FF00200E071A760AE
S11312004FF01902E26030462146C04750B945F21A
S1131210F470C0F20000294643F2D102C0F2000289
S1131220904706E04846294643F2D103C0F2000342
S1131230984705F1010505F0FF0525604FF0000111
S1131240217161714FF00200E071A7604FF0190342
S1131250E36030462146C047B0B91DE0FEE748468A
S1131260294643F2D102C0F20002904709E045F258
S1131270F470C0F20000294643F2D103C0F2000327
S1131280984705F10105B2E74846294643F2D102E1
S1131290C0F20002904709E045F2F470C0F2000089
S11312A0294643F2D103C0F20003984705F1010532
S11312B0EDB2802D9BD1D1E710B4036843F0010255
S11312C04FF40063C4F20E035A67EFF3108172B651
S11312D0BFF35F8F40F23802C2F200024FF0000405
S11312E014704FF02802CAF600229A614FF00102EE
S11312F09A6239B940F23803C2F200031A70BFF39C
S11313005F8F62B64FF40061C4F20E014A6912F0B5
S1131310080FFBD0EFF3108172B6BFF35F8F40F27A
S11313203803C2F200034FF000021A704FF4006356
S1131330C4F20E034FF03402CAF600229A61C26866
S11313405A6349B940F23801C2F200014FF0010377
S11313500B70BFF35F8F62B64FF40062C4F20E02EB
S1131360516911F0080FFBD0EFF3108172B6BFF38F
S11313705F8F40F23803C2F200034FF000021A708C
S11313804FF40063C4F20E034FF03002CAF6002299
S11313909A6182681A6349B940F23801C2F20001C5
S11313A04FF001030B70BFF35F8F62B64FF400621E
S11313B0C4F20E02516911F0080FFBD0EFF3108153
S11313C072B6BFF35F8F40F23803C2F200034FF0EE
S11313D000021A704FF40063C4F20E034FF0380297
S11313E0CAF600229A6102699A6349B940F2380147
S11313F0C2F200014FF001030B70BFF35F8F62B6BE
S11314004FF40062C4F20E02516911F0080FFBD0D0
S1131410EFF3108172B6BFF35F8F40F23803C2F26C
S113142000034FF000021A704FF40063C4F20E037D
S11314304FF02802CAF600229A61406840F0010287
S11314409A6249B940F23801C2F200014FF0010337
S11314500B70BFF35F8F62B610BC704700B589B0E4
S11314604FF40063C4F20E03996A11F0020F07D01F
S11314704FF40062C4F20E02536913F0040F4ED10C
S113148000284CD14FF48060C4F20F00416911F080
S1131490010F0CD141F22552C0F2000290474FF4E3
S11314A08060C4F20F00436913F0010FFBD04FF4C6
S11314B0807101914FF40060C4F20E004FF00102FC
S11314C002644FF40061C4F20E014B6913F0080F7B
S11314D0FBD04FF40060C4F20E00816A4FF00202A8
S11314E08DF81C2021F4403343F0021002904FF495
S11314F0B76103914FF0000106914FF0041204927A
S1131500059101A841F2B923C0F2000398474FF4B2
S11315100060C4F20E00416911F0040FFBD009B061
S113152000BD00BFEFF3108172B6BFF35F8F40F2CE
S11315303803C2F200034FF000021A704FF48060C7
S1131540C4F20F004FF02003CAF6002383614AF26D
S11315500D12C0F20502026249B940F23801C2F22A
S113156000014FF001000870BFF35F8F62B670474F
S113157030B4EFF3108472B6BFF35F8F40F23803D8
S1131580C2F200034FF000021A704FF02003C4F2BD
S11315900E0353F820204FF0010505FA01F1114321
S11315A000F108024FEA02654FEA955242F02A45DB
S11315B04FF00002C4F20E02956543F820104CB9B6
S11315C040F23800C2F200004FF001030370BFF391
S11315D05F8F62B630BC704730B4EFF3108472B6DC
S11315E0BFF35F8F40F23803C2F200034FF00002F2
S11315F01A704FF02003C4F20E0353F820204FF06A
S1131600010505FA01F122EA010100F108024FEA9D
S113161002654FEA955242F02A454FF00002C4F2A7
S11316200E02956543F820104CB940F23800C2F21E
S113163000004FF001030370BFF35F8F62B630BC4C
S1131640704700BF38B50446EFF3108572B6BFF398
S11316505F8F40F23803C2F200034FF000021A70A9
S11316601046C4F20E00816A41B94FF001004FF0F8
S1131670050141F27153C0F2000398474DB940F29D
S11316803800C2F200004FF001020270BFF35F8F16
S113169062B64FF00200214641F27153C0F20003DA
S11316A0984738BD10B501464FF0020041F2D953B6
S11316B0C0F200039847EFF3108472B6BFF35F8F54
S11316C040F23800C2F200004FF0000202701146EE
S11316D0C4F20E018B6A43B94FF001004FF00501CB
S11316E041F2D952C0F2000290474CB940F238009E
S11316F0C2F200004FF001010170BFF35F8F62B6C8
S113170010BD00BF38B50446EFF3108572B6BFF3C1
S11317105F8F40F23803C2F200034FF000021A70E8
S11317201046C4F20E00C16A41B94FF001004FF0F7
S1131730060141F27153C0F2000398474DB940F2DB
S11317403800C2F200004FF001020270BFF35F8F55
S113175062B64FF00300214641F27153C0F2000318
S1131760984738BD10B501464FF0030041F2D953F4
S1131770C0F200039847EFF3108472B6BFF35F8F93
S113178040F23800C2F200004FF00002027011462D
S1131790C4F20E01CB6A43B94FF001004FF00601C9
S11317A041F2D952C0F2000290474CB940F23800DD
S11317B0C2F200004FF001010170BFF35F8F62B607
S11317C010BD00BF4FF40043C4F20703984200F079
S11317D06F814FF40041C4F20701884200F2BB80DC
S11317E04FF40042C4F20202904200F061814FF4CF
S11317F00043C4F20203984251D84FF40041C4F2AA
S11318000101884200F054814FF40042C4F2010205
S1131810904220D84FF40043C4F20003984200F0F1
S113182047814FF40041C4F20001884204D8B0F16A
S1131830402F40F040813BE14FF00002C4F201022E
S1131840904200F035814FF48043C4F20103984282
S113185040F031812CE14FF44041C4F2010188424F
S113186000F026814FF44042C4F20102904207D8AE
S11318704FF40443C4F20103984240F01C8117E181
S11318804FF44441C4F20101884200F011814FF445
S11318908042C4F20202904240F00D8108E14FF010
S11318A00003C4F20403984200F002814FF00001E7
S11318B0C4F20401884223D84FF00002C4F20302A8
S11318C0904200F0F5804FF00003C4F20303984205
S11318D007D84FF44041C4F20201884240F0EB8043
S11318E0E6E04FF40042C4F20302904200F0E080CC
S11318F04FF44043C4F20303984240F0DC80D7E045
S11319004FF40041C4F20601884200F0D1804FF444
S11319100042C4F2060290420ED84FF00003C4F213
S11319200603984200F0C4804FF48041C4F20601DB
S1131930884240F0C080BBE04FF44042C4F206024B
S1131940904200F0B5804FF00003C4F207039842C0
S113195040F0B180ACE04FF00001C4F20E018842C7
S113196000F0A6804FF00002C4F20E0290424ED85E
S11319704FF48053C4F20A03984200F099804FF464
S11319808051C4F20A01884221D84FF00002C4F207
S11319900802904200F08C804FF00003C4F2080368
S11319A0984207D84FF44041C4F20701884240F0FE
S11319B082807DE04FF00002C4F20A02904277D0A8
S11319C04FF48063C4F20A03984274D170E04FF478
S11319D08041C4F20A0188426AD04FF48042C4F2C2
S11319E00A02904206D84FF40053C4F20A03984204
S11319F061D15DE04FF4A041C4F20A01884257D09E
S1131A004FF4C042C4F20A02904254D150E04FF065
S1131A100003C4F20F0398424AD04FF00001C4F20D
S1131A200F0188421FD84FF40062C4F20E029042A4
S1131A303ED04FF40063C4F20E03984206D84FF42C
S1131A408061C4F20E01884235D131E04FF4406226
S1131A50C4F20E0290422BD04FF48053C4F20E0312
S1131A60984228D124E04FF44061C4F20F01884227
S1131A701ED04FF44062C4F20F0290420CD84FF4CF
S1131A808063C4F20F03984212D04FF40061C4F291
S1131A900F0188420FD10BE04FF48052C4F20F02C1
S1131AA0904205D04FF4A053C4F20F03984202D1E0
S1131AB04FF0377070474FF00000704708B54FF48F
S1131AC00043C4F20703984200F07F824FF40041C0
S1131AD0C4F20701884200F2BB804FF40042C4F212
S1131AE00202904200F0F2814FF40043C4F2020378
S1131AF0984251D84FF40041C4F20101884200F0E9
S1131B00B0814FF40042C4F20102904220D84FF455
S1131B100043C4F20003984200F071814FF4004185
S1131B20C4F20001884204D8B0F1402F40F034835D
S1131B305DE14FF00003C4F20103984200F06781B5
S1131B404FF48041C4F20101884240F0258373E1DF
S1131B504FF44043C4F20103984200F092814FF4E1
S1131B604042C4F20102904207D84FF40441C4F247
S1131B700101884240F010837BE14FF44442C4F2F7
S1131B800102904200F085814FF48041C4F20201C9
S1131B90884240F0018384E14FF00002C4F2040261
S1131BA0904200F0E2814FF00001C4F20401884247
S1131BB023D84FF00003C4F20303984200F0B0812D
S1131BC04FF00002C4F20302904207D84FF44041A0
S1131BD0C4F20201884240F0DF828CE14FF40042FB
S1131BE0C4F20302904200F0B0814FF44041C4F2C9
S1131BF00301884240F0D082AFE14FF40043C4F2C5
S1131C000603984200F0C9814FF40041C4F2060172
S1131C1088420ED84FF00002C4F20602904200F04F
S1131C20AC814FF48043C4F20603984240F0B4827E
S1131C30ABE14FF44043C4F20603984200F0B5818F
S1131C404FF00001C4F20701884240F0A582B4E1DC
S1131C504FF00001C4F20E01884200F032824FF0CE
S1131C600003C4F20E0398425BD84FF48052C4F2CE
S1131C700A02904200F0E2814FF48051C4F20A015A
S1131C80884223D84FF00003C4F20803984200F0BE
S1131C90AC814FF00002C4F20802904207D84FF41E
S1131CA04041C4F20701884240F0768295E14FF04A
S1131CB00002C4F20A02904200F09F814FF4806156
S1131CC0C4F20A01884240F06782A6E14FF4A043BF
S1131CD0C4F20A03984200F0DB814FF4A041C4F23D
S1131CE00A0188420ED84FF40052C4F20A0290420C
S1131CF000F0AC814FF48043C4F20A03984240F0F0
S1131D004B82B4E14FF4C041C4F20A01884200F0AE
S1131D10D0814FF00003C4F20B03984240F03C82A0
S1131D205BE04FF00003C4F20F03984200F0FA8125
S1131D304FF00002C4F20F02904223D84FF4006126
S1131D40C4F20E01884200F0D0814FF40063C4F263
S1131D500E03984207D84FF48062C4F20E029042F8
S1131D6040F01A82B7E14FF44061C4F20E01884298
S1131D7000F0C5814FF48052C4F20E02904240F04C
S1131D800B82C6E14FF44061C4F20F01884200F0B7
S1131D90E7814FF44062C4F20F0290420ED84FF430
S1131DA08063C4F20F03984200F0C6814FF40061CF
S1131DB0C4F20F01884240F0EF81C7E14FF4805133
S1131DC0C4F20F01884200F0D5814FF4A052C4F24E
S1131DD00F02904240F0E081D6E14FF001004FF055
S1131DE0090141F27152C0F20002904708BD4FF060
S1131DF0000041F24562C0F20002904708BD4FF076
S1131E00010041F24561C0F20001884708BD4FF06E
S1131E10020041F24563C0F2000398474FF000000E
S1131E20C4F20E00016C41F055034FF04002CAF6B3
S1131E3000228265036408BD4FF0030041F245624D
S1131E40C0F2000290474FF00000C4F20E00036C91
S1131E5043F055014FF04002CAF600228265016446
S1131E6008BD4FF0040041F24563C0F200039847F7
S1131E7008BD4FF0050041F24563C0F200039847E6
S1131E8008BD4FF0060041F24561C0F200018847E9
S1131E9008BD4FF0070041F24562C0F200029047CE
S1131EA008BD4FF0080041F24563C0F200039847B3
S1131EB04FF00000C4F20E00026C42F004014FF037
S1131EC04003CAF600238365016408BD4FF009008E
S1131ED041F24563C0F2000398474FF00000C4F29A
S1131EE00E00016C41F004034FF04002CAF60022D8
S1131EF08265036408BD4FF00A0041F24563C0F2F5
S1131F00000398474FF00000C4F20E00026C42F048
S1131F1004014FF04003CAF600238365016408BD41
S1131F204FF00B0041F24561C0F2000188474FF0C9
S1131F300000C4F20E00036C43F004014FF04002B1
S1131F40CAF600228265016408BD4FF00C0041F21C
S1131F504562C0F20002904708BD4FF00D0041F207
S1131F604563C0F20003984708BD4FF00E0041F2EC
S1131F704562C0F20002904708BD4FF00F0041F2E5
S1131F804562C0F20002904708BD4FF0100041F2D4
S1131F904561C0F20001884708BD4FF0110041F2CD
S1131FA04561C0F20001884708BD4FF0120041F2BC
S1131FB04563C0F20003984708BD4FF0130041F297
S1131FC04562C0F20002904708BD4FF0150041F28F
S1131FD04561C0F20001884708BD4FF0160041F288
S1131FE04563C0F20003984708BD4FF0170041F263
S1131FF04562C0F20002904708BD4FF0010001465F
S113200041F27153C0F2000398474FF0000041F2CF
S11320100571C0F20001884708BD4FF001004FF080
S1132020020141F27153C0F2000398474FF00100DE
S113203041F20572C0F20002904708BD4FF0020061
S113204041F20571C0F20001884708BD4FF001005C
S11320504FF0000141F27153C0F2000398474FF072
S1132060030041F20572C0F20002904708BD4FF030
S113207001004FF0040141F27152C0F20002904796
S11320804FF0040041F20571C0F20001884708BD19
S11320904FF001004FF0030141F27153C0F200030D
S11320A098474FF0050041F20572C0F200029047D4
S11320B008BD4FF0060041F20571C0F200018847E7
S11320C008BD4FF004004FF0000141F27153C0F21B
S11320D00003984708BD4FF004004FF0010141F29E
S11320E07153C0F20003984708BD4FF004004FF04D
S11320F0020141F27153C0F20003984708BD4FF04A
S113210004004FF0030141F27152C0F20002904703
S113211008BD4FF00400014641F27153C0F20003C0
S1132120984708BD4FF005004FF0000141F271528D
S1132130C0F20002904708BD4FF005004FF00101C6
S113214041F27153C0F20003984708BD4FF00500F7
S11321504FF0020141F27152C0F20002904708BDF3
S11321604FF005004FF0030141F27153C0F2000338
S1132170984708BD4FF005004FF0040141F2715239
S1132180C0F20002904708BD4FF00500014641F23D
S11321907153C0F20003984708BD00BF08B54FF45F
S11321A00043C4F20703984200F031824FF4004127
S11321B0C4F20701884200F2BB804FF40042C4F22B
S11321C00202904200F0CB814FF40043C4F20203B8
S11321D0984251D84FF40041C4F20101884200F002
S11321E096814FF40042C4F20102904220D84FF489
S11321F00043C4F20003984200F071814FF400419F
S1132200C4F20001884204D8B0F1402F40F0F382B8
S11322105DE14FF00003C4F20103984200F06781CE
S11322204FF48041C4F20101884240F0E48266E147
S11322304FF44042C4F20102904200F078814FF41E
S11322404043C4F20103984207D84FF40441C4F256
S11322500101884240F0CF8261E14FF44443C4F26B
S11322600103984200F06B814FF48041C4F20201F3
S1132270884240F0C0826AE14FF00003C4F20403D4
S1132280984200F094814FF00001C4F204018842A6
S113229023D84FF00002C4F20302904200F06F8191
S11322A04FF00003C4F20303984207D84FF44041AF
S11322B0C4F20201884240F09E8258E14FF4004388
S11322C0C4F20303984200F062814FF44041C4F227
S11322D00301884240F08F8261E14FF40042C4F26E
S11322E00602904200F07B814FF40043C4F20603DF
S11322F098420ED84FF00001C4F20601884200F063
S11323005E814FF48042C4F20602904240F0738230
S11323105DE14FF44042C4F20602904200F067814E
S11323204FF00003C4F20703984240F0648266E170
S11323304FF00003C4F20E03984200F0DC814FF02A
S11323400001C4F20E0188425BD84FF48052C4F2FB
S11323500A02904200F08C814FF48053C4F20A03C5
S1132360984223D84FF00001C4F20801884200F0DB
S11323705E814FF00002C4F20802904207D84FF485
S11323804043C4F20703984240F0358247E14FF0DE
S11323900002C4F20A02904200F051814FF48063BB
S11323A0C4F20A03984240F0268250E14FF4A0415F
S11323B0C4F20A01884200F085814FF4A043C4F2BC
S11323C00A0398420ED84FF40052C4F20A02904213
S11323D000F056814FF48041C4F20A01884240F073
S11323E00A825EE14FF4C042C4F20A02904200F055
S11323F07A814FF00003C4F20B03984240F0FB8152
S11324005BE04FF00003C4F20F03984200F0A48194
S11324104FF00002C4F20F02904223D84FF400613F
S1132420C4F20E01884200F07A814FF40063C4F2D2
S11324300E03984207D84FF48062C4F20E02904211
S113244040F0D98161E14FF44061C4F20E01884249
S113245000F06F814FF48052C4F20E02904240F0BB
S1132460CA8170E14FF44061C4F20F01884200F068
S113247091814FF44062C4F20F0290420ED84FF49F
S11324808063C4F20F03984200F070814FF400613E
S1132490C4F20F01884240F0AE8171E14FF48051E3
S11324A0C4F20F01884200F07F814FF4A052C4F2BD
S11324B00F02904240F09F8180E14FF001004FF005
S11324C0090141F2D952C0F2000290477EE14FF077
S11324D0000041F2A562C0F20002904776E14FF09D
S11324E0010041F2A561C0F2000188476EE14FF09E
S11324F0020041F2A563C0F20003984766E14FF081
S1132500030041F2A562C0F2000290475EE14FF081
S1132510040041F2A562C0F20002904756E14FF078
S1132520050041F2A562C0F2000290474EE14FF06F
S1132530060041F2A561C0F20001884746E14FF070
S1132540070041F2A563C0F2000398473EE14FF053
S1132550080041F2A562C0F20002904736E14FF054
S1132560090041F2A562C0F2000290472EE14FF04B
S11325700A0041F2A562C0F20002904726E14FF042
S11325800B0041F2A561C0F2000188471EE14FF043
S11325900C0041F2A563C0F20003984716E14FF026
S11325A00D0041F2A562C0F2000290470EE14FF027
S11325B00E0041F2A561C0F20001884706E14FF028
S11325C00F0041F2A561C0F200018847FEE04FF020
S11325D0100041F2A563C0F200039847F6E04FF003
S11325E0110041F2A563C0F200039847EEE04FF0FA
S11325F0120041F2A562C0F200029047E6E04FF0FB
S1132600130041F2A561C0F200018847DEE04FF0FB
S1132610150041F2A561C0F200018847D6E04FF0F1
S1132620160041F2A561C0F200018847CEE04FF0E8
S1132630170041F2A562C0F200029047C6E04FF0D5
S1132640000041F26573C0F200039847BEE04FF00A
S113265001004FF0020141F2D952C0F2000290474A
S11326604FF0010041F26571C0F200018847ADE00E
S11326704FF0020041F26571C0F200018847A5E005
S11326804FF001004FF0000141F2D953C0F20003B2
S113269098474FF0030041F26571C0F2000188478A
S11326A094E04FF001004FF0040141F2D953C0F21D
S11326B0000398474FF0040041F26572C0F2000233
S11326C0904783E04FF001004FF0030141F2D953EA
S11326D0C0F2000398474FF0050041F26572C0F262
S11326E00002904772E04FF0060041F26571C0F2BB
S11326F0000188476AE04FF004004FF0000141F206
S1132700D953C0F20003984760E04FF004004FF043
S1132710010141F2D953C0F20003984756E04FF04B
S113272004004FF0020141F2D953C0F2000398476C
S11327304CE04FF004004FF0030141F2D952C0F2D3
S11327400002904742E04FF00400014641F2D953A1
S1132750C0F20003984739E04FF005004FF0000144
S113276041F2D952C0F2000290472FE04FF0050029
S11327704FF0010141F2D953C0F20003984725E01C
S11327804FF005004FF0020141F2D952C0F20002AD
S113279090471BE04FF005004FF0030141F2D9537D
S11327A0C0F20003984711E04FF005004FF0040118
S11327B041F2D952C0F20002904707E04FF0050001
S11327C0014641F2D953C0F2000398474FF000008C
S11327D0C4F20E00826A12F00B0F0CD14FF000030A
S11327E0C4F20E03196C21F07F004FF04002CAF6C8
S11327F000229A65186408BDEFF3108272B6BFF325
S11328005F8F40F23803C2F200034FF000011970E9
S11328100B46C4F20E034FF02A41996518604AB979
S113282040F23800C2F200004FF001020270BFF320
S11328305F8F62B6704700BF38B54FF48064C4F24E
S11328400A04204641F6BD23C0F2000398474FF026
S11328500100A0604FF48062C4F20A02D16811F052
S1132860010FFBD04FF0000041F25D45C0F20005BE
S1132870A8474FF037704FF000010A4642F609446A
S1132880C0F20004A0474FF0030042F2F973C0F213
S1132890000398474FF00000C4F20F004FF000010E
S11328A04AF68012C0F2030242F6E115C0F20005B6
S11328B0A8474FF00004C4F20F0442F65925C0F2B1
S11328C000052046A84710F0010FFAD0EFF310805E
S11328D072B6BFF35F8F40F23802C2F200024FF0CB
S11328E00001117028B94FF001001070BFF35F8F21
S11328F062B638BD00B587B0684642F63553C0F2BB
S11329000003984704A84FF44061C4F20F016A46DB
S113291042F65153C0F20003984704A842F61D61E1
S1132920C0F2000188474FF48050C4F20E0041F613
S1132930BD22C0F2000290474FF4A050C4F20E0032
S11329404FF080034364C0F8683143654FF08071F1
S11329508164C0F864114167C0F88810C0F8C810D9
S1132960C0F808118161816281634FF080628267DF
S1132970C0F88820C0F8C820C0F8082182618262AB
S1132980826382604FF000638367C0F88830C0F8C8
S1132990C830C0F8083183618362836383604FF475
S11329A09050C4F20E004FF480418167C0F8881043
S11329B0C0F8C810C0F80811816141628163816068
S11329C04FF400428267C0F88820C0F8C820C0F8DD
S11329D00821826142628263826007B000BD00BF49
S11329E02DE9F843C46924F0030545F00C03EFF323
S11329F0108672B6BFF35F8F4FF0000540F23807C0
S1132A00C2F200073D704EF21004CEF20004D4F876
S1132A1008802768D4F8049062604FF005022260B1
S1132A2001F00301194340F20103C2F20003984785
S1132A302560C4F80490C4F8088027604EB940F2B9
S1132A403801C2F200014FF001020A70BFF35F8F38
S1132A5062B6BDE8F88300BF4069704710B4C3692B
S1132A6023F44C544FF00003C4F20F034FF01C0244
S1132A70CAF600229A61012909D1C4614FF46D4359
S1132A80CEF20003186920F00401196150E0022914
S1132A900BD144F48054C4614FF46D40CEF2000075
S1132AA0016921F00402026142E003290BD144F4DC
S1132AB00054C4614FF46D41CEF200010A6922F062
S1132AC004030B6134E004290BD144F44054C46181
S1132AD04FF46D41CEF200010B6923F0040008614C
S1132AE026E0052909D1C4614FF46D43CEF20003F9
S1132AF0186940F004021A611AE006290BD144F463
S1132B000074C4614FF46D40CEF20000026942F0DB
S1132B10040101610CE007291ED144F48074C461EE
S1132B204FF46D40CEF20000016941F004030361EB
S1132B304FF48062C4F20F02536913F4806FFBD028
S1132B4030BF00BF40F23800C2F200004FF0010174
S1132B500170BFF35F8F62B610BC70474FF0000383
S1132B60C4F20A03196821F04002002814BF40206F
S1132B70002010434FF00003C4F20A0318607047AA
S1132B804FF00003C4F20A03986800F00100704794
S1132B9010B542F68134C0F20004A0470028FCD0EE
S1132BA010BD00BF38B505460C4640F23C03C2F2E6
S1132BB00003186880474FF00001C4F20A014A6814
S1132BC0002C07DB45F025454FEA042424F07F441C
S1132BD0254304E022F03F0343F0254005434FF032
S1132BE00001C4F20A014D608A6802F00C0040F64C
S1132BF08C13C2F20003186040F23C01C2F20001DF
S1132C000A68904738BD00BF08B5002956D14AF676
S1132C108003C0F21213984227D94FF4A243C0F2A2
S1132C202523984210D84FF0010042F65D33C0F2DC
S1132C30000398474FF011004FF0FF3142F6A532E0
S1132C40C0F20002904708BD4FF0010042F65D312A
S1132C50C0F2000188474FF010004FF0FF3142F6F8
S1132C60A532C0F20002904708BDB2B14FF4D8516A
S1132C70C0F2B701884210D84FF0010042F65D312E
S1132C80C0F2000188474FF011004FF0FF3142F6C7
S1132C90A532C0F20002904708BD4FF0000042F692
S1132CA05D32C0F2000290474FF011004FF0FF3147
S1132CB042F6A533C0F20003984708BD4AF68003E4
S1132CC0C0F2121398428CBF0120002042F65D31FD
S1132CD0C0F2000188474FF011004FF0FF3142F677
S1132CE0A532C0F20002904708BD00BF82B04FF485
S1132CF04063C4F20F03196811F4003F0CBF40F2A3
S1132D0043314FF437610191019A4FEAD2030193A1
S1132D10019901F1FF3201920029F9D140F0AA4151
S1132D204FF44063C4F20F03196040F02A40186066
S1132D3002B070474FF00003036043604FF010028D
S1132D40027243724FF001018172C17203737047C2
S1132D5038B50C46154601604260084641F6BD236D
S1132D60C0F200039847206810F0080F52D1216880
S1132D7011F0010F0BD0226822F0010042F6ED435E
S1132D80C0F200039847206810F0010FFBD12168BE
S1132D9011F4803F0BD0226822F4803042F6ED43D8
S1132DA0C0F200039847206810F4803FFBD16968A3
S1132DB02A6841EA0203287A4FEA002101F4F85212
S1132DC043EA02006B7A4FEA834101F4F8021043AC
S1132DD0AB7A002B14BF802100210843ED7A002D2B
S1132DE014BF02220022104342F6ED45C0F2000552
S1132DF0A847206840F48030A847236813F4803F34
S1132E00FBD0204642F29D11C0F2000188474FF0EA
S1132E10010038BD4FF0000038BD00BF10B5046894
S1132E20206820F0010042F6ED43C0F20003984709
S1132E30216811F0010FFBD1204642F29D12C0F22D
S1132E400002904710BD00BFFEE700BF38B540F256
S1132E500003C2F2000345F69C02C0F200029A424B
S1132E6003D039483949814204D3394B394A9A420B
S1132E7025D342E0384D394C631B23F003054FF052
S1132E80000340F20002C2F2000245F69C01C0F2C7
S1132E90000105F10400C5F380045D589D5003F161
S1132EA00403834246D1E0E75D589D5003F10403D7
S1132EB05C589C5003F104038342F5D1D5E7284DB7
S1132EC02849481B20F0030440F60013C2F2000313
S1132ED0E2184FF00001501BA0F10400C0F380047D
S1132EE045F8041F95421ED107E005F1040369600B
S1132EF005F1080559609542F7D140F20005C0F28A
S1132F00000525F07F024FF46D41CEF200018A6086
S1132F1043F28500C0F20000804741F23D04C0F254
S1132F200004A047FEE7002CDFD045F8041F9542BB
S1132F30DBD1E2E7002CB7D05C589C5003F10403CA
S1132F408342B1D191E700BF0009002000000020B6
S1132F50740A002000090020040000200309002056
S1132F60FC0800206F0A002040F69013C2F2000310
S1132F70196841B940F69013C2F2000341F6782271
S1132F80C2F200021A6040F69011C2F200010B680E
S1132F9018180860184670474FF0FF30704700BF9C
S1132FA04FF400534B604FF0000070474FF00100A6
S1132FB0704700BF4FF00000704700BF2DE9F84391
S1132FC09846234B1C680646D4F848010F469146A0
S1132FD018B904F5A670C4F8480141681F2916DD24
S1132FE01C4818B94FF0FF30BDE8F8834FF4C8709F
S1132FF001F084FB0028F5D0D4F848210025456071
S11330000260C4F84801C0F88851C0F88C51B6B1C8
S11330104468D0F88811012200EB840302FA04F218
S11330201143022EC3F88890C0F888111C46C3F8D7
S1133030088104D1D0F88C311A43C0F88C2141683E
S11330408B1C4A1C40F8237042600020BDE8F883C2
S11330501C580000FD46000070B5084B084CE01AEF
S1133060841003EB84060025043D1CB1725990477B
S1133070013CF9E7BDE8704002F004BC9058000040
S11330809458000038B50E4D0E4BE81A85100024F4
S1133090AC4205D00B4951F8242090470134F7E79E
S11330A002F0E6FB0849094A541AA5100024AC4270
S11330B005D0054B53F8240080470134F7E738BDA9
S11330C07C5800007C5800007C58000084580000A4
S11330D00FB407B5064904AB086853F8042B81689C
S11330E0019300F011F9BDE80E4004B0704700BF31
S11330F0400000200EB403B503AB816853F8042BE1
S1133100019300F001F9BDE80C4003B0704700BF23
S113311082180346934202D003F8011BFAE7704772
S113312030B5054689B008460C4600F0B1F80121D7
S113313043180791114903930B68114A059004A899
S1133140019098680692022202928289049402F401
S113315000510BB233B9416E42F4005221F40053D2
S1133160828143662846A96801AA01F079F80028FB
S11331700CBF0A204FF0FF3009B030BD40000020E2
S113318022580000024B01461868FFF7C9BF00BF70
S11331904000002000290CBF022200224FF480636B
S11331A000F000B82DE9F0411D46374B044618687D
S11331B00E461746984618B1826B0AB900F05CFEB9
S11331C0022F5DD8002D5BDB2146D8F8000000F00B
S11331D05FFDA18901F0800300201AB26060A06144
S11331E022B129482169006800F084FFA189022FD7
S11331F021F08303A38112D036BB002D08BF4FF406
S11332008065284601F07AFA0646C8B94FF4806012
S113321001F074FA064688B94FF0FF3000E0002050
S1133220A18941F00203A38104F143010022012397
S1133230A260216021616361BDE8F0814FF4806583
S1133240A28942F08000A081012F05D1A1896A42A0
S113325041F00103A381A2610B48A28901680B4BD1
S113326002F0080000B2CB6326602661656148B1B4
S113327012F0030F18BF0025A5600020BDE8F081FF
S11332804FF0FF30BDE8F08140000020ED3D00002C
S1133290034613F8012B002AFBD1181A0138704792
S11332A093682DE9F04781460F4614461BB95360D5
S11332B01846BDE8F0874B6E9B041ED51568A068C0
S11332C00835C8B155F8041C55F808AC4FEA910804
S11332D00026464509DA48465AF826103A4600F0D0
S11332E047FE431C0BD00136F3E7A2684FEA880877
S11332F0C8EB0203A360E2E701E000F0B1FF0021A4
S1133300A1606160BDE8F0872DE9F04F8946A9B05E
S113331014461D461E46824618B1836B0BB900F055
S1133320ABFDB9F80C0000F4005211B249B940F4F5
S11333300053D9F86400A9F80C3020F40052C9F8FD
S11333406420B9F80C1001F0080318B248B1D9F898
S1133350102032B1B9F80C1001F01A030A2B16D15F
S113336009E05046494600F027FC0028F2D04FF00F
S1133370FF320392D5E3B9F90E00002807DB50466B
S1133380494622462B4600F0D0FB0390C9E30022B5
S113339018AD0B950D920C92019405920392A846D8
S11333A001990C4611F8013B0BB1252BF9D1019A77
S11333B0A51A19D00C990D984B1C88E82400072BEA
S11333C000EB05020D9208F108080C9309DD504644
S11333D049460BAAFFF764FF002840F09A830DF1D9
S11333E060080398421903922178002900F08A8327
S11333F00022013401948DF827204FF0FF3C049201
S11334001746019810F8013B0190632B00F0B3803C
S113341033DC392B1ADC312B80F291802B2B01D138
S11334201A46EEE70ADC232B55D02A2B56D0202B44
S113343040F0F781002A08BF2022E2E72E2B58D063
S1133440302B79D02D2B40F0EC814FE04F2B00F046
S1133450DE8007DC442B40F0E4818DF8272047F020
S1133460100790E0552B00F01F81582B40F0D981B4
S1133470AF4D8DF82720059531E16F2B00F0C98001
S113348010DC692B24D007DC642B21D0682B40F09E
S1133490C88147F04007B4E76C2B5FD06E2B40F037
S11334A0C08196E0732B00F0DF8006DC702B00F007
S11334B0CD80712B40F0B5815AE0752B00F0F68079
S11334C0782B40F0AE819B4D8DF82720059506E1C1
S11334D08DF8272057E047F0010792E7331D36683F
S11334E0002E049615DA704204901E4647F0040735
S11334F087E7019911F8013B2A2B01910BD1D6F8EA
S113350000C0331DBCF1000F03DA1E464FF0FF3C30
S113351077E71E4675E74FF0000CA3F13000092849
S113352007D801990A2303FB0C0C11F8013B019104
S1133530F3E74CEAEC7C68E747F0800761E7019821
S11335400021303B0A2404FB013110F8013BA3F1B4
S11335503004092C0190F4D9049156E701990B78B1
S11335606C2B02D1481C019002E047F0100748E799
S113357047F0200745E7326800258DF838208DF89C
S11335802750043657E1BA0607D5073626F0070553
S113359005F10806D5E900450FE017F0100F06F114
S11335A0040101D0326805E017F0400F326801D001
S11335B014B200E01446E5170E46002C75F1000223
S11335C080F2BA802D23644265EB45058DF82730DF
S11335D0B2E017F0200F8DF8272006F1040205D081
S11335E0039C3568E0172C60686004E0FB0604D592
S11335F03368039919601646D2E63068039C17F0C5
S1133600400F06F1040614BF04800460C8E647F0C6
S1133610100717F0200008D0F31D23F0070505F16B
S11336200806D5E9004500207DE017F0100106F1F9
S1133630040206D117F0400003D034880025164652
S1133640F1E736680025344616466CE0394B346899
S1133650059330217822002547F002078DF82810C1
S11336608DF8292004365DE031460025D1F800B0FC
S11336708DF827500436AC45584611DB624629467E
S1133680CDF800C001F04CFADDF800C0002800F0CD
S1133690D680CBEB0004644540F3D3806446D0E08D
S11336A0FFF7F6FD0446CCE047F01007BD0607D54A
S11336B0F01D20F0070404F10806D4E900450CE0ED
S11336C017F0100F06F1040303D17C0601D53488EA
S11336D001E035682C4600251E46012023E0B8068B
S11336E007D5F41D24F0070101F10806D1E90045CE
S11336F00CE017F0100F06F1040003D1790601D590
S1133700348801E03668344600250646FA0709D5B0
S113371054EA050206D030228DF828208DF829308D
S113372047F00207022000218DF8271005E000BFB2
S113373044580000555800000120BCF1000FA8BFF8
S113374027F0800754EA050102D1BCF1000F58D0DC
S113375001281DD002280DF15F0341D004F00702B7
S1133760E40844EA4570E90804460D46303254EA58
S113377005019B461A7003F1FF33EFD1F8075D464C
S11337804AD5302A48D030229B4605F8012C43E024
S1133790002D08BF0A2C03D230348DF85F4036E088
S11337A00DF15F030293204629460A220023CDF837
S11337B000C001F01BFD0298DDF808B0303200F8BB
S11337C00129294602900A222046002301F00EFD19
S11337D004460D4654EA0501DDF800C0E3D11BE0C0
S11337E004F00F00059924090A5C44EA05702909CC
S11337F004460D469B4603F8012954EA0502EFD11D
S11338000AE038B9F90705D530208DF85F000DF1CD
S11338105F0B01E00DF1600B18ADCBEB05046546C1
S11338200FE08DF82720002B00F06C8100258DF827
S113383038308DF8275001240DF1380B01E064462F
S113384005469DF82730AC42ACBF2146294602917B
S113385013B10298421C029217F00201069102D0A1
S1133860029B981C029017F0840207923AD10499A3
S1133870029BCB1A002B35DDA048102BC8F80000A2
S11338801ADD0C990D9A1020C8F80400481C103257
S113389007280D9208F108080C900BDD50464946A4
S11338A00BAA0093FFF7FCFC009B002840F0318139
S11338B00DF16008103BDFE70D9AC8F80430D11809
S11338C00C9B0D91581C072808F108080C9009DD81
S11338D0504649460BAAFFF7E3FC002840F0198143
S11338E00DF160089DF82720D2B10DF12701C8F829
S11338F000100C990D980123C8F804304B1C421C8D
S1133900072B0D9208F108080C9309DD504649462F
S11339100BAAFFF7C5FC002840F0FB800DF16008FE
S11339200698C8B10AAAC8F800200C9A0D9B022177
S1133930C8F80410511C981C07290D9008F10808B8
S11339400C9109DD504649460BAAFFF7A9FC002853
S113395040F0DF800DF16008079B802B3AD104987A
S1133960029A831A002B35DD6549102BC8F8001024
S11339701ADD0C9A0D981021C8F80410511C10304F
S113398007290D9008F108080C910BDD50464946B3
S11339900BAA0093FFF784FC009B002840F0B98039
S11339A00DF16008103BDFE70C9A0D98C8F804305D
S11339B0511CC31807290D9308F108080C9109DD5F
S11339C0504649460BAAFFF76BFC002840F0A18043
S11339D00DF160082D1B002D32DD4948102DC8F86B
S11339E0000018DD0C9A0D98531C10211030072B81
S11339F0C8F804100D9008F108080C9309DD50462E
S1133A0049460BAAFFF74CFC002840F082800DF1D8
S1133A106008103DE1E70C9A0D9BC8F80450511C56
S1133A205D1907290D9508F108080C9108DD504629
S1133A3049460BAAFFF734FC00286AD10DF160084F
S1133A400C9A0D98C8F80440511C04190729C8F8A9
S1133A5000B00D9408F108030C9107DD5046494667
S1133A600BAAFFF71DFC002853D118AB7A070BD41F
S1133A70039B029A04990D988A42ACBF9B185B1869
S1133A800393002835D02EE0049C0298241A002CBD
S1133A90EEDD1A4A102C1A6014DD0C980D991022D0
S1133AA05A60421C10310833072A0D910C9207DD2D
S1133AB0504649460BAAFFF7F3FB002829D118AB5F
S1133AC0103CE6E70C995C600D9B481C1C19072808
S1133AD00D940C90CCDD504649460BAAFFF7E0FB51
S1133AE00028C5D015E0504649460BAAFFF7D8FB7D
S1133AF078B900250C950DF1600851E424580000B4
S1133B00345800000D9A22B1504649460BAAFFF7DB
S1133B10C7FBB9F80C1001F0400003B2002B7FF48E
S1133B2026AC039829B0BDE8F08F70B50C4689899E
S1133B30ADF58D6D21F00205616EADF80C50199153
S1133B40E589E169ADF80E500791656A1AA90091FB
S1133B5004910021099506914FF480656946029508
S1133B6005950646FFF7D0FB051E07DB3046694680
S1133B7000F08EF8002818BF4FF0FF35BDF80C3068
S1133B8003F0400002B21AB1A18941F04003A381BD
S1133B9028461AB00DF5806D70BD30B51346054A40
S1133BA005460C46106829462246BDE83040FFF71A
S1133BB0ABBB00BF4000002038B52C4B054618684D
S1133BC00C4618B1826B0AB900F056F9A08900F0CE
S1133BD008010BB20BBB00F0100211B211B94FF087
S1133BE0FF3038BD00F0040003B293B1216B41B142
S1133BF004F14002914202D0284600F07BFA0021F1
S1133C002163A089216920F024030022A38162603A
S1133C102160A08940F00803A38122694AB9A189DF
S1133C2001F42070B0F5007F03D02846214600F04F
S1133C30F9FCA38913F0010205D06169002248420E
S1133C40A260A06107E003F0020108B208B9636949
S1133C5000E01346A360236933B9A28902F080010E
S1133C6008B20028BBD138BD002038BD4000002078
S1133C70024B13B1024800F005B870470000000081
S1133C80593000000146002002460346FFF796B96A
S1133C902DE9F0410C46054618B1836B0BB900F0D1
S1133CA0EBF8A28932B302F0080001B2002962D114
S1133CB0616842F400600029A08102DCE36B002B00
S1133CC018DDA66AB6B102F48052002012B22F6841
S1133CD028600AB1226D10E001232846E169B0474B
S1133CE00246013009D1296839B11D2901D01629AC
S1133CF04FD12F600020BDE8F081A68906F00401B1
S1133D000BB22BB16068266B121A0EB1E16B521A1A
S1133D10E169A66A00232846B047411C05D12A68F8
S1133D201AB11D2A01D0162A1FD1A38923F40062D7
S1133D300021A28103F480532269616019B22260D8
S1133D4021B1421C01D12A6802B92065216B2F6080
S1133D500029CFD004F14000814202D0284600F06F
S1133D60C9F900202063BDE8F081A38943F0400134
S1133D70A181BDE8F0812669002EBBD0920723689B
S1133D8008BF6269266018BF0022C6EB0308A26060
S1133D9012E0A38943F04000A0814FF0FF30BDE85A
S1133DA0F081676AE169284632464346B8470028ED
S1133DB0EFDD3618C0EB0808B8F1000FF1DC99E725
S1133DC0014620B904480549006800F0C5BB044B0E
S1133DD01868FFF75DBF00BF1C580000913C00004D
S1133DE0400000200020704700207047014900F087
S1133DF092BB00BF51510000002310B5044603607C
S1133E004360836081814366C2810361436183614E
S1133E101946082200F15C00FFF77AF904480549C5
S1133E20054A064BE46120626162A262E36210BD4E
S1133E30854E0000AB4E0000E74E00000B4F000023
S1133E4070B568254D430E4605F10C0100F066FC83
S1133E50044640B100F10C00002184E84200A06057
S1133E602A46FFF755F9204670BD024B1868FFF744
S1133E70BDBF00BF1C58000038B5836B0446EBB9C6
S1133E800F4AC0F8E0320125C263856304F53B7133
S1133E9003201A46C4F8E402C4F8E8126068042156
S1133EA0FFF7AAFFA06809212A46FFF7A5FFE068EB
S1133EB012210222BDE83840FFF79EBF38BD00BF83
S1133EC0ED3D0000F8B51D4B1E680746B06B10B9F8
S1133ED03046FFF7D1FF06F53876B46871680139CA
S1133EE004D4B4F90C5085B16834F8E732680AB1E7
S1133EF03668F2E738460421FFF7A2FF3060002855
S1133F00F6D10C243C60044615E04FF6FF73012003
S1133F10A081E38165662560A560656025616561B2
S1133F20A56104F15C0029460822FFF7F1F8256336
S1133F3065636564A5642046F8BD00BF1C58000095
S1133F407047704770477047024B0349186800F088
S1133F50E2BA00BF40000020E53D0000024B0349E7
S1133F60186800F0D8BA00BF40000020E93D000006
S1133F7093892DE9F341144603F40052804610B2AC
S1133F800E4630B9676E43F4005147F40053A181E3
S1133F90636600F029FB012806D12EB1FF2E03D859
S1133FA08DF8046007460FE03246404601A904F14B
S1133FB05C0301F013F8421C074605D1A28942F0C4
S1133FC04000A081384631E00025BD422AD0A168D6
S1133FD04A1E002AA26001AB1ADAA06982420CDBF5
S1133FE021685A5D0A70236819780A2903D00133BD
S1133FF00022236013E0404601E0595D404622461A
S113400000F092FFB0F1FF31484250EB010206E0AC
S11340102068595D01702268531C236000E01AB9BE
S11340200135D2E7304601E04FF0FF30BDE8FC81B6
S1134030F8B5084C074620680E4618B1856B0DB9D3
S1134040FFF71AFF206839463246BDE8F840FFF70B
S11340508FBF00BF40000020F8B5234D0E46044634
S113406000F08FFDAB685F6827F0030707F6EF7079
S1134070811B21F47F6222F00F06A6F58056B6F567
S1134080805F04DA204600F07DFD0020F8BD0021A9
S1134090204600F0E7FEAB68D9198842F2D171429C
S11340A0204600F0DFFE013010D10021204600F050
S11340B0D9FEAB68C21A0F2AE4DD0C490968401A1C
S11340C00B4942F0010208605A60DBE7084BA8681C
S11340D01A68BF1B47F001074760961B20461E6005
S11340E000F050FD0120F8BDEC040020F40800208D
S11340F098090020F8B506460D46002900F0A68070
S113410000F03FFD55F804CC514FA5F108032CF005
S113411001029C18B96860688C4220F003000CF01E
S113412001011CD1821839B955F8081C5B1A5218C0
S11341309868D968C1608860454842F001015960B7
S11341408360444B19688A4204D3434A3046116859
S1134150FFF782FF3046BDE8F84000F013BD606011
S113416059B955F8085C5B1B52199D680837BD4264
S113417005D0DF68EF60BD6002E0002100E00121AE
S113418025186D6815F0010F0FD1121849B9A068F0
S1134190324DA84205D1EB60AB60D8609860012134
S11341A003E0E068A468E060846042F001005860C5
S11341B09A500029CED1B2F5007F0CD22449D208FE
S11341C09010012404FA00F448682043486001EB8D
S11341D0C200816835E0540A042C02D894093834AA
S11341E016E0142C01D85B3412E0542C02D8140BC2
S11341F06E340DE0B4F5AA7F02D8D40B773407E00F
S113420040F25455AC4202D8940C7C3400E07E2435
S11342100F4D05EBC400816881420CD1686801220E
S1134220A41002FA04F444EA00026A60084608E0B2
S11342308968814204D04C6824F00304A242F7D375
S1134240C868D86099608360CB6083E7F8BD00BF1D
S1134250EC040020F808002094090020F404002055
S113426093682DE9F74F06460C4691460BB900209A
S11342704FE1888900F008010AB20AB123695BB9E9
S113428030462146FFF798FC30B1A189092241F05C
S11342904000A08132603AE1B4F80CA0D9F8008063
S11342A00AF0020C0FFA8CF515B34FF0000A5746CA
S11342B037B9D8F800A0D8F8047008F10808F7E76F
S11342C0B7F5806F34BF3B464FF480633046E169F5
S11342D0656A5246A847002840F31581D9F80810AA
S11342E082443F1A081AC9F808000028E0D1BEE742
S11342F01AF0010A04D0AB4601952F46AA46C7E03E
S1134300554635B9D8F800A0D8F8045008F1080883
S1134310F7E7A289D4F808B002F4007003B2002BC6
S113432052D05D4540D312F4906F3BD02169276889
S113433063694FF0030B0BFB03F302207F1A93FB1B
S1134340F0FC7B1C581902F48062844528BF604647
S113435013B2019030467BB1019900F0DFF9834636
S113436098B121693A4600F0E9FBA18921F49060F3
S113437040F08002A2810BE0019A00F005FC834624
S113438030B930462169FFF7B5FE0C233360BAE03B
S11343900199C4F810B00BEB0703CF1B23606161D4
S11343A0AB46A7605D4500D2AB465A4651462068ED
S11343B000F0CDFBA0682368CBEB000203EB0B01FC
S11343C0A2602160AB462AE02068216988420FD9A7
S11343D05D450DD951465A4600F0B9FB226802EBFF
S11343E00B00206021463046FFF752FCB8B18AE04A
S11343F063699D4208D3676AE16930465246B8470B
S1134400B0F1000B0BDC7EE051462A4600F09FFB26
S1134410A2682368501B5919AB46A0602160D9F8E3
S11344200800CBEB0002DA44CBEB0505C9F8082001
S1134430002A7FF466AF1AE70198002832D020687A
S11344402169A568D4F814E0D34534BF5B465346CC
S1134450884237D97544AB4234DD39462A4600F0E8
S113446076FB20684319236030462146FFF710FC91
S1134470002848D1BBEB050B3DD0D9F808207F19A3
S1134480C5EB0A0A551BC9F80850002D3FF4EFAEDE
S1134490BAF1000FD0D1002198E88004019108F10D
S11344A00808F5E738460A21524600F039FB20B1E6
S11344B000F10101C7EB010B01E00AF1010B01223C
S11344C00192BCE7734508DB656AE16930463A4608
S11344D07346A847051ECDDC15E01A4639460093FD
S11344E000F035FB009B2568A068E918C21AA26099
S11344F021601D46BEE730462146FFF7C9FB10B9CF
S1134500CDF804B0B9E7A28942F04003A3814FF08B
S1134510FF30BDE8FE8F2DE9F04104468846FFF7E1
S11345200FFD04F5387400268CB1A5686768013F57
S11345300BD4B5F90C3033B1B5F90E00431C02D0DD
S11345402846C04706436835F1E72468ECE7FFF7DF
S1134550F8FC3046BDE8F0812DE9F84380468946F1
S1134560FFF7EEFC08F53874002694B1A568676877
S1134570013F0CD4B5F90C303BB1B5F90E00431C26
S113458003D040462946C84706436835F0E7246807
S1134590EBE7FFF7D6FC3046BDE8F88310B51446C8
S11345A00AB90C4810BD10460B4900F0B2FC0028B3
S11345B0F7D02046074900F0ACFC0028F1D0204693
S11345C0064900F0A6FC034B00280CBF1846002047
S11345D010BD00BF2058000066580000235800009A
S11345E00048704770040020014B186A704700BFF0
S11345F07004002000487047940400200020704795
S113460000487047B40400200A460349034608687A
S11346101946FFF7C3BF00BF4000002000487047A1
S1134620B4040020F0B58B890C4603F002010AB2F1
S113463091B00646002A3FD1B4F90E1000290DDAD4
S1134640A78907F0800247F4006310B200280CBF6A
S11346504FF480654025A381002720E001AA00F0E3
S11346607FFD0028ECDB029800F47045B5F500539B
S11346705F425F41B5F5004F0BD1A16A1D4A9142DB
S113468007D1A3894FF4806543F48061A181E56477
S113469005E0A08940F40065A5814FF480653046AB
S11346A0294600F03BF870B9A38903F4007210B2F4
S11346B0E8B943F00201A18104F14303012223601C
S11346C02361626113E0A2890B4942F08003F16324
S11346D0A3812060206165614FB13046B4F90E10AA
S11346E000F050FD18B1A08940F00101A18111B082
S11346F0F0BD00BFE74E0000ED3D0000024B014657
S1134700186800F00BB800BF40000020024B0146BF
S11347101868FFF7EFBC00BF400000202DE9F04708
S113472001F10B04162C064603D934F0070401D515
S113473002E010248C4202D20C253560D9E13046C7
S113474000F01FFAB4F5FC7F14D2A04DE10805EB8C
S1134750C100C568854205D105F108036D698A1C4D
S11347609D4244D0E868A9686A68C86022F00303DF
S1134770816059E0620A01D1E2081BE0042A02D8F0
S1134780A209383216E0142A01D85B3212E0542A06
S113479002D8220B6E320DE0B2F5AA7F02D8E20BEA
S11347A0773207E040F254539A4202D8A20C7C328A
S11347B000E07E22854800EBC203DD689D4215D0EF
S11347C0696821F00301081B0F2801DD013A0DE09F
S11347D0002809DBEB68AA68D3609A606B185A68F2
S11347E042F00100586090E1ED68E7E70132774953
S11347F00D6901F10807BD4268D0686820F0030321
S1134800181B0F280CDD2B194B610B6144F00104BC
S113481040F001016C60DF609F605960185074E1E2
S113482000284F610F6101DBEB18D8E7B3F5007F77
S11348300FD2DB089810012707FA00F748680743EE
S11348404F6001EBC301E9608B68AB60DD608D6094
S11348503CE0580A042802D89809383016E0142895
S113486001D85B3012E0542802D8180B6E300DE0EA
S1134870B0F5AA7F02D8D80B773007E040F254573E
S1134880B84202D8980C7C3000E07E20DFF83CE18E
S11348900EEBC007B968B9420ED18710012303FAA1
S11348A007F0DEF8047040EA0703CEF80430084647
S11348B008E08968B94204D0486820F003008342C4
S11348C0F7D3C868E860A960CD6085603F4F951054
S11348D00120796800FA05F38B425DD80B4205D1BB
S11348E022F003025B0004320B42FBD0374D05EB90
S11348F0C20E77461046FD68BD422DD0696821F08E
S1134900030CC4EB0C010F2913DD2B1944F0010433
S1134910EA686C6055F8080F5950C26090602B4AE1
S113492041F00100536113610832DA609A60586003
S11349300CE000290EDB05EB0C00E968426842F04C
S11349400103436055F8080FC1608860304600F0E9
S113495019F9DEE0ED68CFE70130810705F10807BA
S1134960C9D17146950705D1184A556825EA03054A
S1134970556005E0A1F108070968013AB942F1D090
S1134980124F7F685B00BB4206D82BB102463B4204
S1134990ACD104325B00FAE70C4B9F68786820F0D6
S11349A00309A145194604D3C4EB09000F2800F3F9
S11349B0A280074AD1F808341568013307EB090AC5
S11349C004EB050806D108F110080BE0EC04002004
S11349D09409002008F5805000F10F0121F47F6252
S11349E022F00F083046414600F03CFA421C0546CE
S11349F071D0504502D2484B9F426CD14748464A39
S1134A004168554508EB0103436007D1290505D1E9
S1134A109568C84448F00100686051E0D2F8080481
S1134A20421C03D13C4AC2F8085405E0CAEB050A0B
S1134A3003EB0A01394B596015F007001CBFC0F1A4
S1134A4008002D1805EB080C00F580514FEA0C5EA8
S1134A50A1EB1E584146304600F004FA2F4A431C8D
S1134A60536808BF4FF0000808EB030108BF28464D
S1134A705160401B284A00EB080343F001019742B0
S1134A80956069601CD0B9F10F0F02D801226A60E9
S1134A9021E07D68A9F10C0929F0070907EB090356
S1134AA005F00102052149EA0200B9F10F0F78600F
S1134AB05960996004D9304607F10801FFF71AFBE1
S1134AC0164A5368D16A156B8B4288BFD362AB42D6
S1134AD084BF124D2B6310488268536823F003018E
S1134AE0A142C4EB010001D30F2804DC304600F0DE
S1134AF049F800250DE0084A956844F001032C1993
S1134B0040F001016B6094606160304600F03AF857
S1134B1008352846BDE8F087EC04002094090020FD
S1134B2010B5C9B2034682189342184604D00478DB
S1134B3001338C42F8D100E0002010BD10B50023F1
S1134B40934203D0CC5CC4540133F9E710BD8142D5
S1134B5070B50ED28C18A0420BD28518134613F1EF
S1134B60FF3305D3514266186918F65CCE54F6E754
S1134B7070BD0023934203D0CC5CC4540133F9E7E5
S1134B8070BD7047704700002DE9F84F8146164606
S1134B900C4621B91146BDE8F84FFFF7BFBDFFF73A
S1134BA0F0FF06F10B0754F8045C162FA4F1080B70
S1134BB025F0030803D937F0070701D502E01027D1
S1134BC0B74204D20C20C9F80000002645E1B845DC
S1134BD080F21A81A24A91680BEB08038B4206D03B
S1134BE0586820F0010298184268D00726D45A6801
S1134BF08B4222F0030000EB080A18D107F11002DF
S1134C0092451DDB0BEB0705C7EB0A0A4AF00101CD
S1134C10696054F8042C924E02F001031F43B560FE
S1134C2044F8047C4846FFF7ADFF264615E1BA4533
S1134C3006DBDD689E68F560AE60E6E000200346B2
S1134C40EA0700F1918054F8085CC5EB0B056A682B
S1134C5022F00302002B51D002EB080A8B4282445B
S1134C6045D107F110039A4548DB2E46E96856F80A
S1134C70083FA8F10402242AD9608B6025D8132A9E
S1134C801BD92168A96063681B2AEB6003D805F16E
S1134C901000083412E0A0682861E168242A6961E0
S1134CA003D005F11800103408E02269AA61636991
S1134CB005F12000EB61183400E030462168016002
S1134CC062684260A368836003E030462146FFF7D0
S1134CD03EFFE819C7EB0A0A4AF0010242606B681A
S1134CE05F49886003F0010007436F6088E0BA45BC
S1134CF004DBD9689868C160886003E002EB080AA5
S1134D00BA4531DB2846EB6850F8081FA8F10402C5
S1134D10242ACB60996023D8132A1AD92068A86062
S1134D2066681B2AEE6003D805F11000083410E011
S1134D30A3682B61E168242A696103D005F1180096
S1134D40103406E02269AA6160691834E86105F14B
S1134D5020002668066063684360A168816055E0AE
S1134D602146FFF7F4FE51E031464846FFF7D6FCF2
S1134D700646002844D054F8041C21F00103A0F195
S1134D8008020BEB03018A4206D150F8046C26F0AA
S1134D90030505EB080A38E0A8F10402242A28D800
S1134DA0132A1ED92368036061681B2A416004D852
S1134DB000F1080004F1080214E0A068B060E368A0
S1134DC0242AF36004D006F1100004F1100209E073
S1134DD022693261616906F11800716104F11802F7
S1134DE000E0224613680360516841609268826063
S1134DF002E02146FFF7ABFE48462146FFF77AF969
S1134E004846FFF7BFFE28E0C2465D46C7EB0A00EE
S1134E100F286A6811D9E91902F00106374340F0F6
S1134E20010308186F604B60426842F00106466057
S1134E3008314846FFF75EF90AE002F0010605EB87
S1134E400A014AEA06036B60486840F001024A60BE
S1134E504846FFF797FE05F108063046BDE8F88F8F
S1134E60EC04002038B5064C0023054608462360B0
S1134E70FEF77AF8431C02D1216801B1296038BDDC
S1134E80700A002010B50C46B1F90E1000F09CF920
S1134E90002803DB226D1318236510BDA38923F4B6
S1134EA08051A18110BD002070472DE9F0411D46BD
S1134EB08B890C4603F4807116460AB207462AB160
S1134EC0B4F90E100022022300F06CF9A089B4F9A1
S1134ED00E1020F48053A381384632462B46BDE899
S1134EE0F04100F0D1B810B50C46B1F90E1000F045
S1134EF059F9431CA38903D123F48052A28110BD24
S1134F0043F48051A181206510BDB1F90E1000F069
S1134F10CDB810F8012B11F8013B012A28BF9A42A1
S1134F20F7D0A2EB0300704770B50D461446064651
S1134F3018B1836B0BB9FEF79FFFA189A06901F03B
S1134F40080213B2A0600BB1206958B9304621465B
S1134F50FEF732FE30B1A589092045F04001A18158
S1134F60306017E0A18901F4005213B2EDB233B9F5
S1134F7041F40050616EA08121F400526266206801
S1134F8023696169C01A884207DB30462146FEF76F
S1134F907FFE10B14FF0FF3515E0A2682168531E63
S1134FA0A36001F8015B626921600130904204D082
S1134FB0A389DB0707D50A2D05D130462146FEF724
S1134FC067FE0028E6D1284670BD0A46024903461A
S1134FD008681946FFF7A8BF400000202DE9F041FA
S1134FE01D46104B86B0044690460E461F6839B9DC
S1134FF0FFF7F6FA0095034603A92046324606E079
S1135000FFF7EEFA00950346314620464246B8477C
S1135010431C03D100218A222960226006B0BDE826
S1135020F08100BFFC08002030B51346044A054651
S11350300C46106829462246BDE83040FFF7CEBF33
S11350404000002049B1FF2A04D98A2303604FF0AD
S1135050FF3070470A7001207047084670472DE9F9
S1135060F3419846074B05460F4616461C68FFF762
S1135070B7FACDF800800346394628463246A047A1
S1135080BDE8FC81FC08002038B5074C054600202B
S11350902060084611461A46FBF70EF9431C02D15C
S11350A0236803B12B6038BD700A002038B5064C64
S11350B00023054608462360FDF76EFF431C02D11A
S11350C0216801B1296038BD700A002070B5054619
S11350D00C46002939D0FEF733FF25B1AB6B13B969
S11350E02846FEF7C9FEB4F90C605EB32846214693
S11350F0FEF7CEFDE26A06463AB12846E1699047DA
S113510036EA200628BF4FF0FF36A08900F0800160
S11351100BB21BB128462169FEF7ECFF216B41B1AC
S113512004F14002914202D02846FEF7E3FF00203A
S11351302063616C21B12846FEF7DCFF0021616425
S11351400023A381FEF7FDFE00E00E46304670BD4D
S1135150024B01461868FFF7B9BF00BF40000020AA
S113516038B5074C00230546084611462360FDF771
S113517017FF431C02D1216801B1296038BD00BF6B
S1135180700A002038B5064C002305460846236003
S1135190FDF70CFF431C02D1216801B1296038BD21
S11351A0700A002038B5074C0546002020600846E8
S11351B011461A46FDF7FEFE431C02D1236803B1D3
S11351C02B6038BD700A002038B5074C0546002016
S11351D02060084611461A46FBF72AF8431C02D100
S11351E0236803B12B6038BD700A00204BB942B963
S11351F0002908BF002802D04FF0FF31084600F014
S113520037B882B0EC462DE9005000F01BF8DDF809
S113521004E002B00CBC7047F8B5164604460D46CF
S11352201F4600F027F806FB01F300FB0737A6FB37
S11352300023FB18A21A65EB0303069CC4E90023B0
S1135240F8BD00BFF8B5164604460D461F4600F0EB
S11352506FF900FB07F7A0FB062306FB0177FB1899
S1135260A21A65EB0303069CC4E90023F8BD00BF42
S1135270704700BF00292DE9F00F1D46C0F29D8044
S11352800024002DC0F2948080460F4694461E46AA
S1135290E3BB8A4255D9B2FA82F747B1C7F1200578
S11352A020FA05F601FA07F1BA403143B840170C69
S11352B0B1FBF7F6030C1FFA82FC07FB16110CFB7B
S11352C006F543EA01439D4208D9711E9B1880F0FC
S11352D013819D4240F21081023E9B18591BB1FB81
S11352E0F7F507FB151380B20CFB05FC40EA0341FC
S11352F08C4507D96B1E8A1880F00081944540F2D2
S1135300FD80023D45EA0641002503E08B420CD9AD
S1135310002529460A462B4614B1524263EB430347
S113532010461946BDE8F00F7047B3FA83F5002D17
S113533040F087808B4201D38242EAD800250121C4
S1135340E8E712B90126B6FBF2F2B2FA82F6002EB1
S113535039D18E1A130C1FFA82FC0125B6FBF3F720
S113536003FB17614FEA10490CFB07F849EA0146B1
S1135370B04506D9791EB61802D2B04500F2D380E2
S11353800F46C8EB0606B6FBF3F103FB116380B2CC
S11353900CFB01FC40EA03439C4506D94E1E9A18B7
S11353A002D2944500F2C280314641EA0741B1E796
S11353B0E443524263EB430366E7404261EB41013D
S11353C04FF0FF345DE7B240C6F1200921FA09F736
S11353D020FA09F5130C01FA06F1B7FBF3F845EAD4
S11353E001091FFA82FC03FB18774FEA19410CFBF1
S11353F008F541EA0747B040BD420AD9BF1808F191
S1135400FF3680F08E80BD4240F28B80A8F1020806
S1135410BF18791BB1FBF3F503FB15171FFA89F9C4
S11354200CFB05F649EA07418E4206D96F1E89181E
S113543071D28E426FD9023D89188E1B45EA084508
S11354408CE7C5F1200122FA01F306FA05F61E43A2
S113545027FA01F24FEA164907FA05F720FA01F193
S1135460B2FBF9F80F433B0C1FFA86FA09FB18222A
S11354700AFB08FB43EA024293450CFA05FC08D9EF
S1135480921908F1FF314AD2934548D9A8F102088C
S11354909219CBEB0203B3FBF9F109FB1132BFB252
S11354A00AFB01FA47EA02439A4506D94A1E9B19A8
S11354B033D29A4531D902399B1941EA08410F0C7C
S11354C01FFA8CF808FB07F68AB24FEA1C4C08FB5B
S11354D002F80CFB026202EB18420CFB07FC96423A
S11354E088BF0CF5803CCAEB03030CEB124C6345FC
S11354F00ED305D000250DE70E46EFE61D4601E765
S11355001FFA88F800FA05F008EB0245A842F1D228
S113551001390025FEE63D468FE71146CDE7884672
S1135520B7E7B04675E7023FB6182AE702393CE709
S11355302DE9F007144605460E46002B3DD18A425C
S113554049D9B2FA82F747B1C7F1200120FA01F232
S113555006FA07F6BC401643BD40220CB6FBF2F037
S11355602F0CA1B202FB106601FB00F347EA0646CA
S1135570B34208D9471E361980F0F880B34240F28E
S1135580F58002383619F61AB6FBF2F302FB136201
S1135590ADB201FB03F145EA0242914207D95E1E16
S11355A0121980F0E580914240F2E280023B43EA26
S11355B000400021BDE8F00770478B4243D8B3FA9E
S11355C083F4002C42D18B4202D3824200F2DF806A
S11355D000210120EEE712B90127B7FBF2F4B4FA77
S11355E084F2002A40F088800A1B230CA7B2012110
S11355F0B2FBF3F603FB16224FEA154C07FB06F049
S11356004CEA0242904207D9121906F1FF3C02D239
S1135610904200F2CE806646121AB2FBF3F003FB0E
S11356201023ADB207FB00F745EA03439F4207D9B5
S1135630421E1B1980F09E809F4240F29B800238DC
S113564040EA0640B6E700210846B3E7C4F1200665
S113565022FA06F503FA04F32B434FEA134C21FA1A
S113566006F501FA04F120FA06F6B5FBFCF746EA62
S1135670010A1FFA83F80CFB17554FEA1A4108FB7D
S113568007F941EA0545A94502FA04F203D97E1E49
S1135690ED187FD33746C9EB0501B1FBFCF60CFBD3
S11356A016151FFA8AFA08FB06F84AEA05418845E6
S11356B003D9751EC91873D32E4646EA0746370C1C
S11356C01FFA82FC0CFB07F5120CB3B20CFB03FCB3
S11356D002FB035303EB1C4302FB07F29D4288BF0A
S11356E002F58032C8EB010102EB134291424BD325
S11356F042D0304600215DE79440C2F1200521FAF2
S113570005F6230C20FA05F701FA02F1B6FBF3FCC7
S113571039430D0CA7B203FB1C6645EA064607FB9A
S11357200CF8B04500FA02F508D936190CF1FF302F
S11357303DD2B0453BD9ACF1020C3619C8EB060298
S1135740B2FBF3F003FB10268AB242EA064207FBDF
S113575000F1914206D9461E121926D2914224D94B
S113576002381219521A40EA0C4141E738460AE756
S113577033461CE7104663E71FFA8CFC00FA04F07A
S11357800CEB03439842B4D2701E002112E7214669
S113579020460FE7A9457FF67DAF023FED187AE773
S11357A0884589D9023EC91887E73046DAE7844636
S11357B0C4E7023E12192FE753414D344C2054578D
S11357C0494D204D6173746572204578616D706C2C
S11357D0650000000A0D0A43616D65726120417025
S11357E0700A0D005374617274205363616E2E2E1F
S11357F02E0A0D00416464723A2025303278200963
S1135800504153530D0A0000416464723A2530320A
S113581078094641494C45440D0A000048000020DF
S113582043000A00202020202020202020202020A7
S113583020202020303030303030303030303030A4
S11358403030303030313233343536373839414204
S113585043444546003031323334353637383961C4
S1135860626364656600504F534958002E0000007F
S1135870F8B500BFF8BC08BC9E467047713C0000F8
S1135880F9010000F8B500BFF8BC08BC9E4670479B
S1075890D10100003E
S10B5894E0F9FF7F01000000B0
S113589C4FF00003C4F20F034FF01C02CAF60022AF
S11358AC9A61C1614FF00001C4F20F014EF2100273
S11358BCCEF200024869136803F4803310F001003F
S11358CC01D1002BF6D0704701000000912B000091
S11358DC48000020000000000000000034030020F9
S11358EC9C030020040400200000000000000000C1
S11358FC0000000000000000000000000000000098
S113590C000000000000000000000000205800000F
S113591C0000000000000000000000000000000077
S113592C0000000000000000000000000000000067
S113593C0000000000000000000000000000000057
S113594C0000000000000000000000000000000047
S113595C0000000000000000000000000000000037
S113596C0000000000000000000000000000000027
S113597C0000000000000000000000000000000017
S113598C01000000000000000E33CDAB34126DE6B4
S113599CECDE05000B00000000000000000000001D
S11359AC00000000000000000000000000000000E7
S11359BC00000000000000000000000000000000D7
S11359CC00000000000000000000000000000000C7
S11359DC00000000000000000000000000000000B7
S1135D0C415343494900000000000000000000001A
S1135D1C0000000000000000000000000000000073
S1135D2C01000000415343494900000000000000F9
S1135D3C0000000000000000000000000000000053
S1135D4C000000006C580000235800002358000089
S1135D5C2358000023580000235800002358000047
S1135D6C235800002358000023580000FFFFFFFFB6
S1135D7CFFFFFFFFFFFFFFFFFFFF0000000000001D
S1135D8C00000000EC040020EC040020F4040020CB
S1135D9CF4040020FC040020FC0400200405002072
S1135DAC040500200C0500200C050020140500201F
S1135DBC140500201C0500201C05002024050020CF
S1135DCC240500202C0500202C050020340500207F
S1135DDC340500203C0500203C050020440500202F
S1135DEC440500204C0500204C05002054050020DF
S1135DFC540500205C0500205C050020640500208F
S1135E0C640500206C0500206C050020740500203E
S1135E1C740500207C0500207C05002084050020EE
S1135E2C840500208C0500208C050020940500209E
S1135E3C940500209C0500209C050020A40500204E
S1135E4CA4050020AC050020AC050020B4050020FE
S1135E5CB4050020BC050020BC050020C4050020AE
S1135E6CC4050020CC050020CC050020D40500205E
S1135E7CD4050020DC050020DC050020E40500200E
S1135E8CE4050020EC050020EC050020F4050020BE
S1135E9CF4050020FC050020FC050020040600206D
S1135EAC040600200C0600200C060020140600201A
S1135EBC140600201C0600201C06002024060020CA
S1135ECC240600202C0600202C060020340600207A
S1135EDC340600203C0600203C060020440600202A
S1135EEC440600204C0600204C06002054060020DA
S1135EFC540600205C0600205C060020640600208A
S1135F0C640600206C0600206C0600207406002039
S1135F1C740600207C0600207C06002084060020E9
S1135F2C840600208C0600208C0600209406002099
S1135F3C940600209C0600209C060020A406002049
S1135F4CA4060020AC060020AC060020B4060020F9
S1135F5CB4060020BC060020BC060020C4060020A9
S1135F6CC4060020CC060020CC060020D406002059
S1135F7CD4060020DC060020DC060020E406002009
S1135F8CE4060020EC060020EC060020F4060020B9
S1135F9CF4060020FC060020FC0600200407002068
S1135FAC040700200C0700200C0700201407002015
S1135FBC140700201C0700201C07002024070020C5
S1135FCC240700202C0700202C0700203407002075
S1135FDC340700203C0700203C0700204407002025
S1135FEC440700204C0700204C07002054070020D5
S1135FFC540700205C0700205C0700206407002085
