S027000054435F54435F434150545552455F57415645464F524D5F4558414D504C45342E7372656398
S113000088190020451E0000411E0000411E00000A
S1130010411E0000411E0000411E000000000000BF
S1130020000000000000000000000000411E00006D
S1130030411E000000000000411E0000411E00009F
S1130040411E0000411E0000411E0000411E000030
S1130050411E0000411E0000411E0000411E000020
S1130060411E0000411E0000411E0000411E000010
S1130070411E0000411E0000411E0000411E000000
S1130080411E0000411E0000411E0000411E0000F0
S1130090411E0000411E0000411E0000411E0000E0
S11300A0411E0000411E0000411E0000411E0000D0
S11300B0411E0000411E0000411E0000411E0000C0
S11300C0411E0000411E0000411E0000411E0000B0
S11300D0411E0000411E0000411E0000411E0000A0
S11300E0411E0000411E0000411E0000411E000090
S11300F0411E0000411E0000411E0000411E000080
S1130100411E0000411E0000411E0000411E00006F
S1130110411E0000411E0000411E0000411E00005F
S1130120411E0000411E0000411E0000411E00004F
S1130130411E0000411E0000411E0000411E00003F
S1130140411E0000411E0000411E0000411E00002F
S1130150411E0000411E0000411E0000411E00001F
S1130160411E0000411E0000411E0000411E00000F
S1130170411E0000411E0000411E0000411E0000FF
S113018008B50548054B191A062900D808BD044AC4
S1130190002AFBD09047F9E7BC630000BF6300006E
S11301A00000000008B50748074B191A8A1002EB33
S11301B0D273591000D108BD044A002AFBD09047DD
S11301C0F9E700BFBC630000BC630000000000004E
S11301D010B5064C237843B9FFF7D2FF044810B199
S11301E00448AFF300800121217010BD18090020DC
S11301F000000000BC63000008B5084B1BB10848B0
S11302000849AFF300800848016811B1074A02B1F8
S11302109047BDE80840FFF7C5BF00BF00000000DD
S1130220BC6300001C090020BC6300000000000047
S1130230EFF3108172B6BFF35F8F40F24403C2F252
S113024000034FF000021A704FF40060C4F20E0075
S11302504FF02003CAF60023836140F20732C0F254
S11302600102026249B940F24401C2F200014FF0B6
S113027001000870BFF35F8F62B6704730B4EFF3CC
S1130280108472B6BFF35F8F40F24403C2F20003DE
S11302904FF000021A704FF02003C4F20E0353F81B
S11302A020204FF0010505FA01F1114300F1080285
S11302B04FEA02654FEA955242F02A454FF0000298
S11302C0C4F20E02956543F820104CB940F2440084
S11302D0C2F200004FF001030370BFF35F8F62B6F8
S11302E030BC704730B4EFF3108472B6BFF35F8F45
S11302F040F24403C2F200034FF000021A704FF0C0
S11303002003C4F20E0353F820204FF0010505FA30
S113031001F122EA010100F108024FEA02654FEA05
S1130320955242F02A454FF00002C4F20E02956540
S113033043F820104CB940F24400C2F200004FF0E0
S113034001030370BFF35F8F62B630BC704700BF18
S113035038B50446EFF3108572B6BFF35F8F40F2F1
S11303604403C2F200034FF000021A701046C4F2B4
S11303700E00816A41B94FF001004FF0050140F2CF
S11303807D23C0F2000398474DB940F24400C2F205
S113039000004FF001020270BFF35F8F62B64FF0AE
S11303A00200214640F27D23C0F20003984738BD85
S11303B010B501464FF0020040F2E523C0F20003FD
S11303C09847EFF3108472B6BFF35F8F40F2440096
S11303D0C2F200004FF0000202701146C4F20E0196
S11303E08B6A43B94FF001004FF0050140F2E5225A
S11303F0C0F2000290474CB940F24400C2F200003F
S11304004FF001010170BFF35F8F62B610BD00BFF2
S113041038B50446EFF3108572B6BFF35F8F40F230
S11304204403C2F200034FF000021A701046C4F2F3
S11304300E00C16A41B94FF001004FF0060140F2CD
S11304407D23C0F2000398474DB940F24400C2F244
S113045000004FF001020270BFF35F8F62B64FF0ED
S11304600300214640F27D23C0F20003984738BDC3
S113047010B501464FF0030040F2E523C0F200033B
S11304809847EFF3108472B6BFF35F8F40F24400D5
S1130490C2F200004FF0000202701146C4F20E01D5
S11304A0CB6A43B94FF001004FF0060140F2E52258
S11304B0C0F2000290474CB940F24400C2F200007E
S11304C04FF001010170BFF35F8F62B610BD00BF32
S11304D04FF40043C4F20703984200F06F814FF4D5
S11304E00041C4F20701884200F2BB804FF400428D
S11304F0C4F20202904200F061814FF40043C4F25E
S11305000203984251D84FF40041C4F201018842D9
S113051000F054814FF40042C4F20102904220D80A
S11305204FF40043C4F20003984200F047814FF4B3
S11305300041C4F20001884204D8B0F1402F40F0D9
S113054042813BE14FF00002C4F20102904200F00C
S113055035814FF48043C4F20103984240F0338163
S11305602CE14FF44041C4F20101884200F026819D
S11305704FF44042C4F20102904207D84FF40443BE
S1130580C4F20103984240F01E8117E14FF4444144
S1130590C4F20101884200F011814FF48042C4F298
S11305A00202904240F00F8108E14FF00003C4F2D0
S11305B00403984200F002814FF00001C4F20401E8
S11305C0884223D84FF00002C4F20302904200F0A4
S11305D0F5804FF00003C4F20303984207D84FF4A8
S11305E04041C4F20201884240F0ED80E6E04FF45D
S11305F00042C4F20302904200F0E0804FF4404312
S1130600C4F20303984240F0DE80D7E04FF4004187
S1130610C4F20601884200F0D1804FF40042C4F2D3
S1130620060290420ED84FF00003C4F2060398422B
S113063000F0C4804FF48041C4F20601884240F0C7
S1130640C280BBE04FF44042C4F20602904200F084
S1130650B5804FF00003C4F20703984240F0B38022
S1130660ACE04FF00001C4F20E01884200F0A68015
S11306704FF00002C4F20E0290424ED84FF4805361
S1130680C4F20A03984200F099804FF48051C4F2F6
S11306900A01884221D84FF00002C4F208029042B5
S11306A000F08C804FF00003C4F20803984207D88E
S11306B04FF44041C4F20701884240F084807DE059
S11306C04FF00002C4F20A02904277D04FF48063E4
S11306D0C4F20A03984276D170E04FF48041C4F228
S11306E00A0188426AD04FF48042C4F20A0290425E
S11306F006D84FF40053C4F20A03984263D15DE074
S11307004FF4A041C4F20A01884257D04FF4C042CA
S1130710C4F20A02904256D150E04FF00003C4F2F2
S11307200F0398424AD04FF00001C4F20F018842EF
S11307301FD84FF40062C4F20E0290423ED04FF430
S11307400063C4F20E03984206D84FF48061C4F2E9
S11307500E01884237D131E04FF44062C4F20E02F8
S113076090422BD04FF48053C4F20E0398422AD106
S113077024E04FF44061C4F20F0188421ED04FF4CC
S11307804062C4F20F0290420CD84FF48063C4F26A
S11307900F03984212D04FF40061C4F20F01884253
S11307A011D10BE04FF48052C4F20F02904205D0F5
S11307B04FF4A053C4F20F03984204D148F680507A
S11307C0C0F25B0070474FF00000704708B54FF46B
S11307D00043C4F20703984200F07F824FF40041C3
S11307E0C4F20701884200F2BB804FF40042C4F215
S11307F00202904200F0F2814FF40043C4F202037B
S1130800984251D84FF40041C4F20101884200F0EB
S1130810B0814FF40042C4F20102904220D84FF458
S11308200043C4F20003984200F071814FF4004188
S1130830C4F20001884204D8B0F1402F40F0348360
S11308405DE14FF00003C4F20103984200F06781B8
S11308504FF48041C4F20101884240F0258373E1E2
S11308604FF44043C4F20103984200F092814FF4E4
S11308704042C4F20102904207D84FF40441C4F24A
S11308800101884240F010837BE14FF44442C4F2FA
S11308900102904200F085814FF48041C4F20201CC
S11308A0884240F0018384E14FF00002C4F2040264
S11308B0904200F0E2814FF00001C4F2040188424A
S11308C023D84FF00003C4F20303984200F0B08130
S11308D04FF00002C4F20302904207D84FF44041A3
S11308E0C4F20201884240F0DF828CE14FF40042FE
S11308F0C4F20302904200F0B0814FF44041C4F2CC
S11309000301884240F0D082AFE14FF40043C4F2C7
S11309100603984200F0C9814FF40041C4F2060175
S113092088420ED84FF00002C4F20602904200F052
S1130930AC814FF48043C4F20603984240F0B48281
S1130940ABE14FF44043C4F20603984200F0B58192
S11309504FF00001C4F20701884240F0A582B4E1DF
S11309604FF00001C4F20E01884200F032824FF0D1
S11309700003C4F20E0398425BD84FF48052C4F2D1
S11309800A02904200F0E2814FF48051C4F20A015D
S1130990884223D84FF00003C4F20803984200F0C1
S11309A0AC814FF00002C4F20802904207D84FF421
S11309B04041C4F20701884240F0768295E14FF04D
S11309C00002C4F20A02904200F09F814FF4806159
S11309D0C4F20A01884240F06782A6E14FF4A043C2
S11309E0C4F20A03984200F0DB814FF4A041C4F240
S11309F00A0188420ED84FF40052C4F20A0290420F
S1130A0000F0AC814FF48043C4F20A03984240F0F2
S1130A104B82B4E14FF4C041C4F20A01884200F0B1
S1130A20D0814FF00003C4F20B03984240F03C82A3
S1130A305BE04FF00003C4F20F03984200F0FA8128
S1130A404FF00002C4F20F02904223D84FF4006129
S1130A50C4F20E01884200F0D0814FF40063C4F266
S1130A600E03984207D84FF48062C4F20E029042FB
S1130A7040F01A82B7E14FF44061C4F20E0188429B
S1130A8000F0C5814FF48052C4F20E02904240F04F
S1130A900B82C6E14FF44061C4F20F01884200F0BA
S1130AA0E7814FF44062C4F20F0290420ED84FF433
S1130AB08063C4F20F03984200F0C6814FF40061D2
S1130AC0C4F20F01884240F0EF81C7E14FF4805136
S1130AD0C4F20F01884200F0D5814FF4A052C4F251
S1130AE00F02904240F0E081D6E14FF001004FF058
S1130AF0090140F27D22C0F20002904708BD4FF088
S1130B00000040F25132C0F20002904708BD4FF09D
S1130B10010040F25131C0F20001884708BD4FF096
S1130B20020040F25133C0F2000398474FF0000036
S1130B30C4F20E00016C41F055034FF04002CAF6B6
S1130B4000228265036408BD4FF0030040F2513275
S1130B50C0F2000290474FF00000C4F20E00036C94
S1130B6043F055014FF04002CAF600228265016449
S1130B7008BD4FF0040040F25133C0F2000398471F
S1130B8008BD4FF0050040F25133C0F2000398470E
S1130B9008BD4FF0060040F25131C0F20001884711
S1130BA008BD4FF0070040F25132C0F200029047F6
S1130BB008BD4FF0080040F25133C0F200039847DB
S1130BC04FF00000C4F20E00026C42F004014FF03A
S1130BD04003CAF600238365016408BD4FF0090091
S1130BE040F25133C0F2000398474FF00000C4F2C2
S1130BF00E00016C41F004034FF04002CAF60022DB
S1130C008265036408BD4FF00A0040F25133C0F21C
S1130C10000398474FF00000C4F20E00026C42F04B
S1130C2004014FF04003CAF600238365016408BD44
S1130C304FF00B0040F25131C0F2000188474FF0F1
S1130C400000C4F20E00036C43F004014FF04002B4
S1130C50CAF600228265016408BD4FF00C0040F220
S1130C605132C0F20002904708BD4FF00D0040F22F
S1130C705133C0F20003984708BD4FF00E0040F214
S1130C805132C0F20002904708BD4FF00F0040F20D
S1130C905132C0F20002904708BD4FF0100040F2FC
S1130CA05131C0F20001884708BD4FF0110040F2F5
S1130CB05131C0F20001884708BD4FF0120040F2E4
S1130CC05133C0F20003984708BD4FF0130040F2BF
S1130CD05132C0F20002904708BD4FF0150040F2B7
S1130CE05131C0F20001884708BD4FF0160040F2B0
S1130CF05133C0F20003984708BD4FF0170040F28B
S1130D005132C0F20002904708BD4FF00100014685
S1130D1040F27D23C0F2000398474FF0000040F2F8
S1130D201141C0F20001884708BD4FF001004FF0A7
S1130D30020140F27D23C0F2000398474FF0010006
S1130D4040F21142C0F20002904708BD4FF0020089
S1130D5040F21141C0F20001884708BD4FF0010084
S1130D604FF0000140F27D23C0F2000398474FF09A
S1130D70030040F21142C0F20002904708BD4FF058
S1130D8001004FF0040140F27D22C0F200029047BE
S1130D904FF0040040F21141C0F20001884708BD41
S1130DA04FF001004FF0030140F27D23C0F2000335
S1130DB098474FF0050040F21142C0F200029047FC
S1130DC008BD4FF0060040F21141C0F2000188470F
S1130DD008BD4FF004004FF0000140F27D23C0F243
S1130DE00003984708BD4FF004004FF0010140F2A2
S1130DF07D23C0F20003984708BD4FF004004FF074
S1130E00020140F27D23C0F20003984708BD4FF071
S1130E1004004FF0030140F27D22C0F2000290472B
S1130E2008BD4FF00400014640F27D23C0F20003E8
S1130E30984708BD4FF005004FF0000140F27D22B5
S1130E40C0F20002904708BD4FF005004FF00101C9
S1130E5040F27D23C0F20003984708BD4FF005001F
S1130E604FF0020140F27D22C0F20002904708BD1B
S1130E704FF005004FF0030140F27D23C0F2000360
S1130E80984708BD4FF005004FF0040140F27D2261
S1130E90C0F20002904708BD4FF00500014640F241
S1130EA07D23C0F20003984708BD00BF08B54FF486
S1130EB00043C4F20703984200F031824FF400412A
S1130EC0C4F20701884200F2BB804FF40042C4F22E
S1130ED00202904200F0CB814FF40043C4F20203BB
S1130EE0984251D84FF40041C4F20101884200F005
S1130EF096814FF40042C4F20102904220D84FF48C
S1130F000043C4F20003984200F071814FF40041A1
S1130F10C4F20001884204D8B0F1402F40F0F382BB
S1130F205DE14FF00003C4F20103984200F06781D1
S1130F304FF48041C4F20101884240F0E48266E14A
S1130F404FF44042C4F20102904200F078814FF421
S1130F504043C4F20103984207D84FF40441C4F259
S1130F600101884240F0CF8261E14FF44443C4F26E
S1130F700103984200F06B814FF48041C4F20201F6
S1130F80884240F0C0826AE14FF00003C4F20403D7
S1130F90984200F094814FF00001C4F204018842A9
S1130FA023D84FF00002C4F20302904200F06F8194
S1130FB04FF00003C4F20303984207D84FF44041B2
S1130FC0C4F20201884240F09E8258E14FF400438B
S1130FD0C4F20303984200F062814FF44041C4F22A
S1130FE00301884240F08F8261E14FF40042C4F271
S1130FF00602904200F07B814FF40043C4F20603E2
S113100098420ED84FF00001C4F20601884200F065
S11310105E814FF48042C4F20602904240F0738233
S11310205DE14FF44042C4F20602904200F0678151
S11310304FF00003C4F20703984240F0648266E173
S11310404FF00003C4F20E03984200F0DC814FF02D
S11310500001C4F20E0188425BD84FF48052C4F2FE
S11310600A02904200F08C814FF48053C4F20A03C8
S1131070984223D84FF00001C4F20801884200F0DE
S11310805E814FF00002C4F20802904207D84FF488
S11310904043C4F20703984240F0358247E14FF0E1
S11310A00002C4F20A02904200F051814FF48063BE
S11310B0C4F20A03984240F0268250E14FF4A04162
S11310C0C4F20A01884200F085814FF4A043C4F2BF
S11310D00A0398420ED84FF40052C4F20A02904216
S11310E000F056814FF48041C4F20A01884240F076
S11310F00A825EE14FF4C042C4F20A02904200F058
S11311007A814FF00003C4F20B03984240F0FB8154
S11311105BE04FF00003C4F20F03984200F0A48197
S11311204FF00002C4F20F02904223D84FF4006142
S1131130C4F20E01884200F07A814FF40063C4F2D5
S11311400E03984207D84FF48062C4F20E02904214
S113115040F0D98161E14FF44061C4F20E0188424C
S113116000F06F814FF48052C4F20E02904240F0BE
S1131170CA8170E14FF44061C4F20F01884200F06B
S113118091814FF44062C4F20F0290420ED84FF4A2
S11311908063C4F20F03984200F070814FF4006141
S11311A0C4F20F01884240F0AE8171E14FF48051E6
S11311B0C4F20F01884200F07F814FF4A052C4F2C0
S11311C00F02904240F09F8180E14FF001004FF008
S11311D0090140F2E522C0F2000290477EE14FF09F
S11311E0000040F2B132C0F20002904776E14FF0C5
S11311F0010040F2B131C0F2000188476EE14FF0C6
S1131200020040F2B133C0F20003984766E14FF0A8
S1131210030040F2B132C0F2000290475EE14FF0A9
S1131220040040F2B132C0F20002904756E14FF0A0
S1131230050040F2B132C0F2000290474EE14FF097
S1131240060040F2B131C0F20001884746E14FF098
S1131250070040F2B133C0F2000398473EE14FF07B
S1131260080040F2B132C0F20002904736E14FF07C
S1131270090040F2B132C0F2000290472EE14FF073
S11312800A0040F2B132C0F20002904726E14FF06A
S11312900B0040F2B131C0F2000188471EE14FF06B
S11312A00C0040F2B133C0F20003984716E14FF04E
S11312B00D0040F2B132C0F2000290470EE14FF04F
S11312C00E0040F2B131C0F20001884706E14FF050
S11312D00F0040F2B131C0F200018847FEE04FF048
S11312E0100040F2B133C0F200039847F6E04FF02B
S11312F0110040F2B133C0F200039847EEE04FF022
S1131300120040F2B132C0F200029047E6E04FF022
S1131310130040F2B131C0F200018847DEE04FF023
S1131320150040F2B131C0F200018847D6E04FF019
S1131330160040F2B131C0F200018847CEE04FF010
S1131340170040F2B132C0F200029047C6E04FF0FD
S1131350000040F27143C0F200039847BEE04FF032
S113136001004FF0020140F2E522C0F20002904772
S11313704FF0010040F27141C0F200018847ADE036
S11313804FF0020040F27141C0F200018847A5E02D
S11313904FF001004FF0000140F2E523C0F20003DA
S11313A098474FF0030040F27141C0F200018847B2
S11313B094E04FF001004FF0040140F2E523C0F245
S11313C0000398474FF0040040F27142C0F200025B
S11313D0904783E04FF001004FF0030140F2E52312
S11313E0C0F2000398474FF0050040F27142C0F28A
S11313F00002904772E04FF0060040F27141C0F2E3
S1131400000188476AE04FF004004FF0000140F209
S1131410E523C0F20003984760E04FF004004FF06A
S1131420010140F2E523C0F20003984756E04FF073
S113143004004FF0020140F2E523C0F20003984794
S11314404CE04FF004004FF0030140F2E522C0F2FB
S11314500002904742E04FF00400014640F2E523C9
S1131460C0F20003984739E04FF005004FF0000147
S113147040F2E522C0F2000290472FE04FF0050051
S11314804FF0010140F2E523C0F20003984725E044
S11314904FF005004FF0020140F2E522C0F20002D5
S11314A090471BE04FF005004FF0030140F2E523A5
S11314B0C0F20003984711E04FF005004FF004011B
S11314C040F2E522C0F20002904707E04FF0050029
S11314D0014640F2E523C0F2000398474FF00000B4
S11314E0C4F20E00826A12F00B0F0CD14FF000030D
S11314F0C4F20E03196C21F07F004FF04002CAF6CB
S113150000229A65186408BDF0B4049C30B100F15F
S1131510FF3606F0070747F0800001E04FF00000B7
S113152031B101F1FF3505F0070646F0800101E015
S11315304FF0000132B102F1FF3707F0070545F023
S1131540800201E04FF0000233B103F1FF3606F0F0
S1131550070747F0800301E04FF0000334B104F1C2
S1131560FF3404F0070545F0800701E04FF0000761
S1131570EFF3108672B6BFF35F8F40F24404C2F2F9
S113158000044FF0000525702C46C4F20E044FF001
S11315900405CAF60025A56560604FF00C00CAF684
S11315A00020A065E1604FF01001CAF60021A1659A
S11315B022614FF01402CAF60022A26563614FF063
S11315C01803CAF60023A365A7614EB940F244008C
S11315D0C2F200004FF001010170BFF35F8F62B6E9
S11315E0F0BC7047EFF3108272B6BFF35F8F40F226
S11315F04403C2F200034FF0000119700B46C4F219
S11316000E034FF02A41996518604AB940F244002C
S1131610C2F200004FF001020270BFF35F8F62B6A6
S1131620704700BF30B583B04FF48064C4F20A043D
S1131630204640F2CD73C0F2000398474FF00100FA
S1131640A0604FF48062C4F20A02D16811F0010F65
S1131650FBD04FF001030093184619461A4641F295
S11316600955C0F20005A84740F23124C0F2000435
S1131670A0474FF40060C4F20E00436913F0010F59
S1131680FBD048F68050C0F25B004FF001014FF0F0
S1131690000241F60D25C0F20005A8474FF00100F5
S11316A041F2E552C0F2000290474FF00000C4F24C
S11316B00F004FF001014AF68012C0F2030241F616
S11316C0E504C0F20004A0474FF00004C4F20F0484
S11316D041F65D15C0F200052046A84710F0010F41
S11316E0FAD0EFF3108072B6BFF35F8F40F244027A
S11316F0C2F200024FF00001117028B94FF001004E
S11317001070BFF35F8F62B603B030BD2DE9F843AC
S11317100C46904648BB002A2BDD8F1840F68016F5
S1131720C2F2000640F67815C2F200056FEA01091C
S113173007EB090000F0010930682B68984704F1B1
S11317400104BC4219D10DE030682B68214698474A
S113175004F10104214630682A68904704F1010429
S1131760BC42F1D14046BDE8F8834FF0FF30BDE8FC
S1131770F8834FF00000BDE8F883B9F1000FE3D01F
S113178030682A682146904704F10104BC42DBD149
S1131790E8E700BF2DE9F8430D46904600F1FF301D
S11317A0022824D832B340F68016C2F2000640F66E
S11317B07C17C2F200074FF0000402F1FF3909F070
S11317C0010930683B68095D9847A0421ADA14E0C1
S11317D030683B68295D984700280EDB04F101045A
S11317E030683A68295D904700281DDA05E04FF01B
S11317F0FF3404E04FF0000401E04FF0FF342046D2
S1131800BDE8F88304F10104A045F8D0B9F1000F54
S1131810DED030683A68295D90470028EDDB04F19A
S11318200104A045D4D1EAE704F10104A045CFD1D5
S1131830E5E700BF00B587B0684641F62D53C0F216
S11318400003984704A84FF44061C4F20F016A46AC
S113185041F64953C0F20003984704A841F61561C4
S1131860C0F2000188474FF48050C4F20E0040F2E9
S1131870CD72C0F2000290474FF4A050C4F20E00A3
S11318804FF080034364C0F8683143654FF08071C2
S11318908164C0F864114167C0F88810C0F8C810AA
S11318A0C0F808118161816281634FF080628267B0
S11318B0C0F88820C0F8C820C0F80821826182627C
S11318C0826382604FF000638367C0F88830C0F899
S11318D0C830C0F80831836183628363836007B0D2
S11318E000BD00BF2DE9F843C46924F0030545F0A9
S11318F00C03EFF3108672B6BFF35F8F4FF0000551
S113190040F24407C2F200073D704EF21004CEF2DA
S11319100004D4F808802768D4F8049062604FF07B
S11319200502226001F00301194340F20D03C2F2E3
S1131930000398472560C4F80490C4F80880276021
S11319404EB940F24401C2F200014FF001020A70A4
S1131950BFF35F8F62B6BDE8F88300BF406970478C
S11319604FF00003C4F20A03196821F04002002872
S113197014BF4020002010434FF00003C4F20A03B8
S1131980186070474FF00003C4F20A03986800F02F
S11319900100704710B541F68514C0F20004A04759
S11319A00028FCD010BD00BF38B505460C4640F2F7
S11319B04803C2F20003186880474FF00001C4F2E4
S11319C00A014A68002C07DB45F025454FEA042448
S11319D024F07F44254304E022F03F0343F02540F4
S11319E005434FF00001C4F20A014D608A6802F019
S11319F00C0040F63413C2F20003186040F24801B0
S1131A00C2F200010A68904738BD00BF08B500293A
S1131A1056D14AF68003C0F21213984227D94FF4E4
S1131A20A243C0F22523984210D84FF0010041F69A
S1131A306113C0F2000398474FF011004FF0FF31DB
S1131A4041F6A912C0F20002904708BD4FF0010010
S1131A5041F66111C0F2000188474FF010004FF0C9
S1131A60FF3141F6A912C0F20002904708BDB2B19D
S1131A704FF4D851C0F2B701884210D84FF001009A
S1131A8041F66111C0F2000188474FF011004FF098
S1131A90FF3141F6A912C0F20002904708BD4FF091
S1131AA0000041F66112C0F2000290474FF01100AD
S1131AB04FF0FF3141F6A913C0F20003984708BD67
S1131AC04AF68003C0F2121398428CBF0120002012
S1131AD041F66111C0F2000188474FF011004FF048
S1131AE0FF3141F6A912C0F20002904708BD00BFC1
S1131AF010B44FEA811143184FF0020444504FF0E0
S1131B00FF309862196A5A6010BC70474FEA81111D
S1131B104FF005034350704700EB81114A61704751
S1131B2000EB8111CA61704710B44FEA011393426C
S1131B3010D920E0416841F40021416042EA0342A7
S1131B4002624FF0000029E04FF0010026E04FF060
S1131B50010023E04FEAC20404EB5302B2FBF3F3A7
S1131B604FEAD30203F0070302F1FF344FF6FE718C
S1131B708C42E3D9E8E74FEAC1014FEAC20202EB23
S1131B805104B4FBF1F34FEAD30203F0070302F16B
S1131B90FF344FF6FE718C42CCD9D8E710BC7047A5
S1131BA04FF04003036070474FF0880303607047B1
S1131BB04FF01003036070474FF024030360704735
S1131BC04FF48073036070474FF400330360704731
S1131BD04FF4002303607047436913F0020F07D0EA
S1131BE04FEAC1514FEAD152C2614FF00000704731
S1131BF04FF00100704700BF436913F0010F08D094
S1131C0080694FEAC0524FEAD2530B604FF0000094
S1131C1070474FF0010070474FF48243C5F25353AD
S1131C20C0F8E430704700BF10B5044641F61943CC
S1131C30C0F2000398474FF0000060606062A06249
S1131C40204641F6A931C0F200018847204641F6FA
S1131C50B932C0F200029047204641F6C133C0F2C7
S1131C6000039847204641F6D131C0F2000188476D
S1131C70204641F6C932C0F20002904710BD00BFB1
S1131C8070B505460C46164641F62943C0F20003DA
S1131C90984740F63810C2F200004FF0000101608E
S1131CA0CCB128462168324641F62933C0F20003FC
S1131CB0984798B9A268616842EA0103226913430C
S1131CC0E1680B4340F63812C2F2000213606968FF
S1131CD00B436B6070BD4FF0010070BD4FF001000D
S1131CE070BD00BF82B04FF44063C4F20F031968A3
S1131CF011F4003F0CBF692140F26F110191019A68
S1131D004FEAD2030193019901F1FF3201920029B4
S1131D10F9D140F0AA414FF44063C4F20F031960B3
S1131D2040F02A40186002B0704700BF4FF0000333
S1131D30036043604FF01002027243724FF00101DE
S1131D408172C1720373704738B50C461546016041
S1131D504260084640F2CD73C0F200039847206801
S1131D6010F0080F52D1216811F0010F0BD0226836
S1131D7022F0010041F6E543C0F2000398472068D1
S1131D8010F0010FFBD1216811F4803F0BD02268C1
S1131D9022F4803041F6E543C0F2000398472068FE
S1131DA010F4803FFBD169682A6841EA0203287A6B
S1131DB04FEA002101F4F85243EA02006B7A4FEA39
S1131DC0834101F4F8021043AB7A002B14BF802145
S1131DD000210843ED7A002D14BF02220022104393
S1131DE041F6E545C0F20005A847206840F480307C
S1131DF0A847236813F4803FFBD0204640F6AD612A
S1131E00C0F2000188474FF0010038BD4FF00000D8
S1131E1038BD00BF10B50468206820F0010041F609
S1131E20E543C0F200039847216811F0010FFBD18C
S1131E30204640F6AD62C0F20002904710BD00BFDC
S1131E40FEE700BF38B540F20003C2F2000346F2D9
S1131E50BC32C0F200029A4203D039483949814267
S1131E6004D3394B394A9A4225D342E0384D394C90
S1131E70631B23F003054FF0000340F20002C2F29B
S1131E80000246F2BC31C0F2000105F10400C5F3C2
S1131E9080045D589D5003F10403834246D1E0E77A
S1131EA05D589D5003F104035C589C5003F10403F6
S1131EB08342F5D1D5E7284D2849481B20F0030477
S1131EC040F61813C2F20003E2184FF00001501B51
S1131ED0A0F10400C0F3800445F8041F95421ED10C
S1131EE007E005F10403696005F1080559609542AE
S1131EF0F7D140F20005C0F2000525F07F024FF44F
S1131F006D41CEF200018A6042F2F160C0F200003D
S1131F10804742F2E924C0F20004A047FEE7002C07
S1131F20DFD045F8041F9542DBD1E2E7002CB7D09F
S1131F305C589C5003F104038342B1D191E700BF84
S1131F40180900200000002088090020180900203A
S1131F50040000201B09002014090020830900202C
S1131F6040F63C13C2F20003196841B940F63C1331
S1131F70C2F2000341F68812C2F200021A6040F66F
S1131F803C11C2F200010B6818180860184670472B
S1131F904FF0FF30704700BF4FF400534B604FF0D9
S1131FA0000070474FF00100704700BF4FF0000081
S1131FB0704700BFF0B583B004460D464FF00003F0
S1131FC001934FF48040C4F2020084420FD14FF4D5
S1131FD08046C4F2020641F6F937C0F200073046E3
S1131FE001A9B8470028FAD1019929702BE04FF4D0
S1131FF00041C4F202018C420FD14FF40044C4F2F8
S1132000020441F6F936C0F20006204601A9B047A1
S11320100028FAD1019828702AE04FF44042C4F213
S1132020020294420FD14FF44044C4F2020441F638
S1132030F936C0F20006204601A9B0470028FAD1BB
S1132040019B2B7014E04FF00002C4F2030294428F
S11320500ED14FF00004C4F2030441F6F936C0F285
S11320600006204601A9B0470028FAD1019B2B7035
S113207003B0F0BD70B50C464FF48043C4F20203C4
S113208098420FD14FF48045C4F2020541F6D93687
S1132090C0F2000628462146B0470028FAD14FF086
S11320A0010070BD4FF40041C4F2020188420FD117
S11320B04FF40045C4F2020541F6D936C0F20006D9
S11320C028462146B0470028FAD14FF0010070BDE0
S11320D04FF44042C4F2020290420FD14FF4404503
S11320E0C4F2020541F6D936C0F20006284621465C
S11320F0B0470028FAD14FF0010070BD4FF0000343
S1132100C4F2030398420FD14FF00005C4F2030553
S113211041F6D936C0F2000628462146B0470028C9
S1132120FAD14FF0010070BD4FF0000070BD00BF48
S113213038B546F21000C0F2000042F2F173C0F26A
S11321400003984746F24005C0F2000528464FF0C8
S113215000014FF4AF720B4642F23D74C0F200042A
S1132160A04728464FF001014FF4AF724FF014031B
S1132170A04728464FF002014FF4AF724FF01E0300
S1132180A04728464FF003014FF4AF724FF02803E5
S1132190A04728464FF004014FF4AF724FF03203CA
S11321A0A04728464FF005014FF4AF724FF03C03AF
S11321B0A04728464FF006014FF4AF724FF0460394
S11321C0A04728464FF007014FF4AF724FF0500379
S11321D0A04728464FF008014FF4AF724FF05A035E
S11321E0A04746F27400C0F20000A04738BD00BF0B
S11321F070B505464FF48044C4F20104204640F211
S1132200D143C0F20003984747F29131C5F69F517C
S1132210A1FB00164FEA162620464FF00201324673
S113222041F62133C0F200039847C5F1640000FB76
S113223006F648F21F52C5F2EB12A2FB0613204623
S11322404FF002014FEA531241F61933C0F2000372
S1132250984746F21C10C0F200004FF4AF712A46B2
S113226042F23D73C0F20003984770BD70B5054655
S11322704FF48044C4F20104204640F2D143C0F23A
S11322800003984747F29131C5F69F51A1FB001610
S11322904FEA162620464FF00101324641F621331B
S11322A0C0F200039847C5F1640000FB06F648F24B
S11322B01F52C5F2EB12A2FB061320464FF0010198
S11322C04FEA531241F61933C0F20003984746F21D
S11322D01C10C0F200004FF4AF712A4642F23D7365
S11322E0C0F20003984770BD2DE9F04788B041F271
S11322F02563C0F20003984741F63500C0F20000A0
S113230080474FF40044C4F2020440F68011C2F244
S113231000010C6040F67C15C2F2000542F2750221
S1132320C0F200022A6040F67816C2F2000641F6B6
S1132330B577C0F2000737604FF4E13301934FF0F3
S1132340C00002904FF4006103914FF00005049522
S11323500595204640F2CD76C0F20006B0472046EF
S113236040F2D142C0F2000290470246204601A941
S113237041F68147C0F20007B847204641F6A13331
S1132380C0F200039847204641F6B134C0F200047D
S1132390A04740F25007C2F2000738688068294617
S11323A042F64104C0F20004A0473968486829464F
S11323B0A04746F25410C0F2000042F23D75C0F24C
S11323C00005A84746F27810C0F2000046F28011DA
S11323D0C0F20001A84746F29410C0F2000046F291
S11323E0AC11C0F2000146F2B812C0F20002A847D4
S11323F046F2C410C0F200004FF001014FF0020297
S1132400A8474FF4A054C4F20E044FF01002A26780
S1132410C4F88820C4F8C820C4F808216261626244
S1132420A263A2604FF48045C4F201052846B04778
S11324304CF20107C0F2090728464FF002013A4660
S113244041F6F129C0F20009C84728464FF00201BD
S113245041F60D38C0F20008C0474FF00403A367EB
S1132460C4F88830C4F8C830C4F8083163616362C2
S1132470A363A3602846B04728464FF001013A46BB
S1132480C84728464FF00101C04742F23116C0F256
S11324900006B0474FF03C04254646F2FC17C0F254
S11324A0000742F60106C0F2000642F23119C0F2FA
S11324B0000942F2F118C0F2000838460DF11F017C
S11324C0B0479DF81F10A1F1610016287FD8DFE8FE
S11324D000F00E7E7E287E7E7E0C7E7E7E7E7E7E5C
S11324E07E7E7E7E607E7E7E4200C847E5E705F103
S11324F00505ADB2132D03D9642D28BF642501E071
S11325004FF014052846C04744F20E50C0F20300B1
S113251040F20101C2F2000188474FF00000C047B9
S1132520CBE7A5F10505ADB2132D03D9642D28BF62
S1132530642501E04FF014052846C04744F20E50CC
S1132540C0F2030040F20103C2F2000398474FF0C7
S11325500000C047B1E704F10504A4B2132C03D969
S1132560642C28BF642401E04FF01404204642F296
S11325706D2AC0F2000AD04744F20E50C0F20300A4
S113258040F20101C2F2000188474FF00000D04739
S113259093E7A4F10504A4B2132C03D9642C28BF37
S11325A0642401E04FF01404204642F26D2AC0F284
S11325B0000AD04744F20E50C0F2030040F2010278
S11325C0C2F2000290474FF00000D04775E7A1F136
S11325D03000C3B2082B1CD840F64011C2F20001EF
S11325E00B702846C047204642F26D2AC0F2000A0A
S11325F0D04744F20E50C0F2030040F20103C2F28D
S1132600000398474FF00000C0474FF00000D04748
S113261053E746F20020C0F2000042F23D72C0F2DD
S11326200002904749E700BF2DE9F8439846234B41
S11326301C680646D4F848010F46914618B904F5BB
S1132640A670C4F8480141681F2916DD1C4818B952
S11326504FF0FF30BDE8F8834FF4C87002F01EF865
S11326600028F5D0D4F84821002545600260C4F85C
S11326704801C0F88851C0F88C51B6B14468D0F80C
S11326808811012200EB840302FA04F21143022EA2
S1132690C3F88890C0F888111C46C3F8088104D197
S11326A0D0F88C311A43C0F88C2141688B1C4A1C29
S11326B040F8237042600020BDE8F88318620000EF
S11326C09D46000070B5084B084CE01A841003EBDB
S11326D084060025043D1CB172599047013CF9E77A
S11326E0BDE8704003F05EBEB0630000B463000058
S11326F038B50E4D0E4BE81A85100024AC4205D0B7
S11327000B4951F8242090470134F7E703F040FEC9
S11327100849094A541AA5100024AC4205D0054BB7
S113272053F8240080470134F7E738BD9C63000068
S11327309C6300009C630000A46300000FB407B511
S1132740064904AB086853F8042B8168019300F030
S113275031F9BDE80E4004B0704700BF50000020BE
S11327600EB403B503AB816853F8042B019300F056
S113277021F9BDE80C4003B0704700BF821803463E
S1132780934202D003F8011BFAE7704730B50546BF
S113279089B008460C4600F0D1F80121431807918E
S11327A0114903930B68114A059004A80190986895
S11327B00692022202928289049402F400510BB21E
S11327C033B9416E42F4005221F4005382814366CE
S11327D02846A96801AA01F005FD00280CBF0A20BB
S11327E04FF0FF3009B030BD500000201E620000E1
S11327F0024B01461868FFF7C9BF00BF5000002014
S11328000FB407B5064904AB086853F8042B4168B4
S1132810019300F027FDBDE80E4004B0704700BFEF
S1132820500000200EB403B503AB416853F8042BE9
S1132830019300F017FDBDE80C4003B0704700BFE2
S113284000290CBF022200224FF4806300F000B87C
S11328502DE9F0411D46374B044618680E461746CD
S1132860984618B1826B0AB901F06AFA022F5DD852
S1132870002D5BDB2146D8F8000001F06DF9A18939
S113288001F0800300201AB26060A06122B12948DF
S11328902169006801F0F0FBA189022F21F0830374
S11328A0A38112D036BB002D08BF4FF480652846A3
S11328B001F0F4FE0646C8B94FF4806001F0EEFE64
S11328C0064688B94FF0FF3000E00020A18941F0AE
S11328D00203A38104F1430100220123A2602160C9
S11328E021616361BDE8F0814FF48065A28942F003
S11328F08000A081012F05D1A1896A4241F0010322
S1132900A381A2610B48A28901680B4B02F0080065
S113291000B2CB6326602661656148B112F0030FF3
S113292018BF0025A5600020BDE8F0814FF0FF30FE
S1132930BDE8F08150000020B53C0000034613F8C8
S1132940012B002AFBD1181A0138704793682DE92E
S1132950F04781460F4614461BB953601846BDE83C
S1132960F0874B6E9B041ED51568A0680835C8B166
S113297055F8041C55F808AC4FEA91080026464562
S113298009DA48465AF826103A4601F055FA431C2B
S11329900BD00136F3E7A2684FEA8808C8EB0203BC
S11329A0A360E2E701E001F01DFC0021A160616089
S11329B0BDE8F0872DE9F04F8946A9B014461D46BD
S11329C01E46824618B1836B0BB901F0B9F9B9F808
S11329D00C0000F4005211B249B940F40053D9F884
S11329E06400A9F80C3020F40052C9F86420B9F846
S11329F00C1001F0080318B248B1D9F8102032B114
S1132A00B9F80C1001F01A030A2B16D109E050464C
S1132A10494601F035F80028F2D04FF0FF32039216
S1132A20D5E3B9F90E00002807DB50464946224693
S1132A302B4600F0D0FB0390C9E3002218AD0B95A0
S1132A400D920C92019405920392A84601990C46AA
S1132A5011F8013B0BB1252BF9D1019AA51A19D014
S1132A600C990D984B1C88E82400072B00EB0502F9
S1132A700D9208F108080C9309DD504649460BAA4B
S1132A80FFF764FF002840F09A830DF16008039873
S1132A90421903922178002900F08A83002201342C
S1132AA001948DF827204FF0FF3C049217460198BB
S1132AB010F8013B0190632B00F0B38033DC392B19
S1132AC01ADC312B80F291802B2B01D11A46EEE7D0
S1132AD00ADC232B55D02A2B56D0202B40F0F7812B
S1132AE0002A08BF2022E2E72E2B58D0302B79D0C1
S1132AF02D2B40F0EC814FE04F2B00F0DE8007DC03
S1132B00442B40F0E4818DF8272047F0100790E033
S1132B10552B00F01F81582B40F0D981AF4D8DF813
S1132B202720059531E16F2B00F0C98010DC692B5B
S1132B3024D007DC642B21D0682B40F0C88147F0F7
S1132B404007B4E76C2B5FD06E2B40F0C08196E059
S1132B50732B00F0DF8006DC702B00F0CD80712B2E
S1132B6040F0B5815AE0752B00F0F680782B40F0E8
S1132B70AE819B4D8DF82720059506E18DF8272021
S1132B8057E047F0010792E7331D3668002E04969C
S1132B9015DA704204901E4647F0040787E701994E
S1132BA011F8013B2A2B01910BD1D6F800C0331D3B
S1132BB0BCF1000F03DA1E464FF0FF3C77E71E46D8
S1132BC075E74FF0000CA3F13000092807D80199EC
S1132BD00A2303FB0C0C11F8013B0191F3E74CEAC7
S1132BE0EC7C68E747F0800761E701980021303BFF
S1132BF00A2404FB013110F8013BA3F13004092C31
S1132C000190F4D9049156E701990B786C2B02D109
S1132C10481C019002E047F0100748E747F02007FE
S1132C2045E7326800258DF838208DF827500436A2
S1132C3057E1BA0607D5073626F0070505F1080659
S1132C40D5E900450FE017F0100F06F1040101D09B
S1132C50326805E017F0400F326801D014B200E08A
S1132C601446E5170E46002C75F1000280F2BA8076
S1132C702D23644265EB45058DF82730B2E017F04B
S1132C80200F8DF8272006F1040205D0039C356837
S1132C90E0172C60686004E0FB0604D533680399F0
S1132CA019601646D2E63068039C17F0400F06F10F
S1132CB0040614BF04800460C8E647F0100717F048
S1132CC0200008D0F31D23F0070505F10806D5E917
S1132CD0004500207DE017F0100106F1040206D142
S1132CE017F0400003D0348800251646F1E7366813
S1132CF00025344616466CE0394B34680593302180
S1132D007822002547F002078DF828108DF8292035
S1132D1004365DE031460025D1F800B08DF8275027
S1132D200436AC45584611DB62462946CDF800C04E
S1132D3001F026FFDDF800C0002800F0D680CBEBC0
S1132D400004644540F3D3806446D0E0FFF7F6FD09
S1132D500446CCE047F01007BD0607D5F01D20F06F
S1132D60070404F10806D4E900450CE017F0100F3D
S1132D7006F1040303D17C0601D5348801E03568EB
S1132D802C4600251E46012023E0B80607D5F41D75
S1132D9024F0070101F10806D1E900450CE017F021
S1132DA0100F06F1040003D1790601D5348801E03F
S1132DB03668344600250646FA0709D554EA050262
S1132DC006D030228DF828208DF8293047F00207EC
S1132DD0022000218DF8271005E000BF40620000AA
S1132DE0516200000120BCF1000FA8BF27F080074A
S1132DF054EA050102D1BCF1000F58D001281DD0BE
S1132E0002280DF15F0341D004F00702E40844EA0C
S1132E104570E90804460D46303254EA05019B46E4
S1132E201A7003F1FF33EFD1F8075D464AD5302A13
S1132E3048D030229B4605F8012C43E0002D08BF02
S1132E400A2C03D230348DF85F4036E00DF15F0375
S1132E500293204629460A220023CDF800C002F03E
S1132E60F1FD0298DDF808B0303200F80129294656
S1132E7002900A222046002302F0E4FD04460D4697
S1132E8054EA0501DDF800C0E3D11BE004F00F00B3
S1132E90059924090A5C44EA0570290904460D468B
S1132EA09B4603F8012954EA0502EFD10AE038B938
S1132EB0F90705D530208DF85F000DF15F0B01E0B7
S1132EC00DF1600B18ADCBEB050465460FE08DF8F2
S1132ED02720002B00F06C8100258DF838308DF808
S1132EE0275001240DF1380B01E0644605469DF896
S1132EF02730AC42ACBF21462946029113B1029857
S1132F00421C029217F00201069102D0029B981C07
S1132F10029017F0840207923AD10499029BCB1ACB
S1132F20002B35DDA048102BC8F800001ADD0C99E1
S1132F300D9A1020C8F80400481C103207280D927E
S1132F4008F108080C900BDD504649460BAA009383
S1132F50FFF7FCFC009B002840F031810DF1600874
S1132F60103BDFE70D9AC8F80430D1180C9B0D9183
S1132F70581C072808F108080C9009DD50464946FA
S1132F800BAAFFF7E3FC002840F019810DF160085B
S1132F909DF82720D2B10DF12701C8F800100C9933
S1132FA00D980123C8F804304B1C421C072B0D92CA
S1132FB008F108080C9309DD504649460BAAFFF7AF
S1132FC0C5FC002840F0FB800DF160080698C8B1EC
S1132FD00AAAC8F800200C9A0D9B0221C8F8041014
S1132FE0511C981C07290D9008F108080C9109DD63
S1132FF0504649460BAAFFF7A9FC002840F0DF80A1
S11330000DF16008079B802B3AD10498029A831A29
S1133010002B35DD6549102BC8F800101ADD0C9A19
S11330200D981021C8F80410511C103007290D9078
S113303008F108080C910BDD504649460BAA009391
S1133040FFF784FC009B002840F0B9800DF1600874
S1133050103BDFE70C9A0D98C8F80430511CC318D4
S113306007290D9308F108080C9109DD50464946DB
S11330700BAAFFF76BFC002840F0A1800DF160085B
S11330802D1B002D32DD4948102DC8F8000018DD35
S11330900C9A0D98531C10211030072BC8F80410FB
S11330A00D9008F108080C9309DD504649460BAA17
S11330B0FFF74CFC002840F082800DF16008103DC1
S11330C0E1E70C9A0D9BC8F80450511C5D190729BF
S11330D00D9508F108080C9108DD504649460BAAE5
S11330E0FFF734FC00286AD10DF160080C9A0D98A2
S11330F0C8F80440511C04190729C8F800B00D94FD
S113310008F108030C9107DD504649460BAAFFF766
S11331101DFC002853D118AB7A070BD4039B029AE9
S113312004990D988A42ACBF9B185B18039300283E
S113313035D02EE0049C0298241A002CEEDD1A4AA5
S1133140102C1A6014DD0C980D9910225A60421C40
S113315010310833072A0D910C9207DD5046494679
S11331600BAAFFF7F3FB002829D118AB103CE6E7C4
S11331700C995C600D9B481C1C1907280D940C903D
S1133180CCDD504649460BAAFFF7E0FB0028C5D02A
S113319015E0504649460BAAFFF7D8FB78B900253D
S11331A00C950DF1600851E42062000030620000CB
S11331B00D9A22B1504649460BAAFFF7C7FBB9F84E
S11331C00C1001F0400003B2002B7FF426AC0398EE
S11331D029B0BDE8F08F70B50C468989ADF58D6DC9
S11331E021F00205616EADF80C501991E589E16991
S11331F0ADF80E500791656A1AA900910491002157
S1133200099506914FF48065694602950595064631
S1133210FFF7D0FB051E07DB3046694600F09CFC37
S1133220002818BF4FF0FF35BDF80C3003F0400004
S113323002B21AB1A18941F04003A38128461AB011
S11332400DF5806D70BD30B51346054A05460C4634
S1133250106829462246BDE83040FFF7ABBB00BFEB
S1133260500000202DE9F04F0C46D9B08046164698
S11332701D4600F0C9FDA38903F4005210B230B911
S1133280676E43F4005127F40053A18163660796E7
S11332900026059602960496079F17F8012B0797B8
S11332A00992002A00F0AB839F4801688F1897F8B1
S11332B001B00BF0080B5FFA8BF3DBB16768002FEA
S11332C011DD9949236808681A7887187A7802F01A
S11332D00801C8B20028DFD0676801337A1E0136BE
S11332E062602360EAE74046214601F0F4FD0028CD
S11332F0E7D0D1E7252A51D1079A9B469A46079FE2
S113330017F8010B6428079700F0BE8027D84C28D3
S113331069D011D839280BD8302867D225283DD058
S11333202A2854D0002840F0A28000F06EFD5CE30F
S1133330442840F09C80A0E0582863D005D84F284A
S113334040F095804BF0010B56E05B2860D0632879
S113335040F08D804BF0400B4FF000099AE06F284D
S11333604AD00ED8692800F08B8005D868287ED111
S11333704BF0040B079AC2E76C282BD06E2876D149
S113338054E0732841D004D8702870D14BF4087BE2
S113339048E0752834D0782869D133E06768002F75
S11333A00EDD2368079F197817F8012C914240F02D
S11333B0268360680133471E6760236001366BE72C
S11333C04046214601F087FD0028EAD009E34BF08E
S11333D0100BCFE753786C2B02D10232079202E034
S11333E04BF0010BC6E74BF0020BC3E70A2202FBCA
S11333F00A0AAAF1300ABDE74C480827059046E0BE
S11334004A4F42E04BF4007B0CE04FF0020941E0EC
S113341018A8079901F0E8FD4BF0400B07904FF016
S1133420010937E0414A1027059230E01BF0100FE4
S11334307FF432AF1BF0040F05F1040102D02D68B4
S11334402E8004E01BF0010F03D02F683E600D4670
S113345022E71BF0020F05F1040704D02A68F017D5
S11334601660506001E02D682E603D4614E70F1889
S11334707B7803F00301012906D14BF0010B03E033
S11334802B480027059002E0294F05970A27029749
S11334904FF003096368002B03DD1BF0400F22D1BA
S11334A00EE04046214601F016FD0028F5D098E2D2
S11334B063685A1E0136002A62600DDD0130206007
S11334C0194920680B6802789A18517801F00803AA
S11334D0DAB2002AECD106E04046214601F0FBFCBA
S11334E00028EDD07DE2B9F1020F00F0E680B9F1D9
S11334F0030F00F0AA81B9F1010F00F08A80BAF13C
S1133500000F08BF4FF0010A1BF0010954D000213D
S113351008220AA8FFF732F91BF010070AD1D5F8E0
S11335200090043508E000BF80040020A55300008B
S1133530ED5000004FF000094FF0000B01F024F8AB
S1133540834500F04E822068636810F8011B0EAAC0
S1133550206002F80B100AA8591E0BF1010B6160E0
S11335600090494640465B4601F0AAFA421C00F02E
S1133570388218B927B9C9F8007001E0023007D0C1
S11335805E440AF1FF3A0FB909F104094FF0000B48
S11335906268002A0CDC4046214601F09CFC38B1EC
S11335A0BBF1000F40F01D82002F00F0FA8073E69B
S11335B0BAF1000FC2D1F7E71BF0100F1BD06768F8
S11335C0206857450FDAC219226040462146B944A3
S11335D0C7EB0A0A01F07FFC0028F0D0B9F1000F14
S11335E040F0FD81FDE1CAEB070100EB0A03D14481
S11335F061602360F3E10094404629680122534648
S113360005F1040900F08CFC002800F0EA81861919
S113361016E1BAF1000F08BF4FF0FF3A1BF0100F8C
S11336201ED04FF00009236818A81A78815C91B164
S1133630626809F10109501E0133CA4560602360C4
S113364000F0CD810028EEDC4046214601F043FC29
S11336500028E8D0C3E1B9F1000F40F0C081CEE109
S1133660D5F8009005F1040B4D46236818A9187885
S11336700A5CBAB16068411E616013F8012B05F859
S1133680012B236009EB0A03AB420BD060680028CE
S1133690EBDC4046214601F01EFC0028E5D04D45F8
S11336A000F09F81B5EB090900F0A98100272F7074
S11336B0049D691C04915D4691E1BAF1000F08BFB5
S11336C04FF0FF3A1BF001096FD0002108220CA82B
S11336D0FFF754F81BF0100703D1D5F80090043518
S11336E001E00DF124094FF0000B22689049137892
S11336F00868C218537803F00801C8B200284BD1F7
S1133700BAF1000F48D000F03FFF834500F0698113
S11337102368606813F8011B0EAA236002F80B10DB
S11337200CAB411E0BF1010B6160009340465B46FC
S1133730494601F0C5F9431C00F0538110B9C9F89A
S1133740000001E002301AD0D9F8000000F0E8FED1
S113375060B1BBF1000F1FD00BF1FF3B0EA9404637
S113376011F80B10224601F094FFF2E75E440AF1CF
S1133770FF3A1FB909F10409BB4600E083466268B9
S1133780002AB2DC4046214601F0A5FB0028ACD05B
S1133790BBF1000F40F02581002F7FF47DADC9F807
S11337A00070049F781C049076E51BF0100F1ED067
S11337B05F4A206813680778D9194F7807F0080220
S11337C0D3B2002B40F00B81616809F101094F1E4F
S11337D00130CA456760206000F00181002FE7DCFA
S11337E04046214601F077FB0028E1D0F7E0D5F808
S11337F000B005F104095D464D4920680F6803785F
S1133800FA18537803F00801CFB2A7B96268531EBF
S1133810636010F8011B05F8011B20600BEB0A0024
S1133820A84208D06768002FE6DC4046214601F034
S113383052FB0028E0D000222A70CBEB0505761954
S1133840049B591C04914D4626E50AF1FF33262BAF
S113385086BFAAF127034FF0270A002300274BF461
S1133860586B06970DF1380921680A78392A09D866
S1133870382A35D2302A14D02CD82B2A3DD02D2AE0
S113388064D13AE0582A3ED004D8A2F14100052878
S11338905CD82CE0612A59D3662A28D9782A55D1D4
S11338A031E01BF4006F39D0029F1FB908274BF495
S11338B0007B02971BF4806F02D02BF4B06B2DE0D9
S11338C02BF4607B13B1013B0AF1010A069F013717
S11338D0069725E0029F174830F91700029009E087
S11338E0029F144830F917000290082801E0029F53
S11338F00A2F2BDD2BF4386B10E01BF0800F25D042
S11339002BF0800B0AE00BF4C060B0F5007F1DD1F2
S11339102BF4007C10274CF4A06B029709F8012BC0
S11339206268501E0028606006DD013121600AE0F3
S1133930800400206262000040462146039301F0A7
S1133940CAFA039B10B9BAF1010A8DD11BF4807F26
S11339500ED00EAA914508D919F8011C40462246FA
S113396001F097FE09F1FF3AD1460EA8814546D0F1
S11339701BF010022ED1029B059F89F800204046BF
S11339800EA9B8471BF0200F05F104031CD11BF04E
S1133990040F02D02D68288018E01BF0010213D117
S11339A01BF0020F10D0194B059F9F4240460EA9F1
S11339B0029B02D101F082FD01E001F02BFC2A6898
S11339C0043582E8030002E0296808601D46049873
S11339D0431C04930EAF069AC7EB090991444E4465
S11339E05AE400F012FA049F1FB94FF0FF3704970E
S11339F007E0A18901F0400210B210B1F5E700F030
S1133A0004FA049859B0BDE8F08F00BFA553000034
S1133A102DE9F041884617461E46044618B1856BC9
S1133A200DB900F08DF9204641463A463346BDE8CB
S1133A30F041FFF717BC30B51346054A05460C465E
S1133A40106829462246BDE83040FFF70BBC00BF92
S1133A50500000202DE9F041084C804620680F46B4
S1133A60164618B1856B0DB900F06AF92068414615
S1133A703A463346BDE8F041FFF7F4BB500000205E
S1133A8038B52C4B054618680C4618B1826B0AB938
S1133A9000F056F9A08900F008010BB20BBB00F04E
S1133AA0100211B211B94FF0FF3038BD00F004001C
S1133AB003B293B1216B41B104F14002914202D0AF
S1133AC0284600F0D9FA00212163A089216920F059
S1133AD024030022A38162602160A08940F00803CE
S1133AE0A38122694AB9A18901F42070B0F5007F4D
S1133AF003D02846214600F065FDA38913F0010296
S1133B0005D0616900224842A260A06107E003F089
S1133B10020108B208B9636900E01346A36023698F
S1133B2033B9A28902F0800108B20028BBD138BDA4
S1133B30002038BD50000020024B13B1024800F0B1
S1133B4005B8704700000000C526000001460020AB
S1133B5002460346FEF768BD2DE9F0410C460546D2
S1133B6018B1836B0BB900F0EBF8A28932B302F001
S1133B70080001B2002962D1616842F400600029A2
S1133B80A08102DCE36B002B18DDA66AB6B102F457
S1133B908052002012B22F6828600AB1226D10E012
S1133BA001232846E169B0470246013009D129685A
S1133BB039B11D2901D016294FD12F600020BDE84D
S1133BC0F081A68906F004010BB22BB16068266B64
S1133BD0121A0EB1E16B521AE169A66A0023284653
S1133BE0B047411C05D12A681AB11D2A01D0162AF2
S1133BF01FD1A38923F400620021A28103F480531E
S1133C002269616019B2226021B1421C01D12A6883
S1133C1002B92065216B2F600029CFD004F1400048
S1133C20814202D0284600F027FA00202063BDE834
S1133C30F081A38943F04001A181BDE8F0812669A8
S1133C40002EBBD09207236808BF6269266018BFA4
S1133C500022C6EB0308A26012E0A38943F04000EF
S1133C60A0814FF0FF30BDE8F081676AE169284622
S1133C7032464346B8470028EFDD3618C0EB080843
S1133C80B8F1000FF1DC99E7014620B90448054971
S1133C90006800F023BC044B1868FFF75DBF00BF49
S1133CA018620000593B00005000002000207047BB
S1133CB000207047014900F0F0BB00BFA959000083
S1133CC0002310B50446036043608360818143662A
S1133CD0C2810361436183611946082200F15C00DB
S1133CE0FEF74CFD04480549054A064BE461206291
S1133CF06162A262E36210BD495000006F5000008F
S1133D00AB500000CF50000070B568254D430E46FF
S1133D1005F10C0100F0D2FC044640B100F10C00A6
S1133D20002184E84200A0602A46FEF727FD2046D1
S1133D3070BD024B1868FFF7BDBF00BF18620000DA
S1133D4038B5836B0446EBB90F4AC0F8E03201255D
S1133D50C263856304F53B7103201A46C4F8E40288
S1133D60C4F8E81260680421FFF7AAFFA0680921DB
S1133D702A46FFF7A5FFE06812210222BDE8384079
S1133D80FFF79EBF38BD00BFB53C0000F8B51D4B22
S1133D901E680746B06B10B93046FFF7D1FF06F531
S1133DA03876B4687168013904D4B4F90C5085B11B
S1133DB06834F8E732680AB13668F2E73846042115
S1133DC0FFF7A2FF30600028F6D10C243C600446C3
S1133DD015E04FF6FF730120A081E381656625603D
S1133DE0A560656025616561A56104F15C002946F3
S1133DF00822FEF7C3FC256365636564A564204659
S1133E00F8BD00BF186200007047704770477047E4
S1133E10024B0349186800F040BB00BF500000206B
S1133E20AD3C0000024B0349186800F036BB00BFEC
S1133E3050000020B13C000093892DE9F341144661
S1133E4003F40052804610B20E4630B9676E43F454
S1133E50005147F40053A181636600F095FB0128EB
S1133E6006D12EB1FF2E03D88DF8046007460FE06B
S1133E703246404601A904F15C0301F0DBFC421C1C
S1133E80074605D1A28942F04000A081384631E0BE
S1133E900025BD422AD0A1684A1E002AA26001ABB7
S1133EA01ADAA06982420CDB21685A5D0A70236821
S1133EB019780A2903D001330022236013E0404615
S1133EC001E0595D4046224601F05AFCB0F1FF3151
S1133ED0484250EB010206E02068595D01702268F7
S1133EE0531C236000E01AB90135D2E7304601E0E3
S1133EF04FF0FF30BDE8FC81F8B5084C0746206858
S1133F000E4618B1856B0DB9FFF71AFF20683946C4
S1133F103246BDE8F840FFF78FBF00BF50000020D5
S1133F202DE9F84F1E46134673438246884693464E
S1133F300A9C99463ED018B1816B09B9FFF700FF7E
S1133F40FFF762FFA08900F4005215B235B9636E21
S1133F5040F4005723F40051A7816166606800288B
S1133F6001DA002262604D4667682168BD4240461E
S1133F7014D93A4600F012FE2268D3192360504641
S1133F802146B844ED1B00F0A6FF0028ECD0C5EB99
S1133F900905FFF73AFFB5FBFBF60CE02A4600F0F3
S1133FA0FDFD63682068591B451961602560FFF7B2
S1133FB02CFF00E01E463046BDE8F88F73B5009331
S1133FC0054B06460D461446186831462A462346D4
S1133FD0FFF7A6FF7CBD00BF50000020F8B5234DBD
S1133FE00E46044600F0FDFDAB685F6827F003074A
S1133FF007F6EF70811B21F47F6222F00F06A6F50D
S11340008056B6F5805F04DA204600F0EBFD002010
S1134010F8BD0021204600F0D7FFAB68D9198842CB
S1134020F2D17142204600F0CFFF013010D10021BF
S1134030204600F0C9FFAB68C21A0F2AE4DD0C4920
S11340400968401A0B4942F0010208605A60DBE734
S1134050084BA8681A68BF1B47F001074760961B06
S113406020461E6000F0BEFD0120F8BD00050020C2
S11340700809002048090020F8B506460D46002925
S113408000F0A68000F0ADFD55F804CC514FA5F129
S113409008032CF001029C18B96860688C4220F077
S11340A003000CF001011CD1821839B955F8081C21
S11340B05B1A52189868D968C1608860454842F014
S11340C0010159608360444B19688A4204D3434A0E
S11340D030461168FFF782FF3046BDE8F84000F033
S11340E081BD606059B955F8085C5B1B52199D6825
S11340F00837BD4205D0DF68EF60BD6002E00021F3
S113410000E0012125186D6815F0010F0FD1121878
S113411049B9A068324DA84205D1EB60AB60D860C4
S11341209860012103E0E068A468E060846042F0E4
S1134130010058609A500029CED1B2F5007F0CD20C
S11341402449D2089010012404FA00F4486820435A
S1134150486001EBC200816835E0540A042C02D89F
S11341609409383416E0142C01D85B3412E0542C32
S113417002D8140B6E340DE0B4F5AA7F02D8D40B28
S1134180773407E040F25455AC4202D8940C7C34A6
S113419000E07E240F4D05EBC400816881420CD100
S11341A068680122A41002FA04F444EA00026A6076
S11341B0084608E08968814204D04C6824F003046E
S11341C0A242F7D3C868D86099608360CB6083E764
S11341D0F8BD00BF000500200C09002044090020A0
S11341E00805002093682DE9F74F06460C469146D2
S11341F00BB900204FE1888900F008010AB20AB126
S113420023695BB930462146FFF73AFC30B1A189F6
S1134210092241F04000A08132603AE1B4F80CA0D8
S1134220D9F800800AF0020C0FFA8CF515B34FF0A0
S1134230000A574637B9D8F800A0D8F8047008F136
S11342400808F7E7B7F5806F34BF3B464FF4806347
S11342503046E169656A5246A847002840F3158153
S1134260D9F8081082443F1A081AC9F8080000282F
S1134270E0D1BEE71AF0010A04D0AB4601952F46FF
S1134280AA46C7E0554635B9D8F800A0D8F8045076
S113429008F10808F7E7A289D4F808B002F400701E
S11342A003B2002B52D05D4540D312F4906F3BD043
S11342B02169276863694FF0030B0BFB03F30220AA
S11342C07F1A93FBF0FC7B1C581902F4806284452E
S11342D028BF604613B2019030467BB1019900F0CB
S11342E0EDF9834698B121693A4600F057FCA1895B
S11342F021F4906040F08002A2810BE0019A00F06A
S113430073FC834630B930462169FFF7B5FE0C23B0
S11343103360BAE00199C4F810B00BEB0703CF1B6C
S113432023606161AB46A7605D4500D2AB465A4647
S11343305146206800F03BFCA0682368CBEB0002E8
S113434003EB0B01A2602160AB462AE020682169DF
S113435088420FD95D450DD951465A4600F027FCD5
S1134360226802EB0B00206021463046FFF7F4FB85
S1134370B8B18AE063699D4208D3676AE16930464F
S11343805246B847B0F1000B0BDC7EE051462A469A
S113439000F00DFCA2682368501B5919AB46A060BD
S11343A02160D9F80800CBEB0002DA44CBEB050519
S11343B0C9F80820002A7FF466AF1AE7019800289C
S11343C032D020682169A568D4F814E0D34534BFFD
S11343D05B465346884237D97544AB4234DD39468F
S11343E02A4600F0E4FB2068431923603046214646
S11343F0FFF7B2FB002848D1BBEB050B3DD0D9F841
S113440008207F19C5EB0A0A551BC9F80850002D6E
S11344103FF4EFAEBAF1000FD0D1002198E8800448
S1134420019108F10808F5E738460A21524600F0E0
S1134430A7FB20B100F10101C7EB010B01E00AF178
S1134440010B01220192BCE7734508DB656AE1694F
S113445030463A467346A847051ECDDC15E01A4699
S11344603946009300F0A3FB009B2568A068E91877
S1134470C21AA26021601D46BEE730462146FFF7FE
S11344806BFB10B9CDF804B0B9E7A28942F0400340
S1134490A3814FF0FF30BDE8FE8F2DE9F0410446C3
S11344A08846FFF7B1FC04F5387400268CB1A56882
S11344B06768013F0BD4B5F90C3033B1B5F90E0080
S11344C0431C02D02846C04706436835F1E72468F8
S11344D0ECE7FFF79AFC3046BDE8F0812DE9F8439C
S11344E080468946FFF790FC08F53874002694B19D
S11344F0A5686768013F0CD4B5F90C303BB1B5F938
S11345000E00431C03D040462946C847064368357D
S1134510F0E72468EBE7FFF778FC3046BDE8F88362
S1134520FF2807D8044B19680818427802F00803DA
S1134530D8B27047002070478004002010B514469C
S11345400AB90C4810BD10460B4900F0C4FD002800
S1134550F7D02046074900F0BEFD0028F1D02046E0
S1134560064900F0B8FD034B00280CBF1846002094
S113457010BD00BF1C620000856300001F620000C4
S11345800048704784040020014B186A704700BF3C
S11345908404002000487047A804002000207047CD
S11345A000487047C80400200A46034903460868C7
S11345B01946FFF7C3BF00BF5000002000487047F2
S11345C0C8040020F0B58B890C4603F002010AB23E
S11345D091B00646002A3FD1B4F90E1000290DDA35
S11345E0A78907F0800247F4006310B200280CBFCB
S11345F04FF480654025A381002720E001AA01F043
S1134600DBF90028ECDB029800F47045B5F50053A3
S11346105F425F41B5F5004F0BD1A16A1D4A91423B
S113462007D1A3894FF4806543F48061A181E564D7
S113463005E0A08940F40065A5814FF4806530460B
S1134640294600F03BF870B9A38903F4007210B254
S1134650E8B943F00201A18104F14303012223607C
S11346602361626113E0A2890B4942F08003F16384
S1134670A3812060206165614FB13046B4F90E100A
S113468001F0ACF918B1A08940F00101A18111B089
S1134690F0BD00BFAB500000B53C0000024B01462A
S11346A0186800F00BB800BF50000020024B014610
S11346B01868FFF7E1BC00BF500000202DE9F04767
S11346C001F10B04162C064603D934F0070401D576
S11346D002E010248C4202D20C253560D9E1304628
S11346E000F07FFAB4F5FC7F14D2A04DE10805EB8D
S11346F0C100C568854205D105F108036D698A1CAE
S11347009D4244D0E868A9686A68C86022F003033F
S1134710816059E0620A01D1E2081BE0042A02D850
S1134720A209383216E0142A01D85B3212E0542A66
S113473002D8220B6E320DE0B2F5AA7F02D8E20B4A
S1134740773207E040F254539A4202D8A20C7C32EA
S113475000E07E22854800EBC203DD689D4215D04F
S1134760696821F00301081B0F2801DD013A0DE0FF
S1134770002809DBEB68AA68D3609A606B185A6852
S113478042F00100586090E1ED68E7E701327749B3
S11347900D6901F10807BD4268D0686820F0030381
S11347A0181B0F280CDD2B194B610B6144F001041D
S11347B040F001016C60DF609F605960185074E143
S11347C000284F610F6101DBEB18D8E7B3F5007FD8
S11347D00FD2DB089810012707FA00F7486807434F
S11347E04F6001EBC301E9608B68AB60DD608D60F5
S11347F03CE0580A042802D89809383016E01428F6
S113480001D85B3012E0542802D8180B6E300DE04A
S1134810B0F5AA7F02D8D80B773007E040F254579E
S1134820B84202D8980C7C3000E07E20DFF83CE1EE
S11348300EEBC007B968B9420ED18710012303FA01
S113484007F0DEF8047040EA0703CEF804300846A7
S113485008E08968B94204D0486820F00300834224
S1134860F7D3C868E860A960CD6085603F4F9510B4
S11348700120796800FA05F38B425DD80B4205D11B
S113488022F003025B0004320B42FBD0374D05EBF0
S1134890C20E77461046FD68BD422DD0696821F0EE
S11348A0030CC4EB0C010F2913DD2B1944F0010494
S11348B0EA686C6055F8080F5950C26090602B4A42
S11348C041F00100536113610832DA609A60586064
S11348D00CE000290EDB05EB0C00E968426842F0AD
S11348E00103436055F8080FC1608860304600F04A
S11348F079F9DEE0ED68CFE70130810705F10807BB
S1134900C9D17146950705D1184A556825EA0305AA
S1134910556005E0A1F108070968013AB942F1D0F0
S1134920124F7F685B00BB4206D82BB102463B4264
S1134930ACD104325B00FAE70C4B9F68786820F036
S11349400309A145194604D3C4EB09000F2800F359
S1134950A280074AD1F808341568013307EB090A25
S113496004EB050806D108F110080BE0000500204F
S11349704409002008F5805000F10F0121F47F6202
S113498022F00F083046414600F01EFB421C05464B
S113499071D0504502D2484B9F426CD14748464A99
S11349A04168554508EB0103436007D1290505D14A
S11349B09568C84448F00100686051E0D2F80804E2
S11349C0421C03D13C4AC2F8085405E0CAEB050A6C
S11349D003EB0A01394B596015F007001CBFC0F105
S11349E008002D1805EB080C00F580514FEA0C5E09
S11349F0A1EB1E584146304600F0E6FA2F4A431C0C
S1134A00536808BF4FF0000808EB030108BF2846AD
S1134A105160401B284A00EB080343F00101974210
S1134A20956069601CD0B9F10F0F02D801226A6049
S1134A3021E07D68A9F10C0929F0070907EB0903B6
S1134A4005F00102052149EA0200B9F10F0F78606F
S1134A505960996004D9304607F10801FFF70CFB4F
S1134A60164A5368D16A156B8B4288BFD362AB4236
S1134A7084BF124D2B6310488268536823F00301EE
S1134A80A142C4EB010001D30F2804DC304600F03E
S1134A90A9F800250DE0084A956844F001032C1993
S1134AA040F001016B6094606160304600F09AF858
S1134AB008352846BDE8F087000500204409002099
S1134AC02DE9F7431646104A0A9D1768044689469D
S1134AD0984646B9FFF754FD31468DE821000B4A4C
S1134AE02046012307E0FFF74BFD49468DE82100EE
S1134AF0324620464346B847431C03D100238A214B
S1134B002B602160BDE8FE83100900201F620000B5
S1134B1073B50093054B06460D4614461868314696
S1134B202A462346FFF7CCFF7CBD00BF500000207F
S1134B3082B001B901A93AB143B113780B6010787E
S1134B40003018BF012003E0104601E06FF00100BF
S1134B5002B070472DE9F7431F46084B06468946C5
S1134B6090461C68FFF70CFD0A9D009001953046A5
S1134B70494642463B46A047BDE8FE831009002053
S1134B8010B5C9B2034682189342184604D004787B
S1134B9001338C42F8D100E0002010BD10B5002391
S1134BA0934203D0CC5CC4540133F9E710BD814275
S1134BB070B50ED28C18A0420BD28518134613F18F
S1134BC0FF3305D3514266186918F65CCE54F6E7F4
S1134BD070BD0023934203D0CC5CC4540133F9E785
S1134BE070BD7047704700002DE9F84F81461646A6
S1134BF00C4621B91146BDE8F84FFFF75FBDFFF73A
S1134C00F0FF06F10B0754F8045C162FA4F1080B0F
S1134C1025F0030803D937F0070701D502E0102770
S1134C20B74204D20C20C9F80000002645E1B8457B
S1134C3080F21A81A24A91680BEB08038B4206D0DA
S1134C40586820F0010298184268D00726D45A68A0
S1134C508B4222F0030000EB080A18D107F110027E
S1134C6092451DDB0BEB0705C7EB0A0A4AF001016D
S1134C70696054F8042C924E02F001031F43B5609E
S1134C8044F8047C4846FFF7ADFF264615E1BA45D3
S1134C9006DBDD689E68F560AE60E6E00020034652
S1134CA0EA0700F1918054F8085CC5EB0B056A68CB
S1134CB022F00302002B51D002EB080A8B428244FB
S1134CC045D107F110039A4548DB2E46E96856F8AA
S1134CD0083FA8F10402242AD9608B6025D8132A3E
S1134CE01BD92168A96063681B2AEB6003D805F10E
S1134CF01000083412E0A0682861E168242A696180
S1134D0003D005F11800103408E02269AA61636930
S1134D1005F12000EB61183400E0304621680160A1
S1134D2062684260A368836003E030462146FFF76F
S1134D303EFFE819C7EB0A0A4AF0010242606B68B9
S1134D405F49886003F0010007436F6088E0BA455B
S1134D5004DBD9689868C160886003E002EB080A44
S1134D60BA4531DB2846EB6850F8081FA8F1040265
S1134D70242ACB60996023D8132A1AD92068A86002
S1134D8066681B2AEE6003D805F11000083410E0B1
S1134D90A3682B61E168242A696103D005F1180036
S1134DA0103406E02269AA6160691834E86105F1EB
S1134DB020002668066063684360A168816055E04E
S1134DC02146FFF7F4FE51E031464846FFF776FCF2
S1134DD00646002844D054F8041C21F00103A0F135
S1134DE008020BEB03018A4206D150F8046C26F04A
S1134DF0030505EB080A38E0A8F10402242A28D8A0
S1134E00132A1ED92368036061681B2A416004D8F1
S1134E1000F1080004F1080214E0A068B060E3683F
S1134E20242AF36004D006F1100004F1100209E012
S1134E3022693261616906F11800716104F1180296
S1134E4000E0224613680360516841609268826002
S1134E5002E02146FFF7ABFE48462146FFF70CF976
S1134E604846FFF7BFFE28E0C2465D46C7EB0A008E
S1134E700F286A6811D9E91902F00106374340F096
S1134E80010308186F604B60426842F001064660F7
S1134E9008314846FFF7F0F80AE002F0010605EB96
S1134EA00A014AEA06036B60486840F001024A605E
S1134EB04846FFF797FE05F108063046BDE8F88F2F
S1134EC000050020838903F00901092901D1FEF7B7
S1134ED0DBBE0020704770B50C46054618B1836BE5
S1134EE00BB9FEF72DFFA08900F4005211B231B9BD
S1134EF040F40053606EA38120F400526266A389DB
S1134F0003F02000002102B26160002A52D103F0B4
S1134F10040108B2D8B903F0100002B212B9092191
S1134F20296044E003F0080319B259B12846214628
S1134F30FEF712FE00283DD1A689A06026F00802E3
S1134F40A281A061A08940F00403A38110E0216B39
S1134F5071B104F14003994202D02846FFF78CF85E
S1134F60E26B00202063626012B1A16B216070BD0E
S1134F70216919B928462146FFF724FBA689B307FE
S1134F8004D00F4A0F491068FFF787FA2269266A8E
S1134F9022602846E1696369B047002860600CDC40
S1134FA0A38902D143F0200203E00020606043F0B3
S1134FB04002A2814FF0FF3070BD002070BD00BFE1
S1134FC018620000C54E000038B5064C00230546A3
S1134FD008462360FCF7C4FF431C02D1216801B1D9
S1134FE0296038BD84090020F0B50B785E2B02D00F
S1134FF00131002402E04B78012402310022845460
S11350000132B2F5807FFAD10BB94A1E1AE0C4F11D
S11350100107FEB2C6540A46114611F8014B2D2C65
S113502004D05D2C0DD06CB12346F2E755785D2D8C
S1135030FAD09D42F8DB02320133AB42C654FBDBAB
S1135040EAE70A461046F0BD10B50C46B1F90E1059
S113505000F0E6FC002803DB226D1318236510BD65
S1135060A38923F48051A18110BD002070472DE94C
S1135070F0411D468B890C4603F4807116460AB232
S113508007462AB1B4F90E100022022300F0B6FC40
S1135090A089B4F90E1020F48053A3813846324617
S11350A02B46BDE8F04100F01BBC10B50C46B1F92D
S11350B00E1000F0A3FC431CA38903D123F48052F7
S11350C0A28110BD43F48051A181206510BDB1F9C6
S11350D00E1000F017BC10F8012B11F8013B012A47
S11350E028BF9A42F7D0A2EB030070472DE9F74F8F
S11350F001904048D0F800900846044614F8015B3B
S113510009EB05062046777807F00806F7B2002F6A
S1135110F3D12D2D03D114F8015B012704E02B2DCD
S113512004BF244614F8015B002B5CD0102B07D17C
S1135130302D05D12578782D4ED165781023023491
S1135140002F0CBF6FF000404FF00040B0FBF3FAAB
S1135150002603FB1A08304609EB050C9CF801C035
S11351600CF0040B5FFA8BFBBBF1000F01D0303D58
S11351700BE01CF0030C1BD0BCF1010F14BF4FF06B
S1135180570C4FF0370CCCEB05059D4210DAB6F105
S1135190FF3F0AD0504506D801D1454503DC03FB47
S11351A00050012601E04FF0FF3614F8015BD3E70D
S11351B0731C0AD1002F01990CBF6FF000404FF00F
S11351C0004022230B6022B911E007B1404272B1C2
S11351D006B1611E11600AE0582DAED03025002BB7
S11351E0AED10823ACE7302DA4D00A23A8E7BDE84C
S11351F0FE8F00BF8004002030B51346044A0546E4
S11352000C46106829462246BDE83040FFF76EBFC1
S1135210500000202DE9F04F984689B0604B07906C
S113522018680491944605900E46059C16F8017B77
S1135230E219314692F801A00AF00805EBB2002BFE
S1135240F2D12D2F04D116F8017B4FF0010A06E0AC
S11352502B2F08BF36469A4608BF16F8017BB8F1D3
S1135260000F00F09280B8F1100F08D1302F06D152
S11352703778782F7ED177784FF010080236BAF15C
S1135280000F03D000244FF0004503E04FF0FF343B
S11352906FF000454FEAE87B2046294642465B46CC
S11352A0CDF804C000F0CEFB5B4606922046424691
S11352B0294600F0C7FBDDF804C00391C146029003
S11352C00021002200230598C419607800F004042A
S11352D0E4B20CB1303F07E010F0030026D00128FF
S11352E014BF572037203F1A47451FDA4C1C1AD0E9
S11352F0DDE90201994208BF904212D38B4208BFF4
S1135300824202D106998F420BDC02FB0BF409FBAB
S11353100340A2FB0923D219034443EBE7730121A1
S113532001E04FF0FF3116F8017BCCE7481C11D1A6
S1135330BAF1000F03D000224FF0004303E04FF016
S1135340FF326FF00043079C22202060BCF1000F65
S11353500AD120E0BAF1000F02D0524263EB4303BA
S1135360BCF1000F17D009B1013E0496049CCCF89F
S1135370004010E0582F3FF47EAF3027B8F1000F03
S11353807FF47DAF4FF0080879E7302F3FF470AF1A
S11353904FF00A0873E71046194609B0BDE8F08FCC
S11353A0800400202DE9F74F01903C48D0F800908C
S11353B00846044614F8015B09EB05062046777895
S11353C007F00806F7B2002FF3D12D2D03D114F8FE
S11353D0015B012704E02B2D04BF244614F8015B74
S11353E0002B55D0102B07D1302D05D12578782DE1
S11353F047D16578102302344FF0FF3ABAFBF3FA31
S113540003FB0AF000266FEA0008304609EB050C9E
S11354109CF801C00CF0040B5FFA8BFBBBF1000F8E
S113542001D0303D0BE01CF0030C1BD0BCF1010F8C
S113543014BF4FF0570C4FF0370CCCEB05059D42D1
S113544010DAB6F1FF3F0AD0504506D801D14545E0
S113545003DC03FB0050012601E04FF0FF3614F893
S1135460015BD3E7731C05D1019922230B603046FD
S113547022B911E007B1404272B106B1611E116058
S11354800AE0582DB5D03025002BB5D10823B3E759
S1135490302DABD00A23AFE7BDE8FE8F8004002097
S11354A030B51346044A05460C4610682946224680
S11354B0BDE83040FFF776BF500000202DE9F04FE3
S11354C01E4687B0544B059018688A46934603904D
S11354D00C46039A14F8015B5719214697F801907A
S11354E009F00803D8B20028F2D12D2D04D114F804
S11354F0015B4FF0010906E02B2D08BF24468146CD
S113550008BF14F8015B002E7DD0102E07D1302D7A
S113551005D12578782D6FD16578102602344FEAAD
S1135520E678324643464FF0FF304FF0FF3100F04B
S113553089FA32468DE8030043464FF0FF304FF0BE
S1135540FF3100F07FFA3746049200210022002345
S1135550039800EB050C9CF8010000F0040E5FFAC0
S11355608EFCBCF1000F01D0303D07E010F00300C9
S113557026D0012814BF572037202D1AB5421FDA30
S1135580481C1AD0DDE90001994208BF904212D3A9
S11355908B4208BF824202D104998D420BDC02FB8C
S11355A008F007FB0301A2FB0723CB18521943EBB6
S11355B0E573012101E04FF0FF3114F8015BC7E707
S11355C0481C0AD1059A222010604FF0FF334FF097
S11355D0FF32BBF1000F0AD119E0B9F1000F02D07C
S11355E0524263EB4303BBF1000F10D009B104F145
S11355F0FF3ACBF800A00AE0582D8DD03025002EBC
S11356008DD108268BE7302D83D00A2687E71046F4
S1135610194607B0BDE8F08F800400202DE9F04161
S11356200C46096B04F1400399421CD14FF480618C
S1135630FFF744F818B94FF0FF30BDE8F08194F853
S1135640422020634FF48061616380F8FF2394F863
S1135650413080F8FE3394F8401080F8FD1300F2D6
S1135660FD30206012E0666B77003A46FFF7BCFA23
S113567005460028DFD000EB06084046294632469E
S1135680FFF78CFAC4F80080256367630020BDE847
S1135690F0814B1C70B506460D46144602D14FF0FE
S11356A0FF3562E018B1836B0BB9FEF749FBA089A3
S11356B000F4005211B231B940F40053606EA3817A
S11356C020F400526266A18901F0040021F0200355
S11356D002B2A381C2B901F0100318B20028DED0CF
S11356E001F008010AB25AB130462146FEF734FAF5
S11356F00028D4D1A389A06023F00801A181A0616E
S1135700A08940F00402A281236BEDB283B16268E8
S1135710636B9A4205DA2168481E206001F8015C37
S113572011E030462146FFF779FF0028F3D0B6E7B1
S1135730216959B12068884208D910F8012CAA427D
S113574004D1013820606268511C0DE0636821684F
S1135750E363234604F1400003F8425F0322A1639C
S113576020636263236001216160284670BD0A469C
S11357700249034608681946FFF78BBF5000002012
S113578070B50D461446064618B1836B0BB9FEF787
S1135790D7FAA189A06901F0080213B2A0600BB185
S11357A0206958B930462146FEF76AF930B1A58917
S11357B0092045F04001A181306017E0A18901F47E
S11357C0005213B2EDB233B941F40050616EA081BE
S11357D021F400526266206823696169C01A884214
S11357E007DB30462146FEF7B7F910B14FF0FF351D
S11357F015E0A2682168531EA36001F8015B626989
S113580021600130904204D0A389DB0707D50A2D1B
S113581005D130462146FEF79FF90028E6D12846F7
S113582070BD0A460249034608681946FFF7A8BF37
S1135830500000202DE9F0411D46104B86B004466F
S113584090460E461F6839B9FEF79AFE0095034646
S113585003A92046324606E0FEF792FE0095034671
S1135860314620464246B847431C03D100218A22D0
S11358702960226006B0BDE8F08100BF1409002051
S113588030B51346044A05460C461068294622469C
S1135890BDE83040FFF7CEBF5000002049B1FF2AD9
S11358A004D98A2303604FF0FF3070470A70012047
S11358B07047084670472DE9F3419846074B054663
S11358C00F4616461C68FEF75BFECDF800800346C3
S11358D0394628463246A047BDE8FC811409002019
S11358E038B5074C054600202060084611461A4684
S11358F0FBF750FF431C02D1236803B12B6038BD72
S11359008409002038B5064C002305460846236068
S1135910FCF73EFB431C02D1216801B1296038BD6C
S11359208409002070B505460C46002939D0FEF7DD
S11359306BFA25B1AB6B13B92846FEF701FAB4F93B
S11359400C605EB328462146FEF706F9E26A064675
S11359503AB12846E169904736EA200628BF4FF05D
S1135960FF36A08900F080010BB21BB128462169E3
S1135970FEF782FB216B41B104F14002914202D057
S11359802846FEF779FB00202063616C21B128468C
S1135990FEF772FB002161640023A381FEF735FA50
S11359A000E00E46304670BD024B01461868FFF712
S11359B0B9BF00BF5000002038B5074C002305468E
S11359C0084611462360FCF7E7FA431C02D121681C
S11359D001B1296038BD00BF8409002038B5064CE8
S11359E00023054608462360FCF7DCFA431C02D179
S11359F0216801B1296038BD8409002038B5074CFD
S1135A00054600202060084611461A46FCF7CEFAE7
S1135A10431C02D1236803B12B6038BD84090020E4
S1135A2038B5074C054600202060084611461A4642
S1135A30FBF76CFE431C02D1236803B12B6038BD15
S1135A40840900204BB942B9002908BF002802D0BC
S1135A504FF0FF31084600F037B882B0EC462DE92C
S1135A60005000F01BF8DDF804E002B00CBC7047F5
S1135A70F8B5164604460D461F4600F027F806FB07
S1135A8001F300FB0737A6FB0023FB18A21A65EB02
S1135A900303069CC4E90023F8BD00BFF8B516460D
S1135AA004460D461F4600F06FF900FB07F7A0FB04
S1135AB0062306FB0177FB18A21A65EB0303069C79
S1135AC0C4E90023F8BD00BF704700BF00292DE9D9
S1135AD0F00F1D46C0F29D800024002DC0F294807A
S1135AE080460F4694461E46E3BB8A4255D9B2FA15
S1135AF082F747B1C7F1200520FA05F601FA07F14C
S1135B00BA403143B840170CB1FBF7F6030C1FFA47
S1135B1082FC07FB16110CFB06F543EA01439D4288
S1135B2008D9711E9B1880F013819D4240F21081A8
S1135B30023E9B18591BB1FBF7F507FB151380B206
S1135B400CFB05FC40EA03418C4507D96B1E8A18FF
S1135B5080F00081944540F2FD80023D45EA064113
S1135B60002503E08B420CD9002529460A462B4622
S1135B7014B1524263EB430310461946BDE8F00FDB
S1135B807047B3FA83F5002D40F087808B4201D330
S1135B908242EAD800250121E8E712B90126B6FBC2
S1135BA0F2F2B2FA82F6002E39D18E1A130C1FFAD1
S1135BB082FC0125B6FBF3F703FB17614FEA10499A
S1135BC00CFB07F849EA0146B04506D9791EB61818
S1135BD002D2B04500F2D3800F46C8EB0606B6FBEE
S1135BE0F3F103FB116380B20CFB01FC40EA0343B5
S1135BF09C4506D94E1E9A1802D2944500F2C280E2
S1135C00314641EA0741B1E7E443524263EB4303BF
S1135C1066E7404261EB41014FF0FF345DE7B2407B
S1135C20C6F1200921FA09F720FA09F5130C01FA43
S1135C3006F1B7FBF3F845EA01091FFA82FC03FBFE
S1135C4018774FEA19410CFB08F541EA0747B040C1
S1135C50BD420AD9BF1808F1FF3680F08E80BD42DC
S1135C6040F28B80A8F10208BF18791BB1FBF3F551
S1135C7003FB15171FFA89F90CFB05F649EA0741DE
S1135C808E4206D96F1E891871D28E426FD9023D99
S1135C9089188E1B45EA08458CE7C5F1200122FAD4
S1135CA001F306FA05F61E4327FA01F24FEA1649F4
S1135CB007FA05F720FA01F1B2FBF9F80F433B0CA0
S1135CC01FFA86FA09FB18220AFB08FB43EA024280
S1135CD093450CFA05FC08D9921908F1FF314AD210
